{
	"data": {
		"bytecode": {
			"linkReferences": {},
			"object": "61018060405262000015620002b960201b60201c565b600a62000023919062001405565b6404a817c80062000035919062001456565b610140908152506200004c620002b960201b60201c565b600a6200005a919062001405565b6402540be4006200006c919062001456565b610160908152503480156200008057600080fd5b506040518060400160405280601581526020017f596f67615265736561726368496e737469747574650000000000000000000000815250806040518060400160405280600181526020017f31000000000000000000000000000000000000000000000000000000000000008152506040518060400160405280601581526020017f596f67615265736561726368496e7374697475746500000000000000000000008152506040518060400160405280600481526020017f594f47490000000000000000000000000000000000000000000000000000000081525081600390816200016b919062001711565b5080600490816200017d919062001711565b50505060008280519060200120905060008280519060200120905060007f8b73c3c69bb8fe3d512ecc4cf759cc79239f7b179b0ffacaa9a75d522b39400f90508260e081815250508161010081815250504660a08181525050620001e9818484620002c260201b60201c565b608081815250503073ffffffffffffffffffffffffffffffffffffffff1660c08173ffffffffffffffffffffffffffffffffffffffff1681525050806101208181525050505050505050620002486000801b33620002fe60201b60201c565b6200027a7fe1dcbdb91df27212a29bc27177c840cf2f819ecf2187432e1fac86c2dd5dfca933620002fe60201b60201c565b6200029f336101605161014051620002939190620017f8565b6200031460201b60201c565b620002b3610160516200039460201b60201c565b62001efe565b60006012905090565b60008383834630604051602001620002df959493929190620018a4565b6040516020818303038152906040528051906020012090509392505050565b620003108282620003db60201b60201c565b5050565b610140518162000329620004cd60201b60201c565b62000335919062001901565b111562000379576040517f08c379a00000000000000000000000000000000000000000000000000000000081526004016200037090620019c3565b60405180910390fd5b620003908282620004d760201b620014681760201c565b5050565b620003a630826200031460201b60201c565b620003d87fe1dcbdb91df27212a29bc27177c840cf2f819ecf2187432e1fac86c2dd5dfca9306200059560201b60201c565b50565b620003ed8282620005ce60201b60201c565b620004c9576001600a600084815260200190815260200160002060000160008373ffffffffffffffffffffffffffffffffffffffff1673ffffffffffffffffffffffffffffffffffffffff16815260200190815260200160002060006101000a81548160ff0219169083151502179055506200046e6200063960201b60201c565b73ffffffffffffffffffffffffffffffffffffffff168173ffffffffffffffffffffffffffffffffffffffff16837f2f8788117e7eff1d82e926ec794901d17c78024a50270940304540a733656f0d60405160405180910390a45b5050565b6000600254905090565b620004ee82826200064160201b620014f51760201c565b620004fe620007ae60201b60201c565b7bffffffffffffffffffffffffffffffffffffffffffffffffffffffff166200052c620004cd60201b60201c565b111562000570576040517f08c379a0000000000000000000000000000000000000000000000000000000008152600401620005679062001a5b565b60405180910390fd5b6200058f6009620007d260201b6200164b1783620007ea60201b60201c565b50505050565b620005a68262000af760201b60201c565b620005b78162000b1760201b60201c565b620005c98383620003db60201b60201c565b505050565b6000600a600084815260200190815260200160002060000160008373ffffffffffffffffffffffffffffffffffffffff1673ffffffffffffffffffffffffffffffffffffffff16815260200190815260200160002060009054906101000a900460ff16905092915050565b600033905090565b600073ffffffffffffffffffffffffffffffffffffffff168273ffffffffffffffffffffffffffffffffffffffff1603620006b3576040517f08c379a0000000000000000000000000000000000000000000000000000000008152600401620006aa9062001acd565b60405180910390fd5b620006c76000838362000b3b60201b60201c565b8060026000828254620006db919062001901565b92505081905550806000808473ffffffffffffffffffffffffffffffffffffffff1673ffffffffffffffffffffffffffffffffffffffff168152602001908152602001600020600082825401925050819055508173ffffffffffffffffffffffffffffffffffffffff16600073ffffffffffffffffffffffffffffffffffffffff167fddf252ad1be2c89b69c2b068fc378daa952ba7f163c4a11628f55a4df523b3ef836040516200078e919062001aef565b60405180910390a3620007aa6000838362000b4060201b60201c565b5050565b60007bffffffffffffffffffffffffffffffffffffffffffffffffffffffff905090565b60008183620007e2919062001901565b905092915050565b6000806000858054905090506000808214620008c5576200082087600184620008149190620017f8565b62000b5d60201b60201c565b6040518060400160405290816000820160009054906101000a900463ffffffff1663ffffffff1663ffffffff1681526020016000820160049054906101000a90047bffffffffffffffffffffffffffffffffffffffffffffffffffffffff167bffffffffffffffffffffffffffffffffffffffffffffffffffffffff167bffffffffffffffffffffffffffffffffffffffffffffffffffffffff168152505062000901565b6040518060400160405280600063ffffffff16815260200160007bffffffffffffffffffffffffffffffffffffffffffffffffffffffff168152505b905080602001517bffffffffffffffffffffffffffffffffffffffffffffffffffffffff1693506200093484868860201c565b925060008211801562000950575043816000015163ffffffff16145b15620009e3576200096c8362000b7260201b620016611760201c565b6200098c88600185620009809190620017f8565b62000b5d60201b60201c565b60000160046101000a8154817bffffffffffffffffffffffffffffffffffffffffffffffffffffffff02191690837bffffffffffffffffffffffffffffffffffffffffffffffffffffffff16021790555062000aed565b86604051806040016040528062000a054362000be060201b620016cc1760201c565b63ffffffff16815260200162000a268662000b7260201b620016611760201c565b7bffffffffffffffffffffffffffffffffffffffffffffffffffffffff168152509080600181540180825580915050600190039060005260206000200160009091909190915060008201518160000160006101000a81548163ffffffff021916908363ffffffff16021790555060208201518160000160046101000a8154817bffffffffffffffffffffffffffffffffffffffffffffffffffffffff02191690837bffffffffffffffffffffffffffffffffffffffffffffffffffffffff16021790555050505b5050935093915050565b6000600a6000838152602001908152602001600020600101549050919050565b62000b388162000b2c6200063960201b60201c565b62000c3660201b60201c565b50565b505050565b62000b5883838362000ce260201b6200171f1760201c565b505050565b60008260005281602060002001905092915050565b60007bffffffffffffffffffffffffffffffffffffffffffffffffffffffff801682111562000bd8576040517f08c379a000000000000000000000000000000000000000000000000000000000815260040162000bcf9062001b82565b60405180910390fd5b819050919050565b600063ffffffff801682111562000c2e576040517f08c379a000000000000000000000000000000000000000000000000000000000815260040162000c259062001c1a565b60405180910390fd5b819050919050565b62000c488282620005ce60201b60201c565b62000cde5762000c638162000d3260201b6200174a1760201c565b62000c7e8360001c602062000d6760201b620017771760201c565b60405160200162000c9192919062001d4a565b6040516020818303038152906040526040517f08c379a000000000000000000000000000000000000000000000000000000000815260040162000cd5919062001dde565b60405180910390fd5b5050565b62000cfa83838362000fc260201b620019b31760201c565b62000d2d62000d0f8462000fc760201b60201c565b62000d208462000fc760201b60201c565b836200103060201b60201c565b505050565b606062000d608273ffffffffffffffffffffffffffffffffffffffff16601460ff1662000d6760201b60201c565b9050919050565b60606000600283600262000d7c919062001456565b62000d88919062001901565b67ffffffffffffffff81111562000da45762000da3620014ac565b5b6040519080825280601f01601f19166020018201604052801562000dd75781602001600182028036833780820191505090505b5090507f30000000000000000000000000000000000000000000000000000000000000008160008151811062000e125762000e1162001e02565b5b60200101907effffffffffffffffffffffffffffffffffffffffffffffffffffffffffffff1916908160001a9053507f78000000000000000000000000000000000000000000000000000000000000008160018151811062000e795762000e7862001e02565b5b60200101907effffffffffffffffffffffffffffffffffffffffffffffffffffffffffffff1916908160001a9053506000600184600262000ebb919062001456565b62000ec7919062001901565b90505b600181111562000f71577f3031323334353637383961626364656600000000000000000000000000000000600f86166010811062000f0d5762000f0c62001e02565b5b1a60f81b82828151811062000f275762000f2662001e02565b5b60200101907effffffffffffffffffffffffffffffffffffffffffffffffffffffffffffff1916908160001a905350600485901c94508062000f699062001e31565b905062000eca565b506000841462000fb8576040517f08c379a000000000000000000000000000000000000000000000000000000000815260040162000faf9062001eaf565b60405180910390fd5b8091505092915050565b505050565b6000600760008373ffffffffffffffffffffffffffffffffffffffff1673ffffffffffffffffffffffffffffffffffffffff16815260200190815260200160002060009054906101000a900473ffffffffffffffffffffffffffffffffffffffff169050919050565b8173ffffffffffffffffffffffffffffffffffffffff168373ffffffffffffffffffffffffffffffffffffffff16141580156200106d5750600081115b156200124e57600073ffffffffffffffffffffffffffffffffffffffff168373ffffffffffffffffffffffffffffffffffffffff1614620011605760008062001107600860008773ffffffffffffffffffffffffffffffffffffffff1673ffffffffffffffffffffffffffffffffffffffff1681526020019081526020016000206200125360201b620019b81785620007ea60201b60201c565b915091508473ffffffffffffffffffffffffffffffffffffffff167fdec2bacdd2f05b59de34da9b523dff8be42e5e38e818c82fdb0bae774387a72483836040516200115592919062001ed1565b60405180910390a250505b600073ffffffffffffffffffffffffffffffffffffffff168273ffffffffffffffffffffffffffffffffffffffff16146200124d57600080620011f4600860008673ffffffffffffffffffffffffffffffffffffffff1673ffffffffffffffffffffffffffffffffffffffff168152602001908152602001600020620007d260201b6200164b1785620007ea60201b60201c565b915091508373ffffffffffffffffffffffffffffffffffffffff167fdec2bacdd2f05b59de34da9b523dff8be42e5e38e818c82fdb0bae774387a72483836040516200124292919062001ed1565b60405180910390a250505b5b505050565b60008183620012639190620017f8565b905092915050565b7f4e487b7100000000000000000000000000000000000000000000000000000000600052601160045260246000fd5b60008160011c9050919050565b6000808291508390505b6001851115620012f957808604811115620012d157620012d06200126b565b5b6001851615620012e15780820291505b8081029050620012f1856200129a565b9450620012b1565b94509492505050565b600082620013145760019050620013e7565b81620013245760009050620013e7565b81600181146200133d576002811462001348576200137e565b6001915050620013e7565b60ff8411156200135d576200135c6200126b565b5b8360020a9150848211156200137757620013766200126b565b5b50620013e7565b5060208310610133831016604e8410600b8410161715620013b85782820a905083811115620013b257620013b16200126b565b5b620013e7565b620013c78484846001620012a7565b92509050818404811115620013e157620013e06200126b565b5b81810290505b9392505050565b6000819050919050565b600060ff82169050919050565b60006200141282620013ee565b91506200141f83620013f8565b92506200144e7fffffffffffffffffffffffffffffffffffffffffffffffffffffffffffffffff848462001302565b905092915050565b60006200146382620013ee565b91506200147083620013ee565b92508282026200148081620013ee565b915082820484148315176200149a57620014996200126b565b5b5092915050565b600081519050919050565b7f4e487b7100000000000000000000000000000000000000000000000000000000600052604160045260246000fd5b7f4e487b7100000000000000000000000000000000000000000000000000000000600052602260045260246000fd5b600060028204905060018216806200152357607f821691505b602082108103620015395762001538620014db565b5b50919050565b60008190508160005260206000209050919050565b60006020601f8301049050919050565b600082821b905092915050565b600060088302620015a37fffffffffffffffffffffffffffffffffffffffffffffffffffffffffffffffff8262001564565b620015af868362001564565b95508019841693508086168417925050509392505050565b6000819050919050565b6000620015f2620015ec620015e684620013ee565b620015c7565b620013ee565b9050919050565b6000819050919050565b6200160e83620015d1565b620016266200161d82620015f9565b84845462001571565b825550505050565b600090565b6200163d6200162e565b6200164a81848462001603565b505050565b5b8181101562001672576200166660008262001633565b60018101905062001650565b5050565b601f821115620016c1576200168b816200153f565b620016968462001554565b81016020851015620016a6578190505b620016be620016b58562001554565b8301826200164f565b50505b505050565b600082821c905092915050565b6000620016e660001984600802620016c6565b1980831691505092915050565b6000620017018383620016d3565b9150826002028217905092915050565b6200171c82620014a1565b67ffffffffffffffff811115620017385762001737620014ac565b5b6200174482546200150a565b6200175182828562001676565b600060209050601f83116001811462001789576000841562001774578287015190505b620017808582620016f3565b865550620017f0565b601f19841662001799866200153f565b60005b82811015620017c3578489015182556001820191506020850194506020810190506200179c565b86831015620017e35784890151620017df601f891682620016d3565b8355505b6001600288020188555050505b505050505050565b60006200180582620013ee565b91506200181283620013ee565b92508282039050818111156200182d576200182c6200126b565b5b92915050565b6000819050919050565b620018488162001833565b82525050565b6200185981620013ee565b82525050565b600073ffffffffffffffffffffffffffffffffffffffff82169050919050565b60006200188c826200185f565b9050919050565b6200189e816200187f565b82525050565b600060a082019050620018bb60008301886200183d565b620018ca60208301876200183d565b620018d960408301866200183d565b620018e860608301856200184e565b620018f7608083018462001893565b9695505050505050565b60006200190e82620013ee565b91506200191b83620013ee565b92508282019050808211156200193657620019356200126b565b5b92915050565b600082825260208201905092915050565b7f546f74616c20737570706c792063616e6e6f7420657863656564206d6178207360008201527f7570706c79000000000000000000000000000000000000000000000000000000602082015250565b6000620019ab6025836200193c565b9150620019b8826200194d565b604082019050919050565b60006020820190508181036000830152620019de816200199c565b9050919050565b7f4552433230566f7465733a20746f74616c20737570706c79207269736b73206f60008201527f766572666c6f77696e6720766f74657300000000000000000000000000000000602082015250565b600062001a436030836200193c565b915062001a5082620019e5565b604082019050919050565b6000602082019050818103600083015262001a768162001a34565b9050919050565b7f45524332303a206d696e7420746f20746865207a65726f206164647265737300600082015250565b600062001ab5601f836200193c565b915062001ac28262001a7d565b602082019050919050565b6000602082019050818103600083015262001ae88162001aa6565b9050919050565b600060208201905062001b0660008301846200184e565b92915050565b7f53616665436173743a2076616c756520646f65736e27742066697420696e203260008201527f3234206269747300000000000000000000000000000000000000000000000000602082015250565b600062001b6a6027836200193c565b915062001b778262001b0c565b604082019050919050565b6000602082019050818103600083015262001b9d8162001b5b565b9050919050565b7f53616665436173743a2076616c756520646f65736e27742066697420696e203360008201527f3220626974730000000000000000000000000000000000000000000000000000602082015250565b600062001c026026836200193c565b915062001c0f8262001ba4565b604082019050919050565b6000602082019050818103600083015262001c358162001bf3565b9050919050565b600081905092915050565b7f416363657373436f6e74726f6c3a206163636f756e7420000000000000000000600082015250565b600062001c7f60178362001c3c565b915062001c8c8262001c47565b601782019050919050565b60005b8381101562001cb757808201518184015260208101905062001c9a565b60008484015250505050565b600062001cd082620014a1565b62001cdc818562001c3c565b935062001cee81856020860162001c97565b80840191505092915050565b7f206973206d697373696e6720726f6c6520000000000000000000000000000000600082015250565b600062001d3260118362001c3c565b915062001d3f8262001cfa565b601182019050919050565b600062001d578262001c70565b915062001d65828562001cc3565b915062001d728262001d23565b915062001d80828462001cc3565b91508190509392505050565b6000601f19601f8301169050919050565b600062001daa82620014a1565b62001db681856200193c565b935062001dc881856020860162001c97565b62001dd38162001d8c565b840191505092915050565b6000602082019050818103600083015262001dfa818462001d9d565b905092915050565b7f4e487b7100000000000000000000000000000000000000000000000000000000600052603260045260246000fd5b600062001e3e82620013ee565b91506000820362001e545762001e536200126b565b5b600182039050919050565b7f537472696e67733a20686578206c656e67746820696e73756666696369656e74600082015250565b600062001e976020836200193c565b915062001ea48262001e5f565b602082019050919050565b6000602082019050818103600083015262001eca8162001e88565b9050919050565b600060408201905062001ee860008301856200184e565b62001ef760208301846200184e565b9392505050565b60805160a05160c05160e05161010051610120516101405161016051614ae862001f726000396000818161089501528181610c880152610fbf0152600061096a01526000611ddb01526000611e1d01526000611dfc01526000611d3101526000611d8701526000611db00152614ae86000f3fe608060405234801561001057600080fd5b50600436106102065760003560e01c806370a082311161011a578063a217fddf116100ad578063d11a57ec1161007c578063d11a57ec14610673578063d505accf14610691578063d547741f146106ad578063dd62ed3e146106c9578063f1127ed8146106f957610206565b8063a217fddf146105d9578063a457c2d7146105f7578063a9059cbb14610627578063c3cda5201461065757610206565b80638e539e8c116100e95780638e539e8c1461052b57806391d148541461055b57806395d89b411461058b5780639ab24eb0146105a957610206565b806370a082311461049157806379cc6790146104c15780637ecebe00146104dd5780637fbd1b5a1461050d57610206565b806332cb6b0c1161019d5780633a46b1a81161016c5780633a46b1a8146103c957806342966c68146103f9578063587cde1e146104155780635c19a95c146104455780636fcfff451461046157610206565b806332cb6b0c146103415780633644e5151461035f57806336568abe1461037d578063395093511461039957610206565b806323b872dd116101d957806323b872dd146102a7578063248a9ca3146102d75780632f2ff15d14610307578063313ce5671461032357610206565b806301ffc9a71461020b57806306fdde031461023b578063095ea7b31461025957806318160ddd14610289575b600080fd5b6102256004803603810190610220919061327d565b610729565b60405161023291906132c5565b60405180910390f35b6102436107a3565b6040516102509190613370565b60405180910390f35b610273600480360381019061026e9190613426565b610835565b60405161028091906132c5565b60405180910390f35b610291610858565b60405161029e9190613475565b60405180910390f35b6102c160048036038101906102bc9190613490565b610862565b6040516102ce91906132c5565b60405180910390f35b6102f160048036038101906102ec9190613519565b61091e565b6040516102fe9190613555565b60405180910390f35b610321600480360381019061031c9190613570565b61093e565b005b61032b61095f565b60405161033891906135cc565b60405180910390f35b610349610968565b6040516103569190613475565b60405180910390f35b61036761098c565b6040516103749190613555565b60405180910390f35b61039760048036038101906103929190613570565b61099b565b005b6103b360048036038101906103ae9190613426565b610a1e565b6040516103c091906132c5565b60405180910390f35b6103e360048036038101906103de9190613426565b610a55565b6040516103f09190613475565b60405180910390f35b610413600480360381019061040e91906135e7565b610ae9565b005b61042f600480360381019061042a9190613614565b610afd565b60405161043c9190613650565b60405180910390f35b61045f600480360381019061045a9190613614565b610b66565b005b61047b60048036038101906104769190613614565b610b7a565b604051610488919061368a565b60405180910390f35b6104ab60048036038101906104a69190613614565b610bce565b6040516104b89190613475565b60405180910390f35b6104db60048036038101906104d69190613426565b610c16565b005b6104f760048036038101906104f29190613614565b610c36565b6040516105049190613475565b60405180910390f35b610515610c86565b6040516105229190613475565b60405180910390f35b610545600480360381019061054091906135e7565b610caa565b6040516105529190613475565b60405180910390f35b61057560048036038101906105709190613570565b610d00565b60405161058291906132c5565b60405180910390f35b610593610d6b565b6040516105a09190613370565b60405180910390f35b6105c360048036038101906105be9190613614565b610dfd565b6040516105d09190613475565b60405180910390f35b6105e1610f0e565b6040516105ee9190613555565b60405180910390f35b610611600480360381019061060c9190613426565b610f15565b60405161061e91906132c5565b60405180910390f35b610641600480360381019061063c9190613426565b610f8c565b60405161064e91906132c5565b60405180910390f35b610671600480360381019061066c91906136d1565b611046565b005b61067b61114a565b6040516106889190613555565b60405180910390f35b6106ab60048036038101906106a6919061375e565b61116e565b005b6106c760048036038101906106c29190613570565b6112b0565b005b6106e360048036038101906106de9190613800565b6112d1565b6040516106f09190613475565b60405180910390f35b610713600480360381019061070e919061386c565b611358565b6040516107209190613921565b60405180910390f35b60007f7965db0b000000000000000000000000000000000000000000000000000000007bffffffffffffffffffffffffffffffffffffffffffffffffffffffff1916827bffffffffffffffffffffffffffffffffffffffffffffffffffffffff1916148061079c575061079b826119ce565b5b9050919050565b6060600380546107b29061396b565b80601f01602080910402602001604051908101604052809291908181526020018280546107de9061396b565b801561082b5780601f106108005761010080835404028352916020019161082b565b820191906000526020600020905b81548152906001019060200180831161080e57829003601f168201915b5050505050905090565b600080610840611a38565b905061084d818585611a40565b600191505092915050565b6000600254905090565b600061088e7fe1dcbdb91df27212a29bc27177c840cf2f819ecf2187432e1fac86c2dd5dfca985610d00565b1561090a577f0000000000000000000000000000000000000000000000000000000000000000826108be30610bce565b6108c891906139cb565b1015610909576040517f08c379a000000000000000000000000000000000000000000000000000000000815260040161090090613a4b565b60405180910390fd5b5b610915848484611c09565b90509392505050565b6000600a6000838152602001908152602001600020600101549050919050565b6109478261091e565b61095081611c38565b61095a8383611c4c565b505050565b60006012905090565b7f000000000000000000000000000000000000000000000000000000000000000081565b6000610996611d2d565b905090565b6109a3611a38565b73ffffffffffffffffffffffffffffffffffffffff168173ffffffffffffffffffffffffffffffffffffffff1614610a10576040517f08c379a0000000000000000000000000000000000000000000000000000000008152600401610a0790613add565b60405180910390fd5b610a1a8282611e47565b5050565b600080610a29611a38565b9050610a4a818585610a3b85896112d1565b610a459190613afd565b611a40565b600191505092915050565b6000438210610a99576040517f08c379a0000000000000000000000000000000000000000000000000000000008152600401610a9090613b7d565b60405180910390fd5b610ae1600860008573ffffffffffffffffffffffffffffffffffffffff1673ffffffffffffffffffffffffffffffffffffffff16815260200190815260200160002083611f29565b905092915050565b610afa610af4611a38565b8261207a565b50565b6000600760008373ffffffffffffffffffffffffffffffffffffffff1673ffffffffffffffffffffffffffffffffffffffff16815260200190815260200160002060009054906101000a900473ffffffffffffffffffffffffffffffffffffffff169050919050565b610b77610b71611a38565b82612088565b50565b6000610bc7600860008473ffffffffffffffffffffffffffffffffffffffff1673ffffffffffffffffffffffffffffffffffffffff168152602001908152602001600020805490506116cc565b9050919050565b60008060008373ffffffffffffffffffffffffffffffffffffffff1673ffffffffffffffffffffffffffffffffffffffff168152602001908152602001600020549050919050565b610c2882610c22611a38565b836121a2565b610c32828261207a565b5050565b6000610c7f600560008473ffffffffffffffffffffffffffffffffffffffff1673ffffffffffffffffffffffffffffffffffffffff16815260200190815260200160002061222e565b9050919050565b7f000000000000000000000000000000000000000000000000000000000000000081565b6000438210610cee576040517f08c379a0000000000000000000000000000000000000000000000000000000008152600401610ce590613b7d565b60405180910390fd5b610cf9600983611f29565b9050919050565b6000600a600084815260200190815260200160002060000160008373ffffffffffffffffffffffffffffffffffffffff1673ffffffffffffffffffffffffffffffffffffffff16815260200190815260200160002060009054906101000a900460ff16905092915050565b606060048054610d7a9061396b565b80601f0160208091040260200160405190810160405280929190818152602001828054610da69061396b565b8015610df35780601f10610dc857610100808354040283529160200191610df3565b820191906000526020600020905b815481529060010190602001808311610dd657829003601f168201915b5050505050905090565b600080600860008473ffffffffffffffffffffffffffffffffffffffff1673ffffffffffffffffffffffffffffffffffffffff16815260200190815260200160002080549050905060008114610ee557600860008473ffffffffffffffffffffffffffffffffffffffff1673ffffffffffffffffffffffffffffffffffffffff168152602001908152602001600020600182610e9991906139cb565b81548110610eaa57610ea9613b9d565b5b9060005260206000200160000160049054906101000a90047bffffffffffffffffffffffffffffffffffffffffffffffffffffffff16610ee8565b60005b7bffffffffffffffffffffffffffffffffffffffffffffffffffffffff16915050919050565b6000801b81565b600080610f20611a38565b90506000610f2e82866112d1565b905083811015610f73576040517f08c379a0000000000000000000000000000000000000000000000000000000008152600401610f6a90613c3e565b60405180910390fd5b610f808286868403611a40565b60019250505092915050565b6000610fb87fe1dcbdb91df27212a29bc27177c840cf2f819ecf2187432e1fac86c2dd5dfca933610d00565b15611034577f000000000000000000000000000000000000000000000000000000000000000082610fe830610bce565b610ff291906139cb565b1015611033576040517f08c379a000000000000000000000000000000000000000000000000000000000815260040161102a90613a4b565b60405180910390fd5b5b61103e838361223c565b905092915050565b83421115611089576040517f08c379a000000000000000000000000000000000000000000000000000000000815260040161108090613caa565b60405180910390fd5b60006110eb6110e37fe48329057bfd03d55e49b547132e39cffd9c1820ad7b9d4c5307691425d15adf8989896040516020016110c89493929190613cca565b6040516020818303038152906040528051906020012061225f565b858585612279565b90506110f6816122a4565b8614611137576040517f08c379a000000000000000000000000000000000000000000000000000000000815260040161112e90613d5b565b60405180910390fd5b6111418188612088565b50505050505050565b7fe1dcbdb91df27212a29bc27177c840cf2f819ecf2187432e1fac86c2dd5dfca981565b834211156111b1576040517f08c379a00000000000000000000000000000000000000000000000000000000081526004016111a890613dc7565b60405180910390fd5b60007f6e71edae12b1b97f4d1f60370fef10105fa2faae0126114a169c64845d6126c98888886111e08c6122a4565b896040516020016111f696959493929190613de7565b60405160208183030381529060405280519060200120905060006112198261225f565b9050600061122982878787612279565b90508973ffffffffffffffffffffffffffffffffffffffff168173ffffffffffffffffffffffffffffffffffffffff1614611299576040517f08c379a000000000000000000000000000000000000000000000000000000000815260040161129090613e94565b60405180910390fd5b6112a48a8a8a611a40565b50505050505050505050565b6112b98261091e565b6112c281611c38565b6112cc8383611e47565b505050565b6000600160008473ffffffffffffffffffffffffffffffffffffffff1673ffffffffffffffffffffffffffffffffffffffff16815260200190815260200160002060008373ffffffffffffffffffffffffffffffffffffffff1673ffffffffffffffffffffffffffffffffffffffff16815260200190815260200160002054905092915050565b6113606131e2565b600860008473ffffffffffffffffffffffffffffffffffffffff1673ffffffffffffffffffffffffffffffffffffffff1681526020019081526020016000208263ffffffff16815481106113b7576113b6613b9d565b5b906000526020600020016040518060400160405290816000820160009054906101000a900463ffffffff1663ffffffff1663ffffffff1681526020016000820160049054906101000a90047bffffffffffffffffffffffffffffffffffffffffffffffffffffffff167bffffffffffffffffffffffffffffffffffffffffffffffffffffffff167bffffffffffffffffffffffffffffffffffffffffffffffffffffffff1681525050905092915050565b61147282826114f5565b61147a612302565b7bffffffffffffffffffffffffffffffffffffffffffffffffffffffff166114a0610858565b11156114e1576040517f08c379a00000000000000000000000000000000000000000000000000000000081526004016114d890613f26565b60405180910390fd5b6114ef600961164b83612326565b50505050565b600073ffffffffffffffffffffffffffffffffffffffff168273ffffffffffffffffffffffffffffffffffffffff1603611564576040517f08c379a000000000000000000000000000000000000000000000000000000000815260040161155b90613f92565b60405180910390fd5b611570600083836125f5565b80600260008282546115829190613afd565b92505081905550806000808473ffffffffffffffffffffffffffffffffffffffff1673ffffffffffffffffffffffffffffffffffffffff168152602001908152602001600020600082825401925050819055508173ffffffffffffffffffffffffffffffffffffffff16600073ffffffffffffffffffffffffffffffffffffffff167fddf252ad1be2c89b69c2b068fc378daa952ba7f163c4a11628f55a4df523b3ef836040516116339190613475565b60405180910390a3611647600083836125fa565b5050565b600081836116599190613afd565b905092915050565b60007bffffffffffffffffffffffffffffffffffffffffffffffffffffffff80168211156116c4576040517f08c379a00000000000000000000000000000000000000000000000000000000081526004016116bb90614024565b60405180910390fd5b819050919050565b600063ffffffff8016821115611717576040517f08c379a000000000000000000000000000000000000000000000000000000000815260040161170e906140b6565b60405180910390fd5b819050919050565b61172a8383836119b3565b61174561173684610afd565b61173f84610afd565b8361260a565b505050565b60606117708273ffffffffffffffffffffffffffffffffffffffff16601460ff16611777565b9050919050565b60606000600283600261178a91906140d6565b6117949190613afd565b67ffffffffffffffff8111156117ad576117ac614118565b5b6040519080825280601f01601f1916602001820160405280156117df5781602001600182028036833780820191505090505b5090507f30000000000000000000000000000000000000000000000000000000000000008160008151811061181757611816613b9d565b5b60200101907effffffffffffffffffffffffffffffffffffffffffffffffffffffffffffff1916908160001a9053507f78000000000000000000000000000000000000000000000000000000000000008160018151811061187b5761187a613b9d565b5b60200101907effffffffffffffffffffffffffffffffffffffffffffffffffffffffffffff1916908160001a905350600060018460026118bb91906140d6565b6118c59190613afd565b90505b6001811115611965577f3031323334353637383961626364656600000000000000000000000000000000600f86166010811061190757611906613b9d565b5b1a60f81b82828151811061191e5761191d613b9d565b5b60200101907effffffffffffffffffffffffffffffffffffffffffffffffffffffffffffff1916908160001a905350600485901c94508061195e90614147565b90506118c8565b50600084146119a9576040517f08c379a00000000000000000000000000000000000000000000000000000000081526004016119a0906141bc565b60405180910390fd5b8091505092915050565b505050565b600081836119c691906139cb565b905092915050565b60007f01ffc9a7000000000000000000000000000000000000000000000000000000007bffffffffffffffffffffffffffffffffffffffffffffffffffffffff1916827bffffffffffffffffffffffffffffffffffffffffffffffffffffffff1916149050919050565b600033905090565b600073ffffffffffffffffffffffffffffffffffffffff168373ffffffffffffffffffffffffffffffffffffffff1603611aaf576040517f08c379a0000000000000000000000000000000000000000000000000000000008152600401611aa69061424e565b60405180910390fd5b600073ffffffffffffffffffffffffffffffffffffffff168273ffffffffffffffffffffffffffffffffffffffff1603611b1e576040517f08c379a0000000000000000000000000000000000000000000000000000000008152600401611b15906142e0565b60405180910390fd5b80600160008573ffffffffffffffffffffffffffffffffffffffff1673ffffffffffffffffffffffffffffffffffffffff16815260200190815260200160002060008473ffffffffffffffffffffffffffffffffffffffff1673ffffffffffffffffffffffffffffffffffffffff168152602001908152602001600020819055508173ffffffffffffffffffffffffffffffffffffffff168373ffffffffffffffffffffffffffffffffffffffff167f8c5be1e5ebec7d5bd14f71427d1e84f3dd0314c0f7b2291e5b200ac8c7c3b92583604051611bfc9190613475565b60405180910390a3505050565b600080611c14611a38565b9050611c218582856121a2565b611c2c858585612803565b60019150509392505050565b611c4981611c44611a38565b612a79565b50565b611c568282610d00565b611d29576001600a600084815260200190815260200160002060000160008373ffffffffffffffffffffffffffffffffffffffff1673ffffffffffffffffffffffffffffffffffffffff16815260200190815260200160002060006101000a81548160ff021916908315150217905550611cce611a38565b73ffffffffffffffffffffffffffffffffffffffff168173ffffffffffffffffffffffffffffffffffffffff16837f2f8788117e7eff1d82e926ec794901d17c78024a50270940304540a733656f0d60405160405180910390a45b5050565b60007f000000000000000000000000000000000000000000000000000000000000000073ffffffffffffffffffffffffffffffffffffffff163073ffffffffffffffffffffffffffffffffffffffff16148015611da957507f000000000000000000000000000000000000000000000000000000000000000046145b15611dd6577f00000000000000000000000000000000000000000000000000000000000000009050611e44565b611e417f00000000000000000000000000000000000000000000000000000000000000007f00000000000000000000000000000000000000000000000000000000000000007f0000000000000000000000000000000000000000000000000000000000000000612afe565b90505b90565b611e518282610d00565b15611f25576000600a600084815260200190815260200160002060000160008373ffffffffffffffffffffffffffffffffffffffff1673ffffffffffffffffffffffffffffffffffffffff16815260200190815260200160002060006101000a81548160ff021916908315150217905550611eca611a38565b73ffffffffffffffffffffffffffffffffffffffff168173ffffffffffffffffffffffffffffffffffffffff16837ff6391f5c32d9c69d2a47ea670b442974b53935d1edc7fd64eb21e047a839171b60405160405180910390a45b5050565b600080838054905090506000808290506005831115611f9f576000611f4d84612b38565b84611f5891906139cb565b905085611f658883612c31565b60000160009054906101000a900463ffffffff1663ffffffff161115611f8d57809150611f9d565b600181611f9a9190613afd565b92505b505b5b80821015611fff576000611fb48383612c46565b905085611fc18883612c31565b60000160009054906101000a900463ffffffff1663ffffffff161115611fe957809150611ff9565b600181611ff69190613afd565b92505b50611fa0565b6000811461204e5761201d8660018361201891906139cb565b612c31565b60000160049054906101000a90047bffffffffffffffffffffffffffffffffffffffffffffffffffffffff16612051565b60005b7bffffffffffffffffffffffffffffffffffffffffffffffffffffffff16935050505092915050565b6120848282612c6c565b5050565b600061209383610afd565b905060006120a084610bce565b905082600760008673ffffffffffffffffffffffffffffffffffffffff1673ffffffffffffffffffffffffffffffffffffffff16815260200190815260200160002060006101000a81548173ffffffffffffffffffffffffffffffffffffffff021916908373ffffffffffffffffffffffffffffffffffffffff1602179055508273ffffffffffffffffffffffffffffffffffffffff168273ffffffffffffffffffffffffffffffffffffffff168573ffffffffffffffffffffffffffffffffffffffff167f3134e8a2e6d97e929a7e54011ea5485d7d196dd5f0ba4d4ef95803e8e3fc257f60405160405180910390a461219c82848361260a565b50505050565b60006121ae84846112d1565b90507fffffffffffffffffffffffffffffffffffffffffffffffffffffffffffffffff8114612228578181101561221a576040517f08c379a00000000000000000000000000000000000000000000000000000000081526004016122119061434c565b60405180910390fd5b6122278484848403611a40565b5b50505050565b600081600001549050919050565b600080612247611a38565b9050612254818585612803565b600191505092915050565b600061227261226c611d2d565b83612c8a565b9050919050565b600080600061228a87878787612cbd565b9150915061229781612d9f565b8192505050949350505050565b600080600560008473ffffffffffffffffffffffffffffffffffffffff1673ffffffffffffffffffffffffffffffffffffffff16815260200190815260200160002090506122f18161222e565b91506122fc81612f05565b50919050565b60007bffffffffffffffffffffffffffffffffffffffffffffffffffffffff905090565b60008060008580549050905060008082146123f5576123518760018461234c91906139cb565b612c31565b6040518060400160405290816000820160009054906101000a900463ffffffff1663ffffffff1663ffffffff1681526020016000820160049054906101000a90047bffffffffffffffffffffffffffffffffffffffffffffffffffffffff167bffffffffffffffffffffffffffffffffffffffffffffffffffffffff167bffffffffffffffffffffffffffffffffffffffffffffffffffffffff1681525050612431565b6040518060400160405280600063ffffffff16815260200160007bffffffffffffffffffffffffffffffffffffffffffffffffffffffff168152505b905080602001517bffffffffffffffffffffffffffffffffffffffffffffffffffffffff16935061246684868863ffffffff16565b9250600082118015612481575043816000015163ffffffff16145b156124fb5761248f83611661565b6124a5886001856124a091906139cb565b612c31565b60000160046101000a8154817bffffffffffffffffffffffffffffffffffffffffffffffffffffffff02191690837bffffffffffffffffffffffffffffffffffffffffffffffffffffffff1602179055506125eb565b866040518060400160405280612510436116cc565b63ffffffff16815260200161252486611661565b7bffffffffffffffffffffffffffffffffffffffffffffffffffffffff168152509080600181540180825580915050600190039060005260206000200160009091909190915060008201518160000160006101000a81548163ffffffff021916908363ffffffff16021790555060208201518160000160046101000a8154817bffffffffffffffffffffffffffffffffffffffffffffffffffffffff02191690837bffffffffffffffffffffffffffffffffffffffffffffffffffffffff16021790555050505b5050935093915050565b505050565b61260583838361171f565b505050565b8173ffffffffffffffffffffffffffffffffffffffff168373ffffffffffffffffffffffffffffffffffffffff16141580156126465750600081115b156127fe57600073ffffffffffffffffffffffffffffffffffffffff168373ffffffffffffffffffffffffffffffffffffffff1614612724576000806126cd600860008773ffffffffffffffffffffffffffffffffffffffff1673ffffffffffffffffffffffffffffffffffffffff1681526020019081526020016000206119b885612326565b915091508473ffffffffffffffffffffffffffffffffffffffff167fdec2bacdd2f05b59de34da9b523dff8be42e5e38e818c82fdb0bae774387a724838360405161271992919061436c565b60405180910390a250505b600073ffffffffffffffffffffffffffffffffffffffff168273ffffffffffffffffffffffffffffffffffffffff16146127fd576000806127a6600860008673ffffffffffffffffffffffffffffffffffffffff1673ffffffffffffffffffffffffffffffffffffffff16815260200190815260200160002061164b85612326565b915091508373ffffffffffffffffffffffffffffffffffffffff167fdec2bacdd2f05b59de34da9b523dff8be42e5e38e818c82fdb0bae774387a72483836040516127f292919061436c565b60405180910390a250505b5b505050565b600073ffffffffffffffffffffffffffffffffffffffff168373ffffffffffffffffffffffffffffffffffffffff1603612872576040517f08c379a000000000000000000000000000000000000000000000000000000000815260040161286990614407565b60405180910390fd5b600073ffffffffffffffffffffffffffffffffffffffff168273ffffffffffffffffffffffffffffffffffffffff16036128e1576040517f08c379a00000000000000000000000000000000000000000000000000000000081526004016128d890614499565b60405180910390fd5b6128ec8383836125f5565b60008060008573ffffffffffffffffffffffffffffffffffffffff1673ffffffffffffffffffffffffffffffffffffffff16815260200190815260200160002054905081811015612972576040517f08c379a00000000000000000000000000000000000000000000000000000000081526004016129699061452b565b60405180910390fd5b8181036000808673ffffffffffffffffffffffffffffffffffffffff1673ffffffffffffffffffffffffffffffffffffffff16815260200190815260200160002081905550816000808573ffffffffffffffffffffffffffffffffffffffff1673ffffffffffffffffffffffffffffffffffffffff168152602001908152602001600020600082825401925050819055508273ffffffffffffffffffffffffffffffffffffffff168473ffffffffffffffffffffffffffffffffffffffff167fddf252ad1be2c89b69c2b068fc378daa952ba7f163c4a11628f55a4df523b3ef84604051612a609190613475565b60405180910390a3612a738484846125fa565b50505050565b612a838282610d00565b612afa57612a908161174a565b612a9e8360001c6020611777565b604051602001612aaf92919061461f565b6040516020818303038152906040526040517f08c379a0000000000000000000000000000000000000000000000000000000008152600401612af19190613370565b60405180910390fd5b5050565b60008383834630604051602001612b19959493929190614659565b6040516020818303038152906040528051906020012090509392505050565b6000808203612b4a5760009050612c2c565b60006001612b5784612f1b565b901c6001901b90506001818481612b7157612b706146ac565b5b048201901c90506001818481612b8a57612b896146ac565b5b048201901c90506001818481612ba357612ba26146ac565b5b048201901c90506001818481612bbc57612bbb6146ac565b5b048201901c90506001818481612bd557612bd46146ac565b5b048201901c90506001818481612bee57612bed6146ac565b5b048201901c90506001818481612c0757612c066146ac565b5b048201901c9050612c2881828581612c2257612c216146ac565b5b04612ffc565b9150505b919050565b60008260005281602060002001905092915050565b60006002828418612c5791906146db565b828416612c649190613afd565b905092915050565b612c768282613015565b612c8460096119b883612326565b50505050565b60008282604051602001612c9f929190614779565b60405160208183030381529060405280519060200120905092915050565b6000807f7fffffffffffffffffffffffffffffff5d576e7357a4501ddfe92f46681b20a08360001c1115612cf8576000600391509150612d96565b600060018787878760405160008152602001604052604051612d1d94939291906147b0565b6020604051602081039080840390855afa158015612d3f573d6000803e3d6000fd5b505050602060405103519050600073ffffffffffffffffffffffffffffffffffffffff168173ffffffffffffffffffffffffffffffffffffffff1603612d8d57600060019250925050612d96565b80600092509250505b94509492505050565b60006004811115612db357612db26147f5565b5b816004811115612dc657612dc56147f5565b5b0315612f025760016004811115612de057612ddf6147f5565b5b816004811115612df357612df26147f5565b5b03612e33576040517f08c379a0000000000000000000000000000000000000000000000000000000008152600401612e2a90614870565b60405180910390fd5b60026004811115612e4757612e466147f5565b5b816004811115612e5a57612e596147f5565b5b03612e9a576040517f08c379a0000000000000000000000000000000000000000000000000000000008152600401612e91906148dc565b60405180910390fd5b60036004811115612eae57612ead6147f5565b5b816004811115612ec157612ec06147f5565b5b03612f01576040517f08c379a0000000000000000000000000000000000000000000000000000000008152600401612ef89061496e565b60405180910390fd5b5b50565b6001816000016000828254019250508190555050565b600080600090506000608084901c1115612f3d57608083901c92506080810190505b6000604084901c1115612f5857604083901c92506040810190505b6000602084901c1115612f7357602083901c92506020810190505b6000601084901c1115612f8e57601083901c92506010810190505b6000600884901c1115612fa957600883901c92506008810190505b6000600484901c1115612fc457600483901c92506004810190505b6000600284901c1115612fdf57600283901c92506002810190505b6000600184901c1115612ff3576001810190505b80915050919050565b600081831061300b578161300d565b825b905092915050565b600073ffffffffffffffffffffffffffffffffffffffff168273ffffffffffffffffffffffffffffffffffffffff1603613084576040517f08c379a000000000000000000000000000000000000000000000000000000000815260040161307b90614a00565b60405180910390fd5b613090826000836125f5565b60008060008473ffffffffffffffffffffffffffffffffffffffff1673ffffffffffffffffffffffffffffffffffffffff16815260200190815260200160002054905081811015613116576040517f08c379a000000000000000000000000000000000000000000000000000000000815260040161310d90614a92565b60405180910390fd5b8181036000808573ffffffffffffffffffffffffffffffffffffffff1673ffffffffffffffffffffffffffffffffffffffff1681526020019081526020016000208190555081600260008282540392505081905550600073ffffffffffffffffffffffffffffffffffffffff168373ffffffffffffffffffffffffffffffffffffffff167fddf252ad1be2c89b69c2b068fc378daa952ba7f163c4a11628f55a4df523b3ef846040516131c99190613475565b60405180910390a36131dd836000846125fa565b505050565b6040518060400160405280600063ffffffff16815260200160007bffffffffffffffffffffffffffffffffffffffffffffffffffffffff1681525090565b600080fd5b60007fffffffff0000000000000000000000000000000000000000000000000000000082169050919050565b61325a81613225565b811461326557600080fd5b50565b60008135905061327781613251565b92915050565b60006020828403121561329357613292613220565b5b60006132a184828501613268565b91505092915050565b60008115159050919050565b6132bf816132aa565b82525050565b60006020820190506132da60008301846132b6565b92915050565b600081519050919050565b600082825260208201905092915050565b60005b8381101561331a5780820151818401526020810190506132ff565b60008484015250505050565b6000601f19601f8301169050919050565b6000613342826132e0565b61334c81856132eb565b935061335c8185602086016132fc565b61336581613326565b840191505092915050565b6000602082019050818103600083015261338a8184613337565b905092915050565b600073ffffffffffffffffffffffffffffffffffffffff82169050919050565b60006133bd82613392565b9050919050565b6133cd816133b2565b81146133d857600080fd5b50565b6000813590506133ea816133c4565b92915050565b6000819050919050565b613403816133f0565b811461340e57600080fd5b50565b600081359050613420816133fa565b92915050565b6000806040838503121561343d5761343c613220565b5b600061344b858286016133db565b925050602061345c85828601613411565b9150509250929050565b61346f816133f0565b82525050565b600060208201905061348a6000830184613466565b92915050565b6000806000606084860312156134a9576134a8613220565b5b60006134b7868287016133db565b93505060206134c8868287016133db565b92505060406134d986828701613411565b9150509250925092565b6000819050919050565b6134f6816134e3565b811461350157600080fd5b50565b600081359050613513816134ed565b92915050565b60006020828403121561352f5761352e613220565b5b600061353d84828501613504565b91505092915050565b61354f816134e3565b82525050565b600060208201905061356a6000830184613546565b92915050565b6000806040838503121561358757613586613220565b5b600061359585828601613504565b92505060206135a6858286016133db565b9150509250929050565b600060ff82169050919050565b6135c6816135b0565b82525050565b60006020820190506135e160008301846135bd565b92915050565b6000602082840312156135fd576135fc613220565b5b600061360b84828501613411565b91505092915050565b60006020828403121561362a57613629613220565b5b6000613638848285016133db565b91505092915050565b61364a816133b2565b82525050565b60006020820190506136656000830184613641565b92915050565b600063ffffffff82169050919050565b6136848161366b565b82525050565b600060208201905061369f600083018461367b565b92915050565b6136ae816135b0565b81146136b957600080fd5b50565b6000813590506136cb816136a5565b92915050565b60008060008060008060c087890312156136ee576136ed613220565b5b60006136fc89828a016133db565b965050602061370d89828a01613411565b955050604061371e89828a01613411565b945050606061372f89828a016136bc565b935050608061374089828a01613504565b92505060a061375189828a01613504565b9150509295509295509295565b600080600080600080600060e0888a03121561377d5761377c613220565b5b600061378b8a828b016133db565b975050602061379c8a828b016133db565b96505060406137ad8a828b01613411565b95505060606137be8a828b01613411565b94505060806137cf8a828b016136bc565b93505060a06137e08a828b01613504565b92505060c06137f18a828b01613504565b91505092959891949750929550565b6000806040838503121561381757613816613220565b5b6000613825858286016133db565b9250506020613836858286016133db565b9150509250929050565b6138498161366b565b811461385457600080fd5b50565b60008135905061386681613840565b92915050565b6000806040838503121561388357613882613220565b5b6000613891858286016133db565b92505060206138a285828601613857565b9150509250929050565b6138b58161366b565b82525050565b60007bffffffffffffffffffffffffffffffffffffffffffffffffffffffff82169050919050565b6138ec816138bb565b82525050565b60408201600082015161390860008501826138ac565b50602082015161391b60208501826138e3565b50505050565b600060408201905061393660008301846138f2565b92915050565b7f4e487b7100000000000000000000000000000000000000000000000000000000600052602260045260246000fd5b6000600282049050600182168061398357607f821691505b6020821081036139965761399561393c565b5b50919050565b7f4e487b7100000000000000000000000000000000000000000000000000000000600052601160045260246000fd5b60006139d6826133f0565b91506139e1836133f0565b92508282039050818111156139f9576139f861399c565b5b92915050565b7f496e73756666696369656e742074726561737572792062616c616e6365000000600082015250565b6000613a35601d836132eb565b9150613a40826139ff565b602082019050919050565b60006020820190508181036000830152613a6481613a28565b9050919050565b7f416363657373436f6e74726f6c3a2063616e206f6e6c792072656e6f756e636560008201527f20726f6c657320666f722073656c660000000000000000000000000000000000602082015250565b6000613ac7602f836132eb565b9150613ad282613a6b565b604082019050919050565b60006020820190508181036000830152613af681613aba565b9050919050565b6000613b08826133f0565b9150613b13836133f0565b9250828201905080821115613b2b57613b2a61399c565b5b92915050565b7f4552433230566f7465733a20626c6f636b206e6f7420796574206d696e656400600082015250565b6000613b67601f836132eb565b9150613b7282613b31565b602082019050919050565b60006020820190508181036000830152613b9681613b5a565b9050919050565b7f4e487b7100000000000000000000000000000000000000000000000000000000600052603260045260246000fd5b7f45524332303a2064656372656173656420616c6c6f77616e63652062656c6f7760008201527f207a65726f000000000000000000000000000000000000000000000000000000602082015250565b6000613c286025836132eb565b9150613c3382613bcc565b604082019050919050565b60006020820190508181036000830152613c5781613c1b565b9050919050565b7f4552433230566f7465733a207369676e61747572652065787069726564000000600082015250565b6000613c94601d836132eb565b9150613c9f82613c5e565b602082019050919050565b60006020820190508181036000830152613cc381613c87565b9050919050565b6000608082019050613cdf6000830187613546565b613cec6020830186613641565b613cf96040830185613466565b613d066060830184613466565b95945050505050565b7f4552433230566f7465733a20696e76616c6964206e6f6e636500000000000000600082015250565b6000613d456019836132eb565b9150613d5082613d0f565b602082019050919050565b60006020820190508181036000830152613d7481613d38565b9050919050565b7f45524332305065726d69743a206578706972656420646561646c696e65000000600082015250565b6000613db1601d836132eb565b9150613dbc82613d7b565b602082019050919050565b60006020820190508181036000830152613de081613da4565b9050919050565b600060c082019050613dfc6000830189613546565b613e096020830188613641565b613e166040830187613641565b613e236060830186613466565b613e306080830185613466565b613e3d60a0830184613466565b979650505050505050565b7f45524332305065726d69743a20696e76616c6964207369676e61747572650000600082015250565b6000613e7e601e836132eb565b9150613e8982613e48565b602082019050919050565b60006020820190508181036000830152613ead81613e71565b9050919050565b7f4552433230566f7465733a20746f74616c20737570706c79207269736b73206f60008201527f766572666c6f77696e6720766f74657300000000000000000000000000000000602082015250565b6000613f106030836132eb565b9150613f1b82613eb4565b604082019050919050565b60006020820190508181036000830152613f3f81613f03565b9050919050565b7f45524332303a206d696e7420746f20746865207a65726f206164647265737300600082015250565b6000613f7c601f836132eb565b9150613f8782613f46565b602082019050919050565b60006020820190508181036000830152613fab81613f6f565b9050919050565b7f53616665436173743a2076616c756520646f65736e27742066697420696e203260008201527f3234206269747300000000000000000000000000000000000000000000000000602082015250565b600061400e6027836132eb565b915061401982613fb2565b604082019050919050565b6000602082019050818103600083015261403d81614001565b9050919050565b7f53616665436173743a2076616c756520646f65736e27742066697420696e203360008201527f3220626974730000000000000000000000000000000000000000000000000000602082015250565b60006140a06026836132eb565b91506140ab82614044565b604082019050919050565b600060208201905081810360008301526140cf81614093565b9050919050565b60006140e1826133f0565b91506140ec836133f0565b92508282026140fa816133f0565b915082820484148315176141115761411061399c565b5b5092915050565b7f4e487b7100000000000000000000000000000000000000000000000000000000600052604160045260246000fd5b6000614152826133f0565b9150600082036141655761416461399c565b5b600182039050919050565b7f537472696e67733a20686578206c656e67746820696e73756666696369656e74600082015250565b60006141a66020836132eb565b91506141b182614170565b602082019050919050565b600060208201905081810360008301526141d581614199565b9050919050565b7f45524332303a20617070726f76652066726f6d20746865207a65726f2061646460008201527f7265737300000000000000000000000000000000000000000000000000000000602082015250565b60006142386024836132eb565b9150614243826141dc565b604082019050919050565b600060208201905081810360008301526142678161422b565b9050919050565b7f45524332303a20617070726f766520746f20746865207a65726f20616464726560008201527f7373000000000000000000000000000000000000000000000000000000000000602082015250565b60006142ca6022836132eb565b91506142d58261426e565b604082019050919050565b600060208201905081810360008301526142f9816142bd565b9050919050565b7f45524332303a20696e73756666696369656e7420616c6c6f77616e6365000000600082015250565b6000614336601d836132eb565b915061434182614300565b602082019050919050565b6000602082019050818103600083015261436581614329565b9050919050565b60006040820190506143816000830185613466565b61438e6020830184613466565b9392505050565b7f45524332303a207472616e736665722066726f6d20746865207a65726f20616460008201527f6472657373000000000000000000000000000000000000000000000000000000602082015250565b60006143f16025836132eb565b91506143fc82614395565b604082019050919050565b60006020820190508181036000830152614420816143e4565b9050919050565b7f45524332303a207472616e7366657220746f20746865207a65726f206164647260008201527f6573730000000000000000000000000000000000000000000000000000000000602082015250565b60006144836023836132eb565b915061448e82614427565b604082019050919050565b600060208201905081810360008301526144b281614476565b9050919050565b7f45524332303a207472616e7366657220616d6f756e742065786365656473206260008201527f616c616e63650000000000000000000000000000000000000000000000000000602082015250565b60006145156026836132eb565b9150614520826144b9565b604082019050919050565b6000602082019050818103600083015261454481614508565b9050919050565b600081905092915050565b7f416363657373436f6e74726f6c3a206163636f756e7420000000000000000000600082015250565b600061458c60178361454b565b915061459782614556565b601782019050919050565b60006145ad826132e0565b6145b7818561454b565b93506145c78185602086016132fc565b80840191505092915050565b7f206973206d697373696e6720726f6c6520000000000000000000000000000000600082015250565b600061460960118361454b565b9150614614826145d3565b601182019050919050565b600061462a8261457f565b915061463682856145a2565b9150614641826145fc565b915061464d82846145a2565b91508190509392505050565b600060a08201905061466e6000830188613546565b61467b6020830187613546565b6146886040830186613546565b6146956060830185613466565b6146a26080830184613641565b9695505050505050565b7f4e487b7100000000000000000000000000000000000000000000000000000000600052601260045260246000fd5b60006146e6826133f0565b91506146f1836133f0565b925082614701576147006146ac565b5b828204905092915050565b7f1901000000000000000000000000000000000000000000000000000000000000600082015250565b600061474260028361454b565b915061474d8261470c565b600282019050919050565b6000819050919050565b61477361476e826134e3565b614758565b82525050565b600061478482614735565b91506147908285614762565b6020820191506147a08284614762565b6020820191508190509392505050565b60006080820190506147c56000830187613546565b6147d260208301866135bd565b6147df6040830185613546565b6147ec6060830184613546565b95945050505050565b7f4e487b7100000000000000000000000000000000000000000000000000000000600052602160045260246000fd5b7f45434453413a20696e76616c6964207369676e61747572650000000000000000600082015250565b600061485a6018836132eb565b915061486582614824565b602082019050919050565b600060208201905081810360008301526148898161484d565b9050919050565b7f45434453413a20696e76616c6964207369676e6174757265206c656e67746800600082015250565b60006148c6601f836132eb565b91506148d182614890565b602082019050919050565b600060208201905081810360008301526148f5816148b9565b9050919050565b7f45434453413a20696e76616c6964207369676e6174757265202773272076616c60008201527f7565000000000000000000000000000000000000000000000000000000000000602082015250565b60006149586022836132eb565b9150614963826148fc565b604082019050919050565b600060208201905081810360008301526149878161494b565b9050919050565b7f45524332303a206275726e2066726f6d20746865207a65726f2061646472657360008201527f7300000000000000000000000000000000000000000000000000000000000000602082015250565b60006149ea6021836132eb565b91506149f58261498e565b604082019050919050565b60006020820190508181036000830152614a19816149dd565b9050919050565b7f45524332303a206275726e20616d6f756e7420657863656564732062616c616e60008201527f6365000000000000000000000000000000000000000000000000000000000000602082015250565b6000614a7c6022836132eb565b9150614a8782614a20565b604082019050919050565b60006020820190508181036000830152614aab81614a6f565b905091905056fea264697066735822122070120fd6313cd12f679a79a45f59ce5191e8d7180244d49099749194e5f7dec264736f6c63430008120033",
			"opcodes": "PUSH2 0x180 PUSH1 0x40 MSTORE PUSH3 0x15 PUSH3 0x2B9 PUSH1 0x20 SHL PUSH1 0x20 SHR JUMP JUMPDEST PUSH1 0xA PUSH3 0x23 SWAP2 SWAP1 PUSH3 0x1405 JUMP JUMPDEST PUSH5 0x4A817C800 PUSH3 0x35 SWAP2 SWAP1 PUSH3 0x1456 JUMP JUMPDEST PUSH2 0x140 SWAP1 DUP2 MSTORE POP PUSH3 0x4C PUSH3 0x2B9 PUSH1 0x20 SHL PUSH1 0x20 SHR JUMP JUMPDEST PUSH1 0xA PUSH3 0x5A SWAP2 SWAP1 PUSH3 0x1405 JUMP JUMPDEST PUSH5 0x2540BE400 PUSH3 0x6C SWAP2 SWAP1 PUSH3 0x1456 JUMP JUMPDEST PUSH2 0x160 SWAP1 DUP2 MSTORE POP CALLVALUE DUP1 ISZERO PUSH3 0x80 JUMPI PUSH1 0x0 DUP1 REVERT JUMPDEST POP PUSH1 0x40 MLOAD DUP1 PUSH1 0x40 ADD PUSH1 0x40 MSTORE DUP1 PUSH1 0x15 DUP2 MSTORE PUSH1 0x20 ADD PUSH32 0x596F67615265736561726368496E737469747574650000000000000000000000 DUP2 MSTORE POP DUP1 PUSH1 0x40 MLOAD DUP1 PUSH1 0x40 ADD PUSH1 0x40 MSTORE DUP1 PUSH1 0x1 DUP2 MSTORE PUSH1 0x20 ADD PUSH32 0x3100000000000000000000000000000000000000000000000000000000000000 DUP2 MSTORE POP PUSH1 0x40 MLOAD DUP1 PUSH1 0x40 ADD PUSH1 0x40 MSTORE DUP1 PUSH1 0x15 DUP2 MSTORE PUSH1 0x20 ADD PUSH32 0x596F67615265736561726368496E737469747574650000000000000000000000 DUP2 MSTORE POP PUSH1 0x40 MLOAD DUP1 PUSH1 0x40 ADD PUSH1 0x40 MSTORE DUP1 PUSH1 0x4 DUP2 MSTORE PUSH1 0x20 ADD PUSH32 0x594F474900000000000000000000000000000000000000000000000000000000 DUP2 MSTORE POP DUP2 PUSH1 0x3 SWAP1 DUP2 PUSH3 0x16B SWAP2 SWAP1 PUSH3 0x1711 JUMP JUMPDEST POP DUP1 PUSH1 0x4 SWAP1 DUP2 PUSH3 0x17D SWAP2 SWAP1 PUSH3 0x1711 JUMP JUMPDEST POP POP POP PUSH1 0x0 DUP3 DUP1 MLOAD SWAP1 PUSH1 0x20 ADD KECCAK256 SWAP1 POP PUSH1 0x0 DUP3 DUP1 MLOAD SWAP1 PUSH1 0x20 ADD KECCAK256 SWAP1 POP PUSH1 0x0 PUSH32 0x8B73C3C69BB8FE3D512ECC4CF759CC79239F7B179B0FFACAA9A75D522B39400F SWAP1 POP DUP3 PUSH1 0xE0 DUP2 DUP2 MSTORE POP POP DUP2 PUSH2 0x100 DUP2 DUP2 MSTORE POP POP CHAINID PUSH1 0xA0 DUP2 DUP2 MSTORE POP POP PUSH3 0x1E9 DUP2 DUP5 DUP5 PUSH3 0x2C2 PUSH1 0x20 SHL PUSH1 0x20 SHR JUMP JUMPDEST PUSH1 0x80 DUP2 DUP2 MSTORE POP POP ADDRESS PUSH20 0xFFFFFFFFFFFFFFFFFFFFFFFFFFFFFFFFFFFFFFFF AND PUSH1 0xC0 DUP2 PUSH20 0xFFFFFFFFFFFFFFFFFFFFFFFFFFFFFFFFFFFFFFFF AND DUP2 MSTORE POP POP DUP1 PUSH2 0x120 DUP2 DUP2 MSTORE POP POP POP POP POP POP POP POP PUSH3 0x248 PUSH1 0x0 DUP1 SHL CALLER PUSH3 0x2FE PUSH1 0x20 SHL PUSH1 0x20 SHR JUMP JUMPDEST PUSH3 0x27A PUSH32 0xE1DCBDB91DF27212A29BC27177C840CF2F819ECF2187432E1FAC86C2DD5DFCA9 CALLER PUSH3 0x2FE PUSH1 0x20 SHL PUSH1 0x20 SHR JUMP JUMPDEST PUSH3 0x29F CALLER PUSH2 0x160 MLOAD PUSH2 0x140 MLOAD PUSH3 0x293 SWAP2 SWAP1 PUSH3 0x17F8 JUMP JUMPDEST PUSH3 0x314 PUSH1 0x20 SHL PUSH1 0x20 SHR JUMP JUMPDEST PUSH3 0x2B3 PUSH2 0x160 MLOAD PUSH3 0x394 PUSH1 0x20 SHL PUSH1 0x20 SHR JUMP JUMPDEST PUSH3 0x1EFE JUMP JUMPDEST PUSH1 0x0 PUSH1 0x12 SWAP1 POP SWAP1 JUMP JUMPDEST PUSH1 0x0 DUP4 DUP4 DUP4 CHAINID ADDRESS PUSH1 0x40 MLOAD PUSH1 0x20 ADD PUSH3 0x2DF SWAP6 SWAP5 SWAP4 SWAP3 SWAP2 SWAP1 PUSH3 0x18A4 JUMP JUMPDEST PUSH1 0x40 MLOAD PUSH1 0x20 DUP2 DUP4 SUB SUB DUP2 MSTORE SWAP1 PUSH1 0x40 MSTORE DUP1 MLOAD SWAP1 PUSH1 0x20 ADD KECCAK256 SWAP1 POP SWAP4 SWAP3 POP POP POP JUMP JUMPDEST PUSH3 0x310 DUP3 DUP3 PUSH3 0x3DB PUSH1 0x20 SHL PUSH1 0x20 SHR JUMP JUMPDEST POP POP JUMP JUMPDEST PUSH2 0x140 MLOAD DUP2 PUSH3 0x329 PUSH3 0x4CD PUSH1 0x20 SHL PUSH1 0x20 SHR JUMP JUMPDEST PUSH3 0x335 SWAP2 SWAP1 PUSH3 0x1901 JUMP JUMPDEST GT ISZERO PUSH3 0x379 JUMPI PUSH1 0x40 MLOAD PUSH32 0x8C379A000000000000000000000000000000000000000000000000000000000 DUP2 MSTORE PUSH1 0x4 ADD PUSH3 0x370 SWAP1 PUSH3 0x19C3 JUMP JUMPDEST PUSH1 0x40 MLOAD DUP1 SWAP2 SUB SWAP1 REVERT JUMPDEST PUSH3 0x390 DUP3 DUP3 PUSH3 0x4D7 PUSH1 0x20 SHL PUSH3 0x1468 OR PUSH1 0x20 SHR JUMP JUMPDEST POP POP JUMP JUMPDEST PUSH3 0x3A6 ADDRESS DUP3 PUSH3 0x314 PUSH1 0x20 SHL PUSH1 0x20 SHR JUMP JUMPDEST PUSH3 0x3D8 PUSH32 0xE1DCBDB91DF27212A29BC27177C840CF2F819ECF2187432E1FAC86C2DD5DFCA9 ADDRESS PUSH3 0x595 PUSH1 0x20 SHL PUSH1 0x20 SHR JUMP JUMPDEST POP JUMP JUMPDEST PUSH3 0x3ED DUP3 DUP3 PUSH3 0x5CE PUSH1 0x20 SHL PUSH1 0x20 SHR JUMP JUMPDEST PUSH3 0x4C9 JUMPI PUSH1 0x1 PUSH1 0xA PUSH1 0x0 DUP5 DUP2 MSTORE PUSH1 0x20 ADD SWAP1 DUP2 MSTORE PUSH1 0x20 ADD PUSH1 0x0 KECCAK256 PUSH1 0x0 ADD PUSH1 0x0 DUP4 PUSH20 0xFFFFFFFFFFFFFFFFFFFFFFFFFFFFFFFFFFFFFFFF AND PUSH20 0xFFFFFFFFFFFFFFFFFFFFFFFFFFFFFFFFFFFFFFFF AND DUP2 MSTORE PUSH1 0x20 ADD SWAP1 DUP2 MSTORE PUSH1 0x20 ADD PUSH1 0x0 KECCAK256 PUSH1 0x0 PUSH2 0x100 EXP DUP2 SLOAD DUP2 PUSH1 0xFF MUL NOT AND SWAP1 DUP4 ISZERO ISZERO MUL OR SWAP1 SSTORE POP PUSH3 0x46E PUSH3 0x639 PUSH1 0x20 SHL PUSH1 0x20 SHR JUMP JUMPDEST PUSH20 0xFFFFFFFFFFFFFFFFFFFFFFFFFFFFFFFFFFFFFFFF AND DUP2 PUSH20 0xFFFFFFFFFFFFFFFFFFFFFFFFFFFFFFFFFFFFFFFF AND DUP4 PUSH32 0x2F8788117E7EFF1D82E926EC794901D17C78024A50270940304540A733656F0D PUSH1 0x40 MLOAD PUSH1 0x40 MLOAD DUP1 SWAP2 SUB SWAP1 LOG4 JUMPDEST POP POP JUMP JUMPDEST PUSH1 0x0 PUSH1 0x2 SLOAD SWAP1 POP SWAP1 JUMP JUMPDEST PUSH3 0x4EE DUP3 DUP3 PUSH3 0x641 PUSH1 0x20 SHL PUSH3 0x14F5 OR PUSH1 0x20 SHR JUMP JUMPDEST PUSH3 0x4FE PUSH3 0x7AE PUSH1 0x20 SHL PUSH1 0x20 SHR JUMP JUMPDEST PUSH28 0xFFFFFFFFFFFFFFFFFFFFFFFFFFFFFFFFFFFFFFFFFFFFFFFFFFFFFFFF AND PUSH3 0x52C PUSH3 0x4CD PUSH1 0x20 SHL PUSH1 0x20 SHR JUMP JUMPDEST GT ISZERO PUSH3 0x570 JUMPI PUSH1 0x40 MLOAD PUSH32 0x8C379A000000000000000000000000000000000000000000000000000000000 DUP2 MSTORE PUSH1 0x4 ADD PUSH3 0x567 SWAP1 PUSH3 0x1A5B JUMP JUMPDEST PUSH1 0x40 MLOAD DUP1 SWAP2 SUB SWAP1 REVERT JUMPDEST PUSH3 0x58F PUSH1 0x9 PUSH3 0x7D2 PUSH1 0x20 SHL PUSH3 0x164B OR DUP4 PUSH3 0x7EA PUSH1 0x20 SHL PUSH1 0x20 SHR JUMP JUMPDEST POP POP POP POP JUMP JUMPDEST PUSH3 0x5A6 DUP3 PUSH3 0xAF7 PUSH1 0x20 SHL PUSH1 0x20 SHR JUMP JUMPDEST PUSH3 0x5B7 DUP2 PUSH3 0xB17 PUSH1 0x20 SHL PUSH1 0x20 SHR JUMP JUMPDEST PUSH3 0x5C9 DUP4 DUP4 PUSH3 0x3DB PUSH1 0x20 SHL PUSH1 0x20 SHR JUMP JUMPDEST POP POP POP JUMP JUMPDEST PUSH1 0x0 PUSH1 0xA PUSH1 0x0 DUP5 DUP2 MSTORE PUSH1 0x20 ADD SWAP1 DUP2 MSTORE PUSH1 0x20 ADD PUSH1 0x0 KECCAK256 PUSH1 0x0 ADD PUSH1 0x0 DUP4 PUSH20 0xFFFFFFFFFFFFFFFFFFFFFFFFFFFFFFFFFFFFFFFF AND PUSH20 0xFFFFFFFFFFFFFFFFFFFFFFFFFFFFFFFFFFFFFFFF AND DUP2 MSTORE PUSH1 0x20 ADD SWAP1 DUP2 MSTORE PUSH1 0x20 ADD PUSH1 0x0 KECCAK256 PUSH1 0x0 SWAP1 SLOAD SWAP1 PUSH2 0x100 EXP SWAP1 DIV PUSH1 0xFF AND SWAP1 POP SWAP3 SWAP2 POP POP JUMP JUMPDEST PUSH1 0x0 CALLER SWAP1 POP SWAP1 JUMP JUMPDEST PUSH1 0x0 PUSH20 0xFFFFFFFFFFFFFFFFFFFFFFFFFFFFFFFFFFFFFFFF AND DUP3 PUSH20 0xFFFFFFFFFFFFFFFFFFFFFFFFFFFFFFFFFFFFFFFF AND SUB PUSH3 0x6B3 JUMPI PUSH1 0x40 MLOAD PUSH32 0x8C379A000000000000000000000000000000000000000000000000000000000 DUP2 MSTORE PUSH1 0x4 ADD PUSH3 0x6AA SWAP1 PUSH3 0x1ACD JUMP JUMPDEST PUSH1 0x40 MLOAD DUP1 SWAP2 SUB SWAP1 REVERT JUMPDEST PUSH3 0x6C7 PUSH1 0x0 DUP4 DUP4 PUSH3 0xB3B PUSH1 0x20 SHL PUSH1 0x20 SHR JUMP JUMPDEST DUP1 PUSH1 0x2 PUSH1 0x0 DUP3 DUP3 SLOAD PUSH3 0x6DB SWAP2 SWAP1 PUSH3 0x1901 JUMP JUMPDEST SWAP3 POP POP DUP2 SWAP1 SSTORE POP DUP1 PUSH1 0x0 DUP1 DUP5 PUSH20 0xFFFFFFFFFFFFFFFFFFFFFFFFFFFFFFFFFFFFFFFF AND PUSH20 0xFFFFFFFFFFFFFFFFFFFFFFFFFFFFFFFFFFFFFFFF AND DUP2 MSTORE PUSH1 0x20 ADD SWAP1 DUP2 MSTORE PUSH1 0x20 ADD PUSH1 0x0 KECCAK256 PUSH1 0x0 DUP3 DUP3 SLOAD ADD SWAP3 POP POP DUP2 SWAP1 SSTORE POP DUP2 PUSH20 0xFFFFFFFFFFFFFFFFFFFFFFFFFFFFFFFFFFFFFFFF AND PUSH1 0x0 PUSH20 0xFFFFFFFFFFFFFFFFFFFFFFFFFFFFFFFFFFFFFFFF AND PUSH32 0xDDF252AD1BE2C89B69C2B068FC378DAA952BA7F163C4A11628F55A4DF523B3EF DUP4 PUSH1 0x40 MLOAD PUSH3 0x78E SWAP2 SWAP1 PUSH3 0x1AEF JUMP JUMPDEST PUSH1 0x40 MLOAD DUP1 SWAP2 SUB SWAP1 LOG3 PUSH3 0x7AA PUSH1 0x0 DUP4 DUP4 PUSH3 0xB40 PUSH1 0x20 SHL PUSH1 0x20 SHR JUMP JUMPDEST POP POP JUMP JUMPDEST PUSH1 0x0 PUSH28 0xFFFFFFFFFFFFFFFFFFFFFFFFFFFFFFFFFFFFFFFFFFFFFFFFFFFFFFFF SWAP1 POP SWAP1 JUMP JUMPDEST PUSH1 0x0 DUP2 DUP4 PUSH3 0x7E2 SWAP2 SWAP1 PUSH3 0x1901 JUMP JUMPDEST SWAP1 POP SWAP3 SWAP2 POP POP JUMP JUMPDEST PUSH1 0x0 DUP1 PUSH1 0x0 DUP6 DUP1 SLOAD SWAP1 POP SWAP1 POP PUSH1 0x0 DUP1 DUP3 EQ PUSH3 0x8C5 JUMPI PUSH3 0x820 DUP8 PUSH1 0x1 DUP5 PUSH3 0x814 SWAP2 SWAP1 PUSH3 0x17F8 JUMP JUMPDEST PUSH3 0xB5D PUSH1 0x20 SHL PUSH1 0x20 SHR JUMP JUMPDEST PUSH1 0x40 MLOAD DUP1 PUSH1 0x40 ADD PUSH1 0x40 MSTORE SWAP1 DUP2 PUSH1 0x0 DUP3 ADD PUSH1 0x0 SWAP1 SLOAD SWAP1 PUSH2 0x100 EXP SWAP1 DIV PUSH4 0xFFFFFFFF AND PUSH4 0xFFFFFFFF AND PUSH4 0xFFFFFFFF AND DUP2 MSTORE PUSH1 0x20 ADD PUSH1 0x0 DUP3 ADD PUSH1 0x4 SWAP1 SLOAD SWAP1 PUSH2 0x100 EXP SWAP1 DIV PUSH28 0xFFFFFFFFFFFFFFFFFFFFFFFFFFFFFFFFFFFFFFFFFFFFFFFFFFFFFFFF AND PUSH28 0xFFFFFFFFFFFFFFFFFFFFFFFFFFFFFFFFFFFFFFFFFFFFFFFFFFFFFFFF AND PUSH28 0xFFFFFFFFFFFFFFFFFFFFFFFFFFFFFFFFFFFFFFFFFFFFFFFFFFFFFFFF AND DUP2 MSTORE POP POP PUSH3 0x901 JUMP JUMPDEST PUSH1 0x40 MLOAD DUP1 PUSH1 0x40 ADD PUSH1 0x40 MSTORE DUP1 PUSH1 0x0 PUSH4 0xFFFFFFFF AND DUP2 MSTORE PUSH1 0x20 ADD PUSH1 0x0 PUSH28 0xFFFFFFFFFFFFFFFFFFFFFFFFFFFFFFFFFFFFFFFFFFFFFFFFFFFFFFFF AND DUP2 MSTORE POP JUMPDEST SWAP1 POP DUP1 PUSH1 0x20 ADD MLOAD PUSH28 0xFFFFFFFFFFFFFFFFFFFFFFFFFFFFFFFFFFFFFFFFFFFFFFFFFFFFFFFF AND SWAP4 POP PUSH3 0x934 DUP5 DUP7 DUP9 PUSH1 0x20 SHR JUMP JUMPDEST SWAP3 POP PUSH1 0x0 DUP3 GT DUP1 ISZERO PUSH3 0x950 JUMPI POP NUMBER DUP2 PUSH1 0x0 ADD MLOAD PUSH4 0xFFFFFFFF AND EQ JUMPDEST ISZERO PUSH3 0x9E3 JUMPI PUSH3 0x96C DUP4 PUSH3 0xB72 PUSH1 0x20 SHL PUSH3 0x1661 OR PUSH1 0x20 SHR JUMP JUMPDEST PUSH3 0x98C DUP9 PUSH1 0x1 DUP6 PUSH3 0x980 SWAP2 SWAP1 PUSH3 0x17F8 JUMP JUMPDEST PUSH3 0xB5D PUSH1 0x20 SHL PUSH1 0x20 SHR JUMP JUMPDEST PUSH1 0x0 ADD PUSH1 0x4 PUSH2 0x100 EXP DUP2 SLOAD DUP2 PUSH28 0xFFFFFFFFFFFFFFFFFFFFFFFFFFFFFFFFFFFFFFFFFFFFFFFFFFFFFFFF MUL NOT AND SWAP1 DUP4 PUSH28 0xFFFFFFFFFFFFFFFFFFFFFFFFFFFFFFFFFFFFFFFFFFFFFFFFFFFFFFFF AND MUL OR SWAP1 SSTORE POP PUSH3 0xAED JUMP JUMPDEST DUP7 PUSH1 0x40 MLOAD DUP1 PUSH1 0x40 ADD PUSH1 0x40 MSTORE DUP1 PUSH3 0xA05 NUMBER PUSH3 0xBE0 PUSH1 0x20 SHL PUSH3 0x16CC OR PUSH1 0x20 SHR JUMP JUMPDEST PUSH4 0xFFFFFFFF AND DUP2 MSTORE PUSH1 0x20 ADD PUSH3 0xA26 DUP7 PUSH3 0xB72 PUSH1 0x20 SHL PUSH3 0x1661 OR PUSH1 0x20 SHR JUMP JUMPDEST PUSH28 0xFFFFFFFFFFFFFFFFFFFFFFFFFFFFFFFFFFFFFFFFFFFFFFFFFFFFFFFF AND DUP2 MSTORE POP SWAP1 DUP1 PUSH1 0x1 DUP2 SLOAD ADD DUP1 DUP3 SSTORE DUP1 SWAP2 POP POP PUSH1 0x1 SWAP1 SUB SWAP1 PUSH1 0x0 MSTORE PUSH1 0x20 PUSH1 0x0 KECCAK256 ADD PUSH1 0x0 SWAP1 SWAP2 SWAP1 SWAP2 SWAP1 SWAP2 POP PUSH1 0x0 DUP3 ADD MLOAD DUP2 PUSH1 0x0 ADD PUSH1 0x0 PUSH2 0x100 EXP DUP2 SLOAD DUP2 PUSH4 0xFFFFFFFF MUL NOT AND SWAP1 DUP4 PUSH4 0xFFFFFFFF AND MUL OR SWAP1 SSTORE POP PUSH1 0x20 DUP3 ADD MLOAD DUP2 PUSH1 0x0 ADD PUSH1 0x4 PUSH2 0x100 EXP DUP2 SLOAD DUP2 PUSH28 0xFFFFFFFFFFFFFFFFFFFFFFFFFFFFFFFFFFFFFFFFFFFFFFFFFFFFFFFF MUL NOT AND SWAP1 DUP4 PUSH28 0xFFFFFFFFFFFFFFFFFFFFFFFFFFFFFFFFFFFFFFFFFFFFFFFFFFFFFFFF AND MUL OR SWAP1 SSTORE POP POP POP JUMPDEST POP POP SWAP4 POP SWAP4 SWAP2 POP POP JUMP JUMPDEST PUSH1 0x0 PUSH1 0xA PUSH1 0x0 DUP4 DUP2 MSTORE PUSH1 0x20 ADD SWAP1 DUP2 MSTORE PUSH1 0x20 ADD PUSH1 0x0 KECCAK256 PUSH1 0x1 ADD SLOAD SWAP1 POP SWAP2 SWAP1 POP JUMP JUMPDEST PUSH3 0xB38 DUP2 PUSH3 0xB2C PUSH3 0x639 PUSH1 0x20 SHL PUSH1 0x20 SHR JUMP JUMPDEST PUSH3 0xC36 PUSH1 0x20 SHL PUSH1 0x20 SHR JUMP JUMPDEST POP JUMP JUMPDEST POP POP POP JUMP JUMPDEST PUSH3 0xB58 DUP4 DUP4 DUP4 PUSH3 0xCE2 PUSH1 0x20 SHL PUSH3 0x171F OR PUSH1 0x20 SHR JUMP JUMPDEST POP POP POP JUMP JUMPDEST PUSH1 0x0 DUP3 PUSH1 0x0 MSTORE DUP2 PUSH1 0x20 PUSH1 0x0 KECCAK256 ADD SWAP1 POP SWAP3 SWAP2 POP POP JUMP JUMPDEST PUSH1 0x0 PUSH28 0xFFFFFFFFFFFFFFFFFFFFFFFFFFFFFFFFFFFFFFFFFFFFFFFFFFFFFFFF DUP1 AND DUP3 GT ISZERO PUSH3 0xBD8 JUMPI PUSH1 0x40 MLOAD PUSH32 0x8C379A000000000000000000000000000000000000000000000000000000000 DUP2 MSTORE PUSH1 0x4 ADD PUSH3 0xBCF SWAP1 PUSH3 0x1B82 JUMP JUMPDEST PUSH1 0x40 MLOAD DUP1 SWAP2 SUB SWAP1 REVERT JUMPDEST DUP2 SWAP1 POP SWAP2 SWAP1 POP JUMP JUMPDEST PUSH1 0x0 PUSH4 0xFFFFFFFF DUP1 AND DUP3 GT ISZERO PUSH3 0xC2E JUMPI PUSH1 0x40 MLOAD PUSH32 0x8C379A000000000000000000000000000000000000000000000000000000000 DUP2 MSTORE PUSH1 0x4 ADD PUSH3 0xC25 SWAP1 PUSH3 0x1C1A JUMP JUMPDEST PUSH1 0x40 MLOAD DUP1 SWAP2 SUB SWAP1 REVERT JUMPDEST DUP2 SWAP1 POP SWAP2 SWAP1 POP JUMP JUMPDEST PUSH3 0xC48 DUP3 DUP3 PUSH3 0x5CE PUSH1 0x20 SHL PUSH1 0x20 SHR JUMP JUMPDEST PUSH3 0xCDE JUMPI PUSH3 0xC63 DUP2 PUSH3 0xD32 PUSH1 0x20 SHL PUSH3 0x174A OR PUSH1 0x20 SHR JUMP JUMPDEST PUSH3 0xC7E DUP4 PUSH1 0x0 SHR PUSH1 0x20 PUSH3 0xD67 PUSH1 0x20 SHL PUSH3 0x1777 OR PUSH1 0x20 SHR JUMP JUMPDEST PUSH1 0x40 MLOAD PUSH1 0x20 ADD PUSH3 0xC91 SWAP3 SWAP2 SWAP1 PUSH3 0x1D4A JUMP JUMPDEST PUSH1 0x40 MLOAD PUSH1 0x20 DUP2 DUP4 SUB SUB DUP2 MSTORE SWAP1 PUSH1 0x40 MSTORE PUSH1 0x40 MLOAD PUSH32 0x8C379A000000000000000000000000000000000000000000000000000000000 DUP2 MSTORE PUSH1 0x4 ADD PUSH3 0xCD5 SWAP2 SWAP1 PUSH3 0x1DDE JUMP JUMPDEST PUSH1 0x40 MLOAD DUP1 SWAP2 SUB SWAP1 REVERT JUMPDEST POP POP JUMP JUMPDEST PUSH3 0xCFA DUP4 DUP4 DUP4 PUSH3 0xFC2 PUSH1 0x20 SHL PUSH3 0x19B3 OR PUSH1 0x20 SHR JUMP JUMPDEST PUSH3 0xD2D PUSH3 0xD0F DUP5 PUSH3 0xFC7 PUSH1 0x20 SHL PUSH1 0x20 SHR JUMP JUMPDEST PUSH3 0xD20 DUP5 PUSH3 0xFC7 PUSH1 0x20 SHL PUSH1 0x20 SHR JUMP JUMPDEST DUP4 PUSH3 0x1030 PUSH1 0x20 SHL PUSH1 0x20 SHR JUMP JUMPDEST POP POP POP JUMP JUMPDEST PUSH1 0x60 PUSH3 0xD60 DUP3 PUSH20 0xFFFFFFFFFFFFFFFFFFFFFFFFFFFFFFFFFFFFFFFF AND PUSH1 0x14 PUSH1 0xFF AND PUSH3 0xD67 PUSH1 0x20 SHL PUSH1 0x20 SHR JUMP JUMPDEST SWAP1 POP SWAP2 SWAP1 POP JUMP JUMPDEST PUSH1 0x60 PUSH1 0x0 PUSH1 0x2 DUP4 PUSH1 0x2 PUSH3 0xD7C SWAP2 SWAP1 PUSH3 0x1456 JUMP JUMPDEST PUSH3 0xD88 SWAP2 SWAP1 PUSH3 0x1901 JUMP JUMPDEST PUSH8 0xFFFFFFFFFFFFFFFF DUP2 GT ISZERO PUSH3 0xDA4 JUMPI PUSH3 0xDA3 PUSH3 0x14AC JUMP JUMPDEST JUMPDEST PUSH1 0x40 MLOAD SWAP1 DUP1 DUP3 MSTORE DUP1 PUSH1 0x1F ADD PUSH1 0x1F NOT AND PUSH1 0x20 ADD DUP3 ADD PUSH1 0x40 MSTORE DUP1 ISZERO PUSH3 0xDD7 JUMPI DUP2 PUSH1 0x20 ADD PUSH1 0x1 DUP3 MUL DUP1 CALLDATASIZE DUP4 CALLDATACOPY DUP1 DUP3 ADD SWAP2 POP POP SWAP1 POP JUMPDEST POP SWAP1 POP PUSH32 0x3000000000000000000000000000000000000000000000000000000000000000 DUP2 PUSH1 0x0 DUP2 MLOAD DUP2 LT PUSH3 0xE12 JUMPI PUSH3 0xE11 PUSH3 0x1E02 JUMP JUMPDEST JUMPDEST PUSH1 0x20 ADD ADD SWAP1 PUSH31 0xFFFFFFFFFFFFFFFFFFFFFFFFFFFFFFFFFFFFFFFFFFFFFFFFFFFFFFFFFFFFFF NOT AND SWAP1 DUP2 PUSH1 0x0 BYTE SWAP1 MSTORE8 POP PUSH32 0x7800000000000000000000000000000000000000000000000000000000000000 DUP2 PUSH1 0x1 DUP2 MLOAD DUP2 LT PUSH3 0xE79 JUMPI PUSH3 0xE78 PUSH3 0x1E02 JUMP JUMPDEST JUMPDEST PUSH1 0x20 ADD ADD SWAP1 PUSH31 0xFFFFFFFFFFFFFFFFFFFFFFFFFFFFFFFFFFFFFFFFFFFFFFFFFFFFFFFFFFFFFF NOT AND SWAP1 DUP2 PUSH1 0x0 BYTE SWAP1 MSTORE8 POP PUSH1 0x0 PUSH1 0x1 DUP5 PUSH1 0x2 PUSH3 0xEBB SWAP2 SWAP1 PUSH3 0x1456 JUMP JUMPDEST PUSH3 0xEC7 SWAP2 SWAP1 PUSH3 0x1901 JUMP JUMPDEST SWAP1 POP JUMPDEST PUSH1 0x1 DUP2 GT ISZERO PUSH3 0xF71 JUMPI PUSH32 0x3031323334353637383961626364656600000000000000000000000000000000 PUSH1 0xF DUP7 AND PUSH1 0x10 DUP2 LT PUSH3 0xF0D JUMPI PUSH3 0xF0C PUSH3 0x1E02 JUMP JUMPDEST JUMPDEST BYTE PUSH1 0xF8 SHL DUP3 DUP3 DUP2 MLOAD DUP2 LT PUSH3 0xF27 JUMPI PUSH3 0xF26 PUSH3 0x1E02 JUMP JUMPDEST JUMPDEST PUSH1 0x20 ADD ADD SWAP1 PUSH31 0xFFFFFFFFFFFFFFFFFFFFFFFFFFFFFFFFFFFFFFFFFFFFFFFFFFFFFFFFFFFFFF NOT AND SWAP1 DUP2 PUSH1 0x0 BYTE SWAP1 MSTORE8 POP PUSH1 0x4 DUP6 SWAP1 SHR SWAP5 POP DUP1 PUSH3 0xF69 SWAP1 PUSH3 0x1E31 JUMP JUMPDEST SWAP1 POP PUSH3 0xECA JUMP JUMPDEST POP PUSH1 0x0 DUP5 EQ PUSH3 0xFB8 JUMPI PUSH1 0x40 MLOAD PUSH32 0x8C379A000000000000000000000000000000000000000000000000000000000 DUP2 MSTORE PUSH1 0x4 ADD PUSH3 0xFAF SWAP1 PUSH3 0x1EAF JUMP JUMPDEST PUSH1 0x40 MLOAD DUP1 SWAP2 SUB SWAP1 REVERT JUMPDEST DUP1 SWAP2 POP POP SWAP3 SWAP2 POP POP JUMP JUMPDEST POP POP POP JUMP JUMPDEST PUSH1 0x0 PUSH1 0x7 PUSH1 0x0 DUP4 PUSH20 0xFFFFFFFFFFFFFFFFFFFFFFFFFFFFFFFFFFFFFFFF AND PUSH20 0xFFFFFFFFFFFFFFFFFFFFFFFFFFFFFFFFFFFFFFFF AND DUP2 MSTORE PUSH1 0x20 ADD SWAP1 DUP2 MSTORE PUSH1 0x20 ADD PUSH1 0x0 KECCAK256 PUSH1 0x0 SWAP1 SLOAD SWAP1 PUSH2 0x100 EXP SWAP1 DIV PUSH20 0xFFFFFFFFFFFFFFFFFFFFFFFFFFFFFFFFFFFFFFFF AND SWAP1 POP SWAP2 SWAP1 POP JUMP JUMPDEST DUP2 PUSH20 0xFFFFFFFFFFFFFFFFFFFFFFFFFFFFFFFFFFFFFFFF AND DUP4 PUSH20 0xFFFFFFFFFFFFFFFFFFFFFFFFFFFFFFFFFFFFFFFF AND EQ ISZERO DUP1 ISZERO PUSH3 0x106D JUMPI POP PUSH1 0x0 DUP2 GT JUMPDEST ISZERO PUSH3 0x124E JUMPI PUSH1 0x0 PUSH20 0xFFFFFFFFFFFFFFFFFFFFFFFFFFFFFFFFFFFFFFFF AND DUP4 PUSH20 0xFFFFFFFFFFFFFFFFFFFFFFFFFFFFFFFFFFFFFFFF AND EQ PUSH3 0x1160 JUMPI PUSH1 0x0 DUP1 PUSH3 0x1107 PUSH1 0x8 PUSH1 0x0 DUP8 PUSH20 0xFFFFFFFFFFFFFFFFFFFFFFFFFFFFFFFFFFFFFFFF AND PUSH20 0xFFFFFFFFFFFFFFFFFFFFFFFFFFFFFFFFFFFFFFFF AND DUP2 MSTORE PUSH1 0x20 ADD SWAP1 DUP2 MSTORE PUSH1 0x20 ADD PUSH1 0x0 KECCAK256 PUSH3 0x1253 PUSH1 0x20 SHL PUSH3 0x19B8 OR DUP6 PUSH3 0x7EA PUSH1 0x20 SHL PUSH1 0x20 SHR JUMP JUMPDEST SWAP2 POP SWAP2 POP DUP5 PUSH20 0xFFFFFFFFFFFFFFFFFFFFFFFFFFFFFFFFFFFFFFFF AND PUSH32 0xDEC2BACDD2F05B59DE34DA9B523DFF8BE42E5E38E818C82FDB0BAE774387A724 DUP4 DUP4 PUSH1 0x40 MLOAD PUSH3 0x1155 SWAP3 SWAP2 SWAP1 PUSH3 0x1ED1 JUMP JUMPDEST PUSH1 0x40 MLOAD DUP1 SWAP2 SUB SWAP1 LOG2 POP POP JUMPDEST PUSH1 0x0 PUSH20 0xFFFFFFFFFFFFFFFFFFFFFFFFFFFFFFFFFFFFFFFF AND DUP3 PUSH20 0xFFFFFFFFFFFFFFFFFFFFFFFFFFFFFFFFFFFFFFFF AND EQ PUSH3 0x124D JUMPI PUSH1 0x0 DUP1 PUSH3 0x11F4 PUSH1 0x8 PUSH1 0x0 DUP7 PUSH20 0xFFFFFFFFFFFFFFFFFFFFFFFFFFFFFFFFFFFFFFFF AND PUSH20 0xFFFFFFFFFFFFFFFFFFFFFFFFFFFFFFFFFFFFFFFF AND DUP2 MSTORE PUSH1 0x20 ADD SWAP1 DUP2 MSTORE PUSH1 0x20 ADD PUSH1 0x0 KECCAK256 PUSH3 0x7D2 PUSH1 0x20 SHL PUSH3 0x164B OR DUP6 PUSH3 0x7EA PUSH1 0x20 SHL PUSH1 0x20 SHR JUMP JUMPDEST SWAP2 POP SWAP2 POP DUP4 PUSH20 0xFFFFFFFFFFFFFFFFFFFFFFFFFFFFFFFFFFFFFFFF AND PUSH32 0xDEC2BACDD2F05B59DE34DA9B523DFF8BE42E5E38E818C82FDB0BAE774387A724 DUP4 DUP4 PUSH1 0x40 MLOAD PUSH3 0x1242 SWAP3 SWAP2 SWAP1 PUSH3 0x1ED1 JUMP JUMPDEST PUSH1 0x40 MLOAD DUP1 SWAP2 SUB SWAP1 LOG2 POP POP JUMPDEST JUMPDEST POP POP POP JUMP JUMPDEST PUSH1 0x0 DUP2 DUP4 PUSH3 0x1263 SWAP2 SWAP1 PUSH3 0x17F8 JUMP JUMPDEST SWAP1 POP SWAP3 SWAP2 POP POP JUMP JUMPDEST PUSH32 0x4E487B7100000000000000000000000000000000000000000000000000000000 PUSH1 0x0 MSTORE PUSH1 0x11 PUSH1 0x4 MSTORE PUSH1 0x24 PUSH1 0x0 REVERT JUMPDEST PUSH1 0x0 DUP2 PUSH1 0x1 SHR SWAP1 POP SWAP2 SWAP1 POP JUMP JUMPDEST PUSH1 0x0 DUP1 DUP3 SWAP2 POP DUP4 SWAP1 POP JUMPDEST PUSH1 0x1 DUP6 GT ISZERO PUSH3 0x12F9 JUMPI DUP1 DUP7 DIV DUP2 GT ISZERO PUSH3 0x12D1 JUMPI PUSH3 0x12D0 PUSH3 0x126B JUMP JUMPDEST JUMPDEST PUSH1 0x1 DUP6 AND ISZERO PUSH3 0x12E1 JUMPI DUP1 DUP3 MUL SWAP2 POP JUMPDEST DUP1 DUP2 MUL SWAP1 POP PUSH3 0x12F1 DUP6 PUSH3 0x129A JUMP JUMPDEST SWAP5 POP PUSH3 0x12B1 JUMP JUMPDEST SWAP5 POP SWAP5 SWAP3 POP POP POP JUMP JUMPDEST PUSH1 0x0 DUP3 PUSH3 0x1314 JUMPI PUSH1 0x1 SWAP1 POP PUSH3 0x13E7 JUMP JUMPDEST DUP2 PUSH3 0x1324 JUMPI PUSH1 0x0 SWAP1 POP PUSH3 0x13E7 JUMP JUMPDEST DUP2 PUSH1 0x1 DUP2 EQ PUSH3 0x133D JUMPI PUSH1 0x2 DUP2 EQ PUSH3 0x1348 JUMPI PUSH3 0x137E JUMP JUMPDEST PUSH1 0x1 SWAP2 POP POP PUSH3 0x13E7 JUMP JUMPDEST PUSH1 0xFF DUP5 GT ISZERO PUSH3 0x135D JUMPI PUSH3 0x135C PUSH3 0x126B JUMP JUMPDEST JUMPDEST DUP4 PUSH1 0x2 EXP SWAP2 POP DUP5 DUP3 GT ISZERO PUSH3 0x1377 JUMPI PUSH3 0x1376 PUSH3 0x126B JUMP JUMPDEST JUMPDEST POP PUSH3 0x13E7 JUMP JUMPDEST POP PUSH1 0x20 DUP4 LT PUSH2 0x133 DUP4 LT AND PUSH1 0x4E DUP5 LT PUSH1 0xB DUP5 LT AND OR ISZERO PUSH3 0x13B8 JUMPI DUP3 DUP3 EXP SWAP1 POP DUP4 DUP2 GT ISZERO PUSH3 0x13B2 JUMPI PUSH3 0x13B1 PUSH3 0x126B JUMP JUMPDEST JUMPDEST PUSH3 0x13E7 JUMP JUMPDEST PUSH3 0x13C7 DUP5 DUP5 DUP5 PUSH1 0x1 PUSH3 0x12A7 JUMP JUMPDEST SWAP3 POP SWAP1 POP DUP2 DUP5 DIV DUP2 GT ISZERO PUSH3 0x13E1 JUMPI PUSH3 0x13E0 PUSH3 0x126B JUMP JUMPDEST JUMPDEST DUP2 DUP2 MUL SWAP1 POP JUMPDEST SWAP4 SWAP3 POP POP POP JUMP JUMPDEST PUSH1 0x0 DUP2 SWAP1 POP SWAP2 SWAP1 POP JUMP JUMPDEST PUSH1 0x0 PUSH1 0xFF DUP3 AND SWAP1 POP SWAP2 SWAP1 POP JUMP JUMPDEST PUSH1 0x0 PUSH3 0x1412 DUP3 PUSH3 0x13EE JUMP JUMPDEST SWAP2 POP PUSH3 0x141F DUP4 PUSH3 0x13F8 JUMP JUMPDEST SWAP3 POP PUSH3 0x144E PUSH32 0xFFFFFFFFFFFFFFFFFFFFFFFFFFFFFFFFFFFFFFFFFFFFFFFFFFFFFFFFFFFFFFFF DUP5 DUP5 PUSH3 0x1302 JUMP JUMPDEST SWAP1 POP SWAP3 SWAP2 POP POP JUMP JUMPDEST PUSH1 0x0 PUSH3 0x1463 DUP3 PUSH3 0x13EE JUMP JUMPDEST SWAP2 POP PUSH3 0x1470 DUP4 PUSH3 0x13EE JUMP JUMPDEST SWAP3 POP DUP3 DUP3 MUL PUSH3 0x1480 DUP2 PUSH3 0x13EE JUMP JUMPDEST SWAP2 POP DUP3 DUP3 DIV DUP5 EQ DUP4 ISZERO OR PUSH3 0x149A JUMPI PUSH3 0x1499 PUSH3 0x126B JUMP JUMPDEST JUMPDEST POP SWAP3 SWAP2 POP POP JUMP JUMPDEST PUSH1 0x0 DUP2 MLOAD SWAP1 POP SWAP2 SWAP1 POP JUMP JUMPDEST PUSH32 0x4E487B7100000000000000000000000000000000000000000000000000000000 PUSH1 0x0 MSTORE PUSH1 0x41 PUSH1 0x4 MSTORE PUSH1 0x24 PUSH1 0x0 REVERT JUMPDEST PUSH32 0x4E487B7100000000000000000000000000000000000000000000000000000000 PUSH1 0x0 MSTORE PUSH1 0x22 PUSH1 0x4 MSTORE PUSH1 0x24 PUSH1 0x0 REVERT JUMPDEST PUSH1 0x0 PUSH1 0x2 DUP3 DIV SWAP1 POP PUSH1 0x1 DUP3 AND DUP1 PUSH3 0x1523 JUMPI PUSH1 0x7F DUP3 AND SWAP2 POP JUMPDEST PUSH1 0x20 DUP3 LT DUP2 SUB PUSH3 0x1539 JUMPI PUSH3 0x1538 PUSH3 0x14DB JUMP JUMPDEST JUMPDEST POP SWAP2 SWAP1 POP JUMP JUMPDEST PUSH1 0x0 DUP2 SWAP1 POP DUP2 PUSH1 0x0 MSTORE PUSH1 0x20 PUSH1 0x0 KECCAK256 SWAP1 POP SWAP2 SWAP1 POP JUMP JUMPDEST PUSH1 0x0 PUSH1 0x20 PUSH1 0x1F DUP4 ADD DIV SWAP1 POP SWAP2 SWAP1 POP JUMP JUMPDEST PUSH1 0x0 DUP3 DUP3 SHL SWAP1 POP SWAP3 SWAP2 POP POP JUMP JUMPDEST PUSH1 0x0 PUSH1 0x8 DUP4 MUL PUSH3 0x15A3 PUSH32 0xFFFFFFFFFFFFFFFFFFFFFFFFFFFFFFFFFFFFFFFFFFFFFFFFFFFFFFFFFFFFFFFF DUP3 PUSH3 0x1564 JUMP JUMPDEST PUSH3 0x15AF DUP7 DUP4 PUSH3 0x1564 JUMP JUMPDEST SWAP6 POP DUP1 NOT DUP5 AND SWAP4 POP DUP1 DUP7 AND DUP5 OR SWAP3 POP POP POP SWAP4 SWAP3 POP POP POP JUMP JUMPDEST PUSH1 0x0 DUP2 SWAP1 POP SWAP2 SWAP1 POP JUMP JUMPDEST PUSH1 0x0 PUSH3 0x15F2 PUSH3 0x15EC PUSH3 0x15E6 DUP5 PUSH3 0x13EE JUMP JUMPDEST PUSH3 0x15C7 JUMP JUMPDEST PUSH3 0x13EE JUMP JUMPDEST SWAP1 POP SWAP2 SWAP1 POP JUMP JUMPDEST PUSH1 0x0 DUP2 SWAP1 POP SWAP2 SWAP1 POP JUMP JUMPDEST PUSH3 0x160E DUP4 PUSH3 0x15D1 JUMP JUMPDEST PUSH3 0x1626 PUSH3 0x161D DUP3 PUSH3 0x15F9 JUMP JUMPDEST DUP5 DUP5 SLOAD PUSH3 0x1571 JUMP JUMPDEST DUP3 SSTORE POP POP POP POP JUMP JUMPDEST PUSH1 0x0 SWAP1 JUMP JUMPDEST PUSH3 0x163D PUSH3 0x162E JUMP JUMPDEST PUSH3 0x164A DUP2 DUP5 DUP5 PUSH3 0x1603 JUMP JUMPDEST POP POP POP JUMP JUMPDEST JUMPDEST DUP2 DUP2 LT ISZERO PUSH3 0x1672 JUMPI PUSH3 0x1666 PUSH1 0x0 DUP3 PUSH3 0x1633 JUMP JUMPDEST PUSH1 0x1 DUP2 ADD SWAP1 POP PUSH3 0x1650 JUMP JUMPDEST POP POP JUMP JUMPDEST PUSH1 0x1F DUP3 GT ISZERO PUSH3 0x16C1 JUMPI PUSH3 0x168B DUP2 PUSH3 0x153F JUMP JUMPDEST PUSH3 0x1696 DUP5 PUSH3 0x1554 JUMP JUMPDEST DUP2 ADD PUSH1 0x20 DUP6 LT ISZERO PUSH3 0x16A6 JUMPI DUP2 SWAP1 POP JUMPDEST PUSH3 0x16BE PUSH3 0x16B5 DUP6 PUSH3 0x1554 JUMP JUMPDEST DUP4 ADD DUP3 PUSH3 0x164F JUMP JUMPDEST POP POP JUMPDEST POP POP POP JUMP JUMPDEST PUSH1 0x0 DUP3 DUP3 SHR SWAP1 POP SWAP3 SWAP2 POP POP JUMP JUMPDEST PUSH1 0x0 PUSH3 0x16E6 PUSH1 0x0 NOT DUP5 PUSH1 0x8 MUL PUSH3 0x16C6 JUMP JUMPDEST NOT DUP1 DUP4 AND SWAP2 POP POP SWAP3 SWAP2 POP POP JUMP JUMPDEST PUSH1 0x0 PUSH3 0x1701 DUP4 DUP4 PUSH3 0x16D3 JUMP JUMPDEST SWAP2 POP DUP3 PUSH1 0x2 MUL DUP3 OR SWAP1 POP SWAP3 SWAP2 POP POP JUMP JUMPDEST PUSH3 0x171C DUP3 PUSH3 0x14A1 JUMP JUMPDEST PUSH8 0xFFFFFFFFFFFFFFFF DUP2 GT ISZERO PUSH3 0x1738 JUMPI PUSH3 0x1737 PUSH3 0x14AC JUMP JUMPDEST JUMPDEST PUSH3 0x1744 DUP3 SLOAD PUSH3 0x150A JUMP JUMPDEST PUSH3 0x1751 DUP3 DUP3 DUP6 PUSH3 0x1676 JUMP JUMPDEST PUSH1 0x0 PUSH1 0x20 SWAP1 POP PUSH1 0x1F DUP4 GT PUSH1 0x1 DUP2 EQ PUSH3 0x1789 JUMPI PUSH1 0x0 DUP5 ISZERO PUSH3 0x1774 JUMPI DUP3 DUP8 ADD MLOAD SWAP1 POP JUMPDEST PUSH3 0x1780 DUP6 DUP3 PUSH3 0x16F3 JUMP JUMPDEST DUP7 SSTORE POP PUSH3 0x17F0 JUMP JUMPDEST PUSH1 0x1F NOT DUP5 AND PUSH3 0x1799 DUP7 PUSH3 0x153F JUMP JUMPDEST PUSH1 0x0 JUMPDEST DUP3 DUP2 LT ISZERO PUSH3 0x17C3 JUMPI DUP5 DUP10 ADD MLOAD DUP3 SSTORE PUSH1 0x1 DUP3 ADD SWAP2 POP PUSH1 0x20 DUP6 ADD SWAP5 POP PUSH1 0x20 DUP2 ADD SWAP1 POP PUSH3 0x179C JUMP JUMPDEST DUP7 DUP4 LT ISZERO PUSH3 0x17E3 JUMPI DUP5 DUP10 ADD MLOAD PUSH3 0x17DF PUSH1 0x1F DUP10 AND DUP3 PUSH3 0x16D3 JUMP JUMPDEST DUP4 SSTORE POP JUMPDEST PUSH1 0x1 PUSH1 0x2 DUP9 MUL ADD DUP9 SSTORE POP POP POP JUMPDEST POP POP POP POP POP POP JUMP JUMPDEST PUSH1 0x0 PUSH3 0x1805 DUP3 PUSH3 0x13EE JUMP JUMPDEST SWAP2 POP PUSH3 0x1812 DUP4 PUSH3 0x13EE JUMP JUMPDEST SWAP3 POP DUP3 DUP3 SUB SWAP1 POP DUP2 DUP2 GT ISZERO PUSH3 0x182D JUMPI PUSH3 0x182C PUSH3 0x126B JUMP JUMPDEST JUMPDEST SWAP3 SWAP2 POP POP JUMP JUMPDEST PUSH1 0x0 DUP2 SWAP1 POP SWAP2 SWAP1 POP JUMP JUMPDEST PUSH3 0x1848 DUP2 PUSH3 0x1833 JUMP JUMPDEST DUP3 MSTORE POP POP JUMP JUMPDEST PUSH3 0x1859 DUP2 PUSH3 0x13EE JUMP JUMPDEST DUP3 MSTORE POP POP JUMP JUMPDEST PUSH1 0x0 PUSH20 0xFFFFFFFFFFFFFFFFFFFFFFFFFFFFFFFFFFFFFFFF DUP3 AND SWAP1 POP SWAP2 SWAP1 POP JUMP JUMPDEST PUSH1 0x0 PUSH3 0x188C DUP3 PUSH3 0x185F JUMP JUMPDEST SWAP1 POP SWAP2 SWAP1 POP JUMP JUMPDEST PUSH3 0x189E DUP2 PUSH3 0x187F JUMP JUMPDEST DUP3 MSTORE POP POP JUMP JUMPDEST PUSH1 0x0 PUSH1 0xA0 DUP3 ADD SWAP1 POP PUSH3 0x18BB PUSH1 0x0 DUP4 ADD DUP9 PUSH3 0x183D JUMP JUMPDEST PUSH3 0x18CA PUSH1 0x20 DUP4 ADD DUP8 PUSH3 0x183D JUMP JUMPDEST PUSH3 0x18D9 PUSH1 0x40 DUP4 ADD DUP7 PUSH3 0x183D JUMP JUMPDEST PUSH3 0x18E8 PUSH1 0x60 DUP4 ADD DUP6 PUSH3 0x184E JUMP JUMPDEST PUSH3 0x18F7 PUSH1 0x80 DUP4 ADD DUP5 PUSH3 0x1893 JUMP JUMPDEST SWAP7 SWAP6 POP POP POP POP POP POP JUMP JUMPDEST PUSH1 0x0 PUSH3 0x190E DUP3 PUSH3 0x13EE JUMP JUMPDEST SWAP2 POP PUSH3 0x191B DUP4 PUSH3 0x13EE JUMP JUMPDEST SWAP3 POP DUP3 DUP3 ADD SWAP1 POP DUP1 DUP3 GT ISZERO PUSH3 0x1936 JUMPI PUSH3 0x1935 PUSH3 0x126B JUMP JUMPDEST JUMPDEST SWAP3 SWAP2 POP POP JUMP JUMPDEST PUSH1 0x0 DUP3 DUP3 MSTORE PUSH1 0x20 DUP3 ADD SWAP1 POP SWAP3 SWAP2 POP POP JUMP JUMPDEST PUSH32 0x546F74616C20737570706C792063616E6E6F7420657863656564206D61782073 PUSH1 0x0 DUP3 ADD MSTORE PUSH32 0x7570706C79000000000000000000000000000000000000000000000000000000 PUSH1 0x20 DUP3 ADD MSTORE POP JUMP JUMPDEST PUSH1 0x0 PUSH3 0x19AB PUSH1 0x25 DUP4 PUSH3 0x193C JUMP JUMPDEST SWAP2 POP PUSH3 0x19B8 DUP3 PUSH3 0x194D JUMP JUMPDEST PUSH1 0x40 DUP3 ADD SWAP1 POP SWAP2 SWAP1 POP JUMP JUMPDEST PUSH1 0x0 PUSH1 0x20 DUP3 ADD SWAP1 POP DUP2 DUP2 SUB PUSH1 0x0 DUP4 ADD MSTORE PUSH3 0x19DE DUP2 PUSH3 0x199C JUMP JUMPDEST SWAP1 POP SWAP2 SWAP1 POP JUMP JUMPDEST PUSH32 0x4552433230566F7465733A20746F74616C20737570706C79207269736B73206F PUSH1 0x0 DUP3 ADD MSTORE PUSH32 0x766572666C6F77696E6720766F74657300000000000000000000000000000000 PUSH1 0x20 DUP3 ADD MSTORE POP JUMP JUMPDEST PUSH1 0x0 PUSH3 0x1A43 PUSH1 0x30 DUP4 PUSH3 0x193C JUMP JUMPDEST SWAP2 POP PUSH3 0x1A50 DUP3 PUSH3 0x19E5 JUMP JUMPDEST PUSH1 0x40 DUP3 ADD SWAP1 POP SWAP2 SWAP1 POP JUMP JUMPDEST PUSH1 0x0 PUSH1 0x20 DUP3 ADD SWAP1 POP DUP2 DUP2 SUB PUSH1 0x0 DUP4 ADD MSTORE PUSH3 0x1A76 DUP2 PUSH3 0x1A34 JUMP JUMPDEST SWAP1 POP SWAP2 SWAP1 POP JUMP JUMPDEST PUSH32 0x45524332303A206D696E7420746F20746865207A65726F206164647265737300 PUSH1 0x0 DUP3 ADD MSTORE POP JUMP JUMPDEST PUSH1 0x0 PUSH3 0x1AB5 PUSH1 0x1F DUP4 PUSH3 0x193C JUMP JUMPDEST SWAP2 POP PUSH3 0x1AC2 DUP3 PUSH3 0x1A7D JUMP JUMPDEST PUSH1 0x20 DUP3 ADD SWAP1 POP SWAP2 SWAP1 POP JUMP JUMPDEST PUSH1 0x0 PUSH1 0x20 DUP3 ADD SWAP1 POP DUP2 DUP2 SUB PUSH1 0x0 DUP4 ADD MSTORE PUSH3 0x1AE8 DUP2 PUSH3 0x1AA6 JUMP JUMPDEST SWAP1 POP SWAP2 SWAP1 POP JUMP JUMPDEST PUSH1 0x0 PUSH1 0x20 DUP3 ADD SWAP1 POP PUSH3 0x1B06 PUSH1 0x0 DUP4 ADD DUP5 PUSH3 0x184E JUMP JUMPDEST SWAP3 SWAP2 POP POP JUMP JUMPDEST PUSH32 0x53616665436173743A2076616C756520646F65736E27742066697420696E2032 PUSH1 0x0 DUP3 ADD MSTORE PUSH32 0x3234206269747300000000000000000000000000000000000000000000000000 PUSH1 0x20 DUP3 ADD MSTORE POP JUMP JUMPDEST PUSH1 0x0 PUSH3 0x1B6A PUSH1 0x27 DUP4 PUSH3 0x193C JUMP JUMPDEST SWAP2 POP PUSH3 0x1B77 DUP3 PUSH3 0x1B0C JUMP JUMPDEST PUSH1 0x40 DUP3 ADD SWAP1 POP SWAP2 SWAP1 POP JUMP JUMPDEST PUSH1 0x0 PUSH1 0x20 DUP3 ADD SWAP1 POP DUP2 DUP2 SUB PUSH1 0x0 DUP4 ADD MSTORE PUSH3 0x1B9D DUP2 PUSH3 0x1B5B JUMP JUMPDEST SWAP1 POP SWAP2 SWAP1 POP JUMP JUMPDEST PUSH32 0x53616665436173743A2076616C756520646F65736E27742066697420696E2033 PUSH1 0x0 DUP3 ADD MSTORE PUSH32 0x3220626974730000000000000000000000000000000000000000000000000000 PUSH1 0x20 DUP3 ADD MSTORE POP JUMP JUMPDEST PUSH1 0x0 PUSH3 0x1C02 PUSH1 0x26 DUP4 PUSH3 0x193C JUMP JUMPDEST SWAP2 POP PUSH3 0x1C0F DUP3 PUSH3 0x1BA4 JUMP JUMPDEST PUSH1 0x40 DUP3 ADD SWAP1 POP SWAP2 SWAP1 POP JUMP JUMPDEST PUSH1 0x0 PUSH1 0x20 DUP3 ADD SWAP1 POP DUP2 DUP2 SUB PUSH1 0x0 DUP4 ADD MSTORE PUSH3 0x1C35 DUP2 PUSH3 0x1BF3 JUMP JUMPDEST SWAP1 POP SWAP2 SWAP1 POP JUMP JUMPDEST PUSH1 0x0 DUP2 SWAP1 POP SWAP3 SWAP2 POP POP JUMP JUMPDEST PUSH32 0x416363657373436F6E74726F6C3A206163636F756E7420000000000000000000 PUSH1 0x0 DUP3 ADD MSTORE POP JUMP JUMPDEST PUSH1 0x0 PUSH3 0x1C7F PUSH1 0x17 DUP4 PUSH3 0x1C3C JUMP JUMPDEST SWAP2 POP PUSH3 0x1C8C DUP3 PUSH3 0x1C47 JUMP JUMPDEST PUSH1 0x17 DUP3 ADD SWAP1 POP SWAP2 SWAP1 POP JUMP JUMPDEST PUSH1 0x0 JUMPDEST DUP4 DUP2 LT ISZERO PUSH3 0x1CB7 JUMPI DUP1 DUP3 ADD MLOAD DUP2 DUP5 ADD MSTORE PUSH1 0x20 DUP2 ADD SWAP1 POP PUSH3 0x1C9A JUMP JUMPDEST PUSH1 0x0 DUP5 DUP5 ADD MSTORE POP POP POP POP JUMP JUMPDEST PUSH1 0x0 PUSH3 0x1CD0 DUP3 PUSH3 0x14A1 JUMP JUMPDEST PUSH3 0x1CDC DUP2 DUP6 PUSH3 0x1C3C JUMP JUMPDEST SWAP4 POP PUSH3 0x1CEE DUP2 DUP6 PUSH1 0x20 DUP7 ADD PUSH3 0x1C97 JUMP JUMPDEST DUP1 DUP5 ADD SWAP2 POP POP SWAP3 SWAP2 POP POP JUMP JUMPDEST PUSH32 0x206973206D697373696E6720726F6C6520000000000000000000000000000000 PUSH1 0x0 DUP3 ADD MSTORE POP JUMP JUMPDEST PUSH1 0x0 PUSH3 0x1D32 PUSH1 0x11 DUP4 PUSH3 0x1C3C JUMP JUMPDEST SWAP2 POP PUSH3 0x1D3F DUP3 PUSH3 0x1CFA JUMP JUMPDEST PUSH1 0x11 DUP3 ADD SWAP1 POP SWAP2 SWAP1 POP JUMP JUMPDEST PUSH1 0x0 PUSH3 0x1D57 DUP3 PUSH3 0x1C70 JUMP JUMPDEST SWAP2 POP PUSH3 0x1D65 DUP3 DUP6 PUSH3 0x1CC3 JUMP JUMPDEST SWAP2 POP PUSH3 0x1D72 DUP3 PUSH3 0x1D23 JUMP JUMPDEST SWAP2 POP PUSH3 0x1D80 DUP3 DUP5 PUSH3 0x1CC3 JUMP JUMPDEST SWAP2 POP DUP2 SWAP1 POP SWAP4 SWAP3 POP POP POP JUMP JUMPDEST PUSH1 0x0 PUSH1 0x1F NOT PUSH1 0x1F DUP4 ADD AND SWAP1 POP SWAP2 SWAP1 POP JUMP JUMPDEST PUSH1 0x0 PUSH3 0x1DAA DUP3 PUSH3 0x14A1 JUMP JUMPDEST PUSH3 0x1DB6 DUP2 DUP6 PUSH3 0x193C JUMP JUMPDEST SWAP4 POP PUSH3 0x1DC8 DUP2 DUP6 PUSH1 0x20 DUP7 ADD PUSH3 0x1C97 JUMP JUMPDEST PUSH3 0x1DD3 DUP2 PUSH3 0x1D8C JUMP JUMPDEST DUP5 ADD SWAP2 POP POP SWAP3 SWAP2 POP POP JUMP JUMPDEST PUSH1 0x0 PUSH1 0x20 DUP3 ADD SWAP1 POP DUP2 DUP2 SUB PUSH1 0x0 DUP4 ADD MSTORE PUSH3 0x1DFA DUP2 DUP5 PUSH3 0x1D9D JUMP JUMPDEST SWAP1 POP SWAP3 SWAP2 POP POP JUMP JUMPDEST PUSH32 0x4E487B7100000000000000000000000000000000000000000000000000000000 PUSH1 0x0 MSTORE PUSH1 0x32 PUSH1 0x4 MSTORE PUSH1 0x24 PUSH1 0x0 REVERT JUMPDEST PUSH1 0x0 PUSH3 0x1E3E DUP3 PUSH3 0x13EE JUMP JUMPDEST SWAP2 POP PUSH1 0x0 DUP3 SUB PUSH3 0x1E54 JUMPI PUSH3 0x1E53 PUSH3 0x126B JUMP JUMPDEST JUMPDEST PUSH1 0x1 DUP3 SUB SWAP1 POP SWAP2 SWAP1 POP JUMP JUMPDEST PUSH32 0x537472696E67733A20686578206C656E67746820696E73756666696369656E74 PUSH1 0x0 DUP3 ADD MSTORE POP JUMP JUMPDEST PUSH1 0x0 PUSH3 0x1E97 PUSH1 0x20 DUP4 PUSH3 0x193C JUMP JUMPDEST SWAP2 POP PUSH3 0x1EA4 DUP3 PUSH3 0x1E5F JUMP JUMPDEST PUSH1 0x20 DUP3 ADD SWAP1 POP SWAP2 SWAP1 POP JUMP JUMPDEST PUSH1 0x0 PUSH1 0x20 DUP3 ADD SWAP1 POP DUP2 DUP2 SUB PUSH1 0x0 DUP4 ADD MSTORE PUSH3 0x1ECA DUP2 PUSH3 0x1E88 JUMP JUMPDEST SWAP1 POP SWAP2 SWAP1 POP JUMP JUMPDEST PUSH1 0x0 PUSH1 0x40 DUP3 ADD SWAP1 POP PUSH3 0x1EE8 PUSH1 0x0 DUP4 ADD DUP6 PUSH3 0x184E JUMP JUMPDEST PUSH3 0x1EF7 PUSH1 0x20 DUP4 ADD DUP5 PUSH3 0x184E JUMP JUMPDEST SWAP4 SWAP3 POP POP POP JUMP JUMPDEST PUSH1 0x80 MLOAD PUSH1 0xA0 MLOAD PUSH1 0xC0 MLOAD PUSH1 0xE0 MLOAD PUSH2 0x100 MLOAD PUSH2 0x120 MLOAD PUSH2 0x140 MLOAD PUSH2 0x160 MLOAD PUSH2 0x4AE8 PUSH3 0x1F72 PUSH1 0x0 CODECOPY PUSH1 0x0 DUP2 DUP2 PUSH2 0x895 ADD MSTORE DUP2 DUP2 PUSH2 0xC88 ADD MSTORE PUSH2 0xFBF ADD MSTORE PUSH1 0x0 PUSH2 0x96A ADD MSTORE PUSH1 0x0 PUSH2 0x1DDB ADD MSTORE PUSH1 0x0 PUSH2 0x1E1D ADD MSTORE PUSH1 0x0 PUSH2 0x1DFC ADD MSTORE PUSH1 0x0 PUSH2 0x1D31 ADD MSTORE PUSH1 0x0 PUSH2 0x1D87 ADD MSTORE PUSH1 0x0 PUSH2 0x1DB0 ADD MSTORE PUSH2 0x4AE8 PUSH1 0x0 RETURN INVALID PUSH1 0x80 PUSH1 0x40 MSTORE CALLVALUE DUP1 ISZERO PUSH2 0x10 JUMPI PUSH1 0x0 DUP1 REVERT JUMPDEST POP PUSH1 0x4 CALLDATASIZE LT PUSH2 0x206 JUMPI PUSH1 0x0 CALLDATALOAD PUSH1 0xE0 SHR DUP1 PUSH4 0x70A08231 GT PUSH2 0x11A JUMPI DUP1 PUSH4 0xA217FDDF GT PUSH2 0xAD JUMPI DUP1 PUSH4 0xD11A57EC GT PUSH2 0x7C JUMPI DUP1 PUSH4 0xD11A57EC EQ PUSH2 0x673 JUMPI DUP1 PUSH4 0xD505ACCF EQ PUSH2 0x691 JUMPI DUP1 PUSH4 0xD547741F EQ PUSH2 0x6AD JUMPI DUP1 PUSH4 0xDD62ED3E EQ PUSH2 0x6C9 JUMPI DUP1 PUSH4 0xF1127ED8 EQ PUSH2 0x6F9 JUMPI PUSH2 0x206 JUMP JUMPDEST DUP1 PUSH4 0xA217FDDF EQ PUSH2 0x5D9 JUMPI DUP1 PUSH4 0xA457C2D7 EQ PUSH2 0x5F7 JUMPI DUP1 PUSH4 0xA9059CBB EQ PUSH2 0x627 JUMPI DUP1 PUSH4 0xC3CDA520 EQ PUSH2 0x657 JUMPI PUSH2 0x206 JUMP JUMPDEST DUP1 PUSH4 0x8E539E8C GT PUSH2 0xE9 JUMPI DUP1 PUSH4 0x8E539E8C EQ PUSH2 0x52B JUMPI DUP1 PUSH4 0x91D14854 EQ PUSH2 0x55B JUMPI DUP1 PUSH4 0x95D89B41 EQ PUSH2 0x58B JUMPI DUP1 PUSH4 0x9AB24EB0 EQ PUSH2 0x5A9 JUMPI PUSH2 0x206 JUMP JUMPDEST DUP1 PUSH4 0x70A08231 EQ PUSH2 0x491 JUMPI DUP1 PUSH4 0x79CC6790 EQ PUSH2 0x4C1 JUMPI DUP1 PUSH4 0x7ECEBE00 EQ PUSH2 0x4DD JUMPI DUP1 PUSH4 0x7FBD1B5A EQ PUSH2 0x50D JUMPI PUSH2 0x206 JUMP JUMPDEST DUP1 PUSH4 0x32CB6B0C GT PUSH2 0x19D JUMPI DUP1 PUSH4 0x3A46B1A8 GT PUSH2 0x16C JUMPI DUP1 PUSH4 0x3A46B1A8 EQ PUSH2 0x3C9 JUMPI DUP1 PUSH4 0x42966C68 EQ PUSH2 0x3F9 JUMPI DUP1 PUSH4 0x587CDE1E EQ PUSH2 0x415 JUMPI DUP1 PUSH4 0x5C19A95C EQ PUSH2 0x445 JUMPI DUP1 PUSH4 0x6FCFFF45 EQ PUSH2 0x461 JUMPI PUSH2 0x206 JUMP JUMPDEST DUP1 PUSH4 0x32CB6B0C EQ PUSH2 0x341 JUMPI DUP1 PUSH4 0x3644E515 EQ PUSH2 0x35F JUMPI DUP1 PUSH4 0x36568ABE EQ PUSH2 0x37D JUMPI DUP1 PUSH4 0x39509351 EQ PUSH2 0x399 JUMPI PUSH2 0x206 JUMP JUMPDEST DUP1 PUSH4 0x23B872DD GT PUSH2 0x1D9 JUMPI DUP1 PUSH4 0x23B872DD EQ PUSH2 0x2A7 JUMPI DUP1 PUSH4 0x248A9CA3 EQ PUSH2 0x2D7 JUMPI DUP1 PUSH4 0x2F2FF15D EQ PUSH2 0x307 JUMPI DUP1 PUSH4 0x313CE567 EQ PUSH2 0x323 JUMPI PUSH2 0x206 JUMP JUMPDEST DUP1 PUSH4 0x1FFC9A7 EQ PUSH2 0x20B JUMPI DUP1 PUSH4 0x6FDDE03 EQ PUSH2 0x23B JUMPI DUP1 PUSH4 0x95EA7B3 EQ PUSH2 0x259 JUMPI DUP1 PUSH4 0x18160DDD EQ PUSH2 0x289 JUMPI JUMPDEST PUSH1 0x0 DUP1 REVERT JUMPDEST PUSH2 0x225 PUSH1 0x4 DUP1 CALLDATASIZE SUB DUP2 ADD SWAP1 PUSH2 0x220 SWAP2 SWAP1 PUSH2 0x327D JUMP JUMPDEST PUSH2 0x729 JUMP JUMPDEST PUSH1 0x40 MLOAD PUSH2 0x232 SWAP2 SWAP1 PUSH2 0x32C5 JUMP JUMPDEST PUSH1 0x40 MLOAD DUP1 SWAP2 SUB SWAP1 RETURN JUMPDEST PUSH2 0x243 PUSH2 0x7A3 JUMP JUMPDEST PUSH1 0x40 MLOAD PUSH2 0x250 SWAP2 SWAP1 PUSH2 0x3370 JUMP JUMPDEST PUSH1 0x40 MLOAD DUP1 SWAP2 SUB SWAP1 RETURN JUMPDEST PUSH2 0x273 PUSH1 0x4 DUP1 CALLDATASIZE SUB DUP2 ADD SWAP1 PUSH2 0x26E SWAP2 SWAP1 PUSH2 0x3426 JUMP JUMPDEST PUSH2 0x835 JUMP JUMPDEST PUSH1 0x40 MLOAD PUSH2 0x280 SWAP2 SWAP1 PUSH2 0x32C5 JUMP JUMPDEST PUSH1 0x40 MLOAD DUP1 SWAP2 SUB SWAP1 RETURN JUMPDEST PUSH2 0x291 PUSH2 0x858 JUMP JUMPDEST PUSH1 0x40 MLOAD PUSH2 0x29E SWAP2 SWAP1 PUSH2 0x3475 JUMP JUMPDEST PUSH1 0x40 MLOAD DUP1 SWAP2 SUB SWAP1 RETURN JUMPDEST PUSH2 0x2C1 PUSH1 0x4 DUP1 CALLDATASIZE SUB DUP2 ADD SWAP1 PUSH2 0x2BC SWAP2 SWAP1 PUSH2 0x3490 JUMP JUMPDEST PUSH2 0x862 JUMP JUMPDEST PUSH1 0x40 MLOAD PUSH2 0x2CE SWAP2 SWAP1 PUSH2 0x32C5 JUMP JUMPDEST PUSH1 0x40 MLOAD DUP1 SWAP2 SUB SWAP1 RETURN JUMPDEST PUSH2 0x2F1 PUSH1 0x4 DUP1 CALLDATASIZE SUB DUP2 ADD SWAP1 PUSH2 0x2EC SWAP2 SWAP1 PUSH2 0x3519 JUMP JUMPDEST PUSH2 0x91E JUMP JUMPDEST PUSH1 0x40 MLOAD PUSH2 0x2FE SWAP2 SWAP1 PUSH2 0x3555 JUMP JUMPDEST PUSH1 0x40 MLOAD DUP1 SWAP2 SUB SWAP1 RETURN JUMPDEST PUSH2 0x321 PUSH1 0x4 DUP1 CALLDATASIZE SUB DUP2 ADD SWAP1 PUSH2 0x31C SWAP2 SWAP1 PUSH2 0x3570 JUMP JUMPDEST PUSH2 0x93E JUMP JUMPDEST STOP JUMPDEST PUSH2 0x32B PUSH2 0x95F JUMP JUMPDEST PUSH1 0x40 MLOAD PUSH2 0x338 SWAP2 SWAP1 PUSH2 0x35CC JUMP JUMPDEST PUSH1 0x40 MLOAD DUP1 SWAP2 SUB SWAP1 RETURN JUMPDEST PUSH2 0x349 PUSH2 0x968 JUMP JUMPDEST PUSH1 0x40 MLOAD PUSH2 0x356 SWAP2 SWAP1 PUSH2 0x3475 JUMP JUMPDEST PUSH1 0x40 MLOAD DUP1 SWAP2 SUB SWAP1 RETURN JUMPDEST PUSH2 0x367 PUSH2 0x98C JUMP JUMPDEST PUSH1 0x40 MLOAD PUSH2 0x374 SWAP2 SWAP1 PUSH2 0x3555 JUMP JUMPDEST PUSH1 0x40 MLOAD DUP1 SWAP2 SUB SWAP1 RETURN JUMPDEST PUSH2 0x397 PUSH1 0x4 DUP1 CALLDATASIZE SUB DUP2 ADD SWAP1 PUSH2 0x392 SWAP2 SWAP1 PUSH2 0x3570 JUMP JUMPDEST PUSH2 0x99B JUMP JUMPDEST STOP JUMPDEST PUSH2 0x3B3 PUSH1 0x4 DUP1 CALLDATASIZE SUB DUP2 ADD SWAP1 PUSH2 0x3AE SWAP2 SWAP1 PUSH2 0x3426 JUMP JUMPDEST PUSH2 0xA1E JUMP JUMPDEST PUSH1 0x40 MLOAD PUSH2 0x3C0 SWAP2 SWAP1 PUSH2 0x32C5 JUMP JUMPDEST PUSH1 0x40 MLOAD DUP1 SWAP2 SUB SWAP1 RETURN JUMPDEST PUSH2 0x3E3 PUSH1 0x4 DUP1 CALLDATASIZE SUB DUP2 ADD SWAP1 PUSH2 0x3DE SWAP2 SWAP1 PUSH2 0x3426 JUMP JUMPDEST PUSH2 0xA55 JUMP JUMPDEST PUSH1 0x40 MLOAD PUSH2 0x3F0 SWAP2 SWAP1 PUSH2 0x3475 JUMP JUMPDEST PUSH1 0x40 MLOAD DUP1 SWAP2 SUB SWAP1 RETURN JUMPDEST PUSH2 0x413 PUSH1 0x4 DUP1 CALLDATASIZE SUB DUP2 ADD SWAP1 PUSH2 0x40E SWAP2 SWAP1 PUSH2 0x35E7 JUMP JUMPDEST PUSH2 0xAE9 JUMP JUMPDEST STOP JUMPDEST PUSH2 0x42F PUSH1 0x4 DUP1 CALLDATASIZE SUB DUP2 ADD SWAP1 PUSH2 0x42A SWAP2 SWAP1 PUSH2 0x3614 JUMP JUMPDEST PUSH2 0xAFD JUMP JUMPDEST PUSH1 0x40 MLOAD PUSH2 0x43C SWAP2 SWAP1 PUSH2 0x3650 JUMP JUMPDEST PUSH1 0x40 MLOAD DUP1 SWAP2 SUB SWAP1 RETURN JUMPDEST PUSH2 0x45F PUSH1 0x4 DUP1 CALLDATASIZE SUB DUP2 ADD SWAP1 PUSH2 0x45A SWAP2 SWAP1 PUSH2 0x3614 JUMP JUMPDEST PUSH2 0xB66 JUMP JUMPDEST STOP JUMPDEST PUSH2 0x47B PUSH1 0x4 DUP1 CALLDATASIZE SUB DUP2 ADD SWAP1 PUSH2 0x476 SWAP2 SWAP1 PUSH2 0x3614 JUMP JUMPDEST PUSH2 0xB7A JUMP JUMPDEST PUSH1 0x40 MLOAD PUSH2 0x488 SWAP2 SWAP1 PUSH2 0x368A JUMP JUMPDEST PUSH1 0x40 MLOAD DUP1 SWAP2 SUB SWAP1 RETURN JUMPDEST PUSH2 0x4AB PUSH1 0x4 DUP1 CALLDATASIZE SUB DUP2 ADD SWAP1 PUSH2 0x4A6 SWAP2 SWAP1 PUSH2 0x3614 JUMP JUMPDEST PUSH2 0xBCE JUMP JUMPDEST PUSH1 0x40 MLOAD PUSH2 0x4B8 SWAP2 SWAP1 PUSH2 0x3475 JUMP JUMPDEST PUSH1 0x40 MLOAD DUP1 SWAP2 SUB SWAP1 RETURN JUMPDEST PUSH2 0x4DB PUSH1 0x4 DUP1 CALLDATASIZE SUB DUP2 ADD SWAP1 PUSH2 0x4D6 SWAP2 SWAP1 PUSH2 0x3426 JUMP JUMPDEST PUSH2 0xC16 JUMP JUMPDEST STOP JUMPDEST PUSH2 0x4F7 PUSH1 0x4 DUP1 CALLDATASIZE SUB DUP2 ADD SWAP1 PUSH2 0x4F2 SWAP2 SWAP1 PUSH2 0x3614 JUMP JUMPDEST PUSH2 0xC36 JUMP JUMPDEST PUSH1 0x40 MLOAD PUSH2 0x504 SWAP2 SWAP1 PUSH2 0x3475 JUMP JUMPDEST PUSH1 0x40 MLOAD DUP1 SWAP2 SUB SWAP1 RETURN JUMPDEST PUSH2 0x515 PUSH2 0xC86 JUMP JUMPDEST PUSH1 0x40 MLOAD PUSH2 0x522 SWAP2 SWAP1 PUSH2 0x3475 JUMP JUMPDEST PUSH1 0x40 MLOAD DUP1 SWAP2 SUB SWAP1 RETURN JUMPDEST PUSH2 0x545 PUSH1 0x4 DUP1 CALLDATASIZE SUB DUP2 ADD SWAP1 PUSH2 0x540 SWAP2 SWAP1 PUSH2 0x35E7 JUMP JUMPDEST PUSH2 0xCAA JUMP JUMPDEST PUSH1 0x40 MLOAD PUSH2 0x552 SWAP2 SWAP1 PUSH2 0x3475 JUMP JUMPDEST PUSH1 0x40 MLOAD DUP1 SWAP2 SUB SWAP1 RETURN JUMPDEST PUSH2 0x575 PUSH1 0x4 DUP1 CALLDATASIZE SUB DUP2 ADD SWAP1 PUSH2 0x570 SWAP2 SWAP1 PUSH2 0x3570 JUMP JUMPDEST PUSH2 0xD00 JUMP JUMPDEST PUSH1 0x40 MLOAD PUSH2 0x582 SWAP2 SWAP1 PUSH2 0x32C5 JUMP JUMPDEST PUSH1 0x40 MLOAD DUP1 SWAP2 SUB SWAP1 RETURN JUMPDEST PUSH2 0x593 PUSH2 0xD6B JUMP JUMPDEST PUSH1 0x40 MLOAD PUSH2 0x5A0 SWAP2 SWAP1 PUSH2 0x3370 JUMP JUMPDEST PUSH1 0x40 MLOAD DUP1 SWAP2 SUB SWAP1 RETURN JUMPDEST PUSH2 0x5C3 PUSH1 0x4 DUP1 CALLDATASIZE SUB DUP2 ADD SWAP1 PUSH2 0x5BE SWAP2 SWAP1 PUSH2 0x3614 JUMP JUMPDEST PUSH2 0xDFD JUMP JUMPDEST PUSH1 0x40 MLOAD PUSH2 0x5D0 SWAP2 SWAP1 PUSH2 0x3475 JUMP JUMPDEST PUSH1 0x40 MLOAD DUP1 SWAP2 SUB SWAP1 RETURN JUMPDEST PUSH2 0x5E1 PUSH2 0xF0E JUMP JUMPDEST PUSH1 0x40 MLOAD PUSH2 0x5EE SWAP2 SWAP1 PUSH2 0x3555 JUMP JUMPDEST PUSH1 0x40 MLOAD DUP1 SWAP2 SUB SWAP1 RETURN JUMPDEST PUSH2 0x611 PUSH1 0x4 DUP1 CALLDATASIZE SUB DUP2 ADD SWAP1 PUSH2 0x60C SWAP2 SWAP1 PUSH2 0x3426 JUMP JUMPDEST PUSH2 0xF15 JUMP JUMPDEST PUSH1 0x40 MLOAD PUSH2 0x61E SWAP2 SWAP1 PUSH2 0x32C5 JUMP JUMPDEST PUSH1 0x40 MLOAD DUP1 SWAP2 SUB SWAP1 RETURN JUMPDEST PUSH2 0x641 PUSH1 0x4 DUP1 CALLDATASIZE SUB DUP2 ADD SWAP1 PUSH2 0x63C SWAP2 SWAP1 PUSH2 0x3426 JUMP JUMPDEST PUSH2 0xF8C JUMP JUMPDEST PUSH1 0x40 MLOAD PUSH2 0x64E SWAP2 SWAP1 PUSH2 0x32C5 JUMP JUMPDEST PUSH1 0x40 MLOAD DUP1 SWAP2 SUB SWAP1 RETURN JUMPDEST PUSH2 0x671 PUSH1 0x4 DUP1 CALLDATASIZE SUB DUP2 ADD SWAP1 PUSH2 0x66C SWAP2 SWAP1 PUSH2 0x36D1 JUMP JUMPDEST PUSH2 0x1046 JUMP JUMPDEST STOP JUMPDEST PUSH2 0x67B PUSH2 0x114A JUMP JUMPDEST PUSH1 0x40 MLOAD PUSH2 0x688 SWAP2 SWAP1 PUSH2 0x3555 JUMP JUMPDEST PUSH1 0x40 MLOAD DUP1 SWAP2 SUB SWAP1 RETURN JUMPDEST PUSH2 0x6AB PUSH1 0x4 DUP1 CALLDATASIZE SUB DUP2 ADD SWAP1 PUSH2 0x6A6 SWAP2 SWAP1 PUSH2 0x375E JUMP JUMPDEST PUSH2 0x116E JUMP JUMPDEST STOP JUMPDEST PUSH2 0x6C7 PUSH1 0x4 DUP1 CALLDATASIZE SUB DUP2 ADD SWAP1 PUSH2 0x6C2 SWAP2 SWAP1 PUSH2 0x3570 JUMP JUMPDEST PUSH2 0x12B0 JUMP JUMPDEST STOP JUMPDEST PUSH2 0x6E3 PUSH1 0x4 DUP1 CALLDATASIZE SUB DUP2 ADD SWAP1 PUSH2 0x6DE SWAP2 SWAP1 PUSH2 0x3800 JUMP JUMPDEST PUSH2 0x12D1 JUMP JUMPDEST PUSH1 0x40 MLOAD PUSH2 0x6F0 SWAP2 SWAP1 PUSH2 0x3475 JUMP JUMPDEST PUSH1 0x40 MLOAD DUP1 SWAP2 SUB SWAP1 RETURN JUMPDEST PUSH2 0x713 PUSH1 0x4 DUP1 CALLDATASIZE SUB DUP2 ADD SWAP1 PUSH2 0x70E SWAP2 SWAP1 PUSH2 0x386C JUMP JUMPDEST PUSH2 0x1358 JUMP JUMPDEST PUSH1 0x40 MLOAD PUSH2 0x720 SWAP2 SWAP1 PUSH2 0x3921 JUMP JUMPDEST PUSH1 0x40 MLOAD DUP1 SWAP2 SUB SWAP1 RETURN JUMPDEST PUSH1 0x0 PUSH32 0x7965DB0B00000000000000000000000000000000000000000000000000000000 PUSH28 0xFFFFFFFFFFFFFFFFFFFFFFFFFFFFFFFFFFFFFFFFFFFFFFFFFFFFFFFF NOT AND DUP3 PUSH28 0xFFFFFFFFFFFFFFFFFFFFFFFFFFFFFFFFFFFFFFFFFFFFFFFFFFFFFFFF NOT AND EQ DUP1 PUSH2 0x79C JUMPI POP PUSH2 0x79B DUP3 PUSH2 0x19CE JUMP JUMPDEST JUMPDEST SWAP1 POP SWAP2 SWAP1 POP JUMP JUMPDEST PUSH1 0x60 PUSH1 0x3 DUP1 SLOAD PUSH2 0x7B2 SWAP1 PUSH2 0x396B JUMP JUMPDEST DUP1 PUSH1 0x1F ADD PUSH1 0x20 DUP1 SWAP2 DIV MUL PUSH1 0x20 ADD PUSH1 0x40 MLOAD SWAP1 DUP2 ADD PUSH1 0x40 MSTORE DUP1 SWAP3 SWAP2 SWAP1 DUP2 DUP2 MSTORE PUSH1 0x20 ADD DUP3 DUP1 SLOAD PUSH2 0x7DE SWAP1 PUSH2 0x396B JUMP JUMPDEST DUP1 ISZERO PUSH2 0x82B JUMPI DUP1 PUSH1 0x1F LT PUSH2 0x800 JUMPI PUSH2 0x100 DUP1 DUP4 SLOAD DIV MUL DUP4 MSTORE SWAP2 PUSH1 0x20 ADD SWAP2 PUSH2 0x82B JUMP JUMPDEST DUP3 ADD SWAP2 SWAP1 PUSH1 0x0 MSTORE PUSH1 0x20 PUSH1 0x0 KECCAK256 SWAP1 JUMPDEST DUP2 SLOAD DUP2 MSTORE SWAP1 PUSH1 0x1 ADD SWAP1 PUSH1 0x20 ADD DUP1 DUP4 GT PUSH2 0x80E JUMPI DUP3 SWAP1 SUB PUSH1 0x1F AND DUP3 ADD SWAP2 JUMPDEST POP POP POP POP POP SWAP1 POP SWAP1 JUMP JUMPDEST PUSH1 0x0 DUP1 PUSH2 0x840 PUSH2 0x1A38 JUMP JUMPDEST SWAP1 POP PUSH2 0x84D DUP2 DUP6 DUP6 PUSH2 0x1A40 JUMP JUMPDEST PUSH1 0x1 SWAP2 POP POP SWAP3 SWAP2 POP POP JUMP JUMPDEST PUSH1 0x0 PUSH1 0x2 SLOAD SWAP1 POP SWAP1 JUMP JUMPDEST PUSH1 0x0 PUSH2 0x88E PUSH32 0xE1DCBDB91DF27212A29BC27177C840CF2F819ECF2187432E1FAC86C2DD5DFCA9 DUP6 PUSH2 0xD00 JUMP JUMPDEST ISZERO PUSH2 0x90A JUMPI PUSH32 0x0 DUP3 PUSH2 0x8BE ADDRESS PUSH2 0xBCE JUMP JUMPDEST PUSH2 0x8C8 SWAP2 SWAP1 PUSH2 0x39CB JUMP JUMPDEST LT ISZERO PUSH2 0x909 JUMPI PUSH1 0x40 MLOAD PUSH32 0x8C379A000000000000000000000000000000000000000000000000000000000 DUP2 MSTORE PUSH1 0x4 ADD PUSH2 0x900 SWAP1 PUSH2 0x3A4B JUMP JUMPDEST PUSH1 0x40 MLOAD DUP1 SWAP2 SUB SWAP1 REVERT JUMPDEST JUMPDEST PUSH2 0x915 DUP5 DUP5 DUP5 PUSH2 0x1C09 JUMP JUMPDEST SWAP1 POP SWAP4 SWAP3 POP POP POP JUMP JUMPDEST PUSH1 0x0 PUSH1 0xA PUSH1 0x0 DUP4 DUP2 MSTORE PUSH1 0x20 ADD SWAP1 DUP2 MSTORE PUSH1 0x20 ADD PUSH1 0x0 KECCAK256 PUSH1 0x1 ADD SLOAD SWAP1 POP SWAP2 SWAP1 POP JUMP JUMPDEST PUSH2 0x947 DUP3 PUSH2 0x91E JUMP JUMPDEST PUSH2 0x950 DUP2 PUSH2 0x1C38 JUMP JUMPDEST PUSH2 0x95A DUP4 DUP4 PUSH2 0x1C4C JUMP JUMPDEST POP POP POP JUMP JUMPDEST PUSH1 0x0 PUSH1 0x12 SWAP1 POP SWAP1 JUMP JUMPDEST PUSH32 0x0 DUP2 JUMP JUMPDEST PUSH1 0x0 PUSH2 0x996 PUSH2 0x1D2D JUMP JUMPDEST SWAP1 POP SWAP1 JUMP JUMPDEST PUSH2 0x9A3 PUSH2 0x1A38 JUMP JUMPDEST PUSH20 0xFFFFFFFFFFFFFFFFFFFFFFFFFFFFFFFFFFFFFFFF AND DUP2 PUSH20 0xFFFFFFFFFFFFFFFFFFFFFFFFFFFFFFFFFFFFFFFF AND EQ PUSH2 0xA10 JUMPI PUSH1 0x40 MLOAD PUSH32 0x8C379A000000000000000000000000000000000000000000000000000000000 DUP2 MSTORE PUSH1 0x4 ADD PUSH2 0xA07 SWAP1 PUSH2 0x3ADD JUMP JUMPDEST PUSH1 0x40 MLOAD DUP1 SWAP2 SUB SWAP1 REVERT JUMPDEST PUSH2 0xA1A DUP3 DUP3 PUSH2 0x1E47 JUMP JUMPDEST POP POP JUMP JUMPDEST PUSH1 0x0 DUP1 PUSH2 0xA29 PUSH2 0x1A38 JUMP JUMPDEST SWAP1 POP PUSH2 0xA4A DUP2 DUP6 DUP6 PUSH2 0xA3B DUP6 DUP10 PUSH2 0x12D1 JUMP JUMPDEST PUSH2 0xA45 SWAP2 SWAP1 PUSH2 0x3AFD JUMP JUMPDEST PUSH2 0x1A40 JUMP JUMPDEST PUSH1 0x1 SWAP2 POP POP SWAP3 SWAP2 POP POP JUMP JUMPDEST PUSH1 0x0 NUMBER DUP3 LT PUSH2 0xA99 JUMPI PUSH1 0x40 MLOAD PUSH32 0x8C379A000000000000000000000000000000000000000000000000000000000 DUP2 MSTORE PUSH1 0x4 ADD PUSH2 0xA90 SWAP1 PUSH2 0x3B7D JUMP JUMPDEST PUSH1 0x40 MLOAD DUP1 SWAP2 SUB SWAP1 REVERT JUMPDEST PUSH2 0xAE1 PUSH1 0x8 PUSH1 0x0 DUP6 PUSH20 0xFFFFFFFFFFFFFFFFFFFFFFFFFFFFFFFFFFFFFFFF AND PUSH20 0xFFFFFFFFFFFFFFFFFFFFFFFFFFFFFFFFFFFFFFFF AND DUP2 MSTORE PUSH1 0x20 ADD SWAP1 DUP2 MSTORE PUSH1 0x20 ADD PUSH1 0x0 KECCAK256 DUP4 PUSH2 0x1F29 JUMP JUMPDEST SWAP1 POP SWAP3 SWAP2 POP POP JUMP JUMPDEST PUSH2 0xAFA PUSH2 0xAF4 PUSH2 0x1A38 JUMP JUMPDEST DUP3 PUSH2 0x207A JUMP JUMPDEST POP JUMP JUMPDEST PUSH1 0x0 PUSH1 0x7 PUSH1 0x0 DUP4 PUSH20 0xFFFFFFFFFFFFFFFFFFFFFFFFFFFFFFFFFFFFFFFF AND PUSH20 0xFFFFFFFFFFFFFFFFFFFFFFFFFFFFFFFFFFFFFFFF AND DUP2 MSTORE PUSH1 0x20 ADD SWAP1 DUP2 MSTORE PUSH1 0x20 ADD PUSH1 0x0 KECCAK256 PUSH1 0x0 SWAP1 SLOAD SWAP1 PUSH2 0x100 EXP SWAP1 DIV PUSH20 0xFFFFFFFFFFFFFFFFFFFFFFFFFFFFFFFFFFFFFFFF AND SWAP1 POP SWAP2 SWAP1 POP JUMP JUMPDEST PUSH2 0xB77 PUSH2 0xB71 PUSH2 0x1A38 JUMP JUMPDEST DUP3 PUSH2 0x2088 JUMP JUMPDEST POP JUMP JUMPDEST PUSH1 0x0 PUSH2 0xBC7 PUSH1 0x8 PUSH1 0x0 DUP5 PUSH20 0xFFFFFFFFFFFFFFFFFFFFFFFFFFFFFFFFFFFFFFFF AND PUSH20 0xFFFFFFFFFFFFFFFFFFFFFFFFFFFFFFFFFFFFFFFF AND DUP2 MSTORE PUSH1 0x20 ADD SWAP1 DUP2 MSTORE PUSH1 0x20 ADD PUSH1 0x0 KECCAK256 DUP1 SLOAD SWAP1 POP PUSH2 0x16CC JUMP JUMPDEST SWAP1 POP SWAP2 SWAP1 POP JUMP JUMPDEST PUSH1 0x0 DUP1 PUSH1 0x0 DUP4 PUSH20 0xFFFFFFFFFFFFFFFFFFFFFFFFFFFFFFFFFFFFFFFF AND PUSH20 0xFFFFFFFFFFFFFFFFFFFFFFFFFFFFFFFFFFFFFFFF AND DUP2 MSTORE PUSH1 0x20 ADD SWAP1 DUP2 MSTORE PUSH1 0x20 ADD PUSH1 0x0 KECCAK256 SLOAD SWAP1 POP SWAP2 SWAP1 POP JUMP JUMPDEST PUSH2 0xC28 DUP3 PUSH2 0xC22 PUSH2 0x1A38 JUMP JUMPDEST DUP4 PUSH2 0x21A2 JUMP JUMPDEST PUSH2 0xC32 DUP3 DUP3 PUSH2 0x207A JUMP JUMPDEST POP POP JUMP JUMPDEST PUSH1 0x0 PUSH2 0xC7F PUSH1 0x5 PUSH1 0x0 DUP5 PUSH20 0xFFFFFFFFFFFFFFFFFFFFFFFFFFFFFFFFFFFFFFFF AND PUSH20 0xFFFFFFFFFFFFFFFFFFFFFFFFFFFFFFFFFFFFFFFF AND DUP2 MSTORE PUSH1 0x20 ADD SWAP1 DUP2 MSTORE PUSH1 0x20 ADD PUSH1 0x0 KECCAK256 PUSH2 0x222E JUMP JUMPDEST SWAP1 POP SWAP2 SWAP1 POP JUMP JUMPDEST PUSH32 0x0 DUP2 JUMP JUMPDEST PUSH1 0x0 NUMBER DUP3 LT PUSH2 0xCEE JUMPI PUSH1 0x40 MLOAD PUSH32 0x8C379A000000000000000000000000000000000000000000000000000000000 DUP2 MSTORE PUSH1 0x4 ADD PUSH2 0xCE5 SWAP1 PUSH2 0x3B7D JUMP JUMPDEST PUSH1 0x40 MLOAD DUP1 SWAP2 SUB SWAP1 REVERT JUMPDEST PUSH2 0xCF9 PUSH1 0x9 DUP4 PUSH2 0x1F29 JUMP JUMPDEST SWAP1 POP SWAP2 SWAP1 POP JUMP JUMPDEST PUSH1 0x0 PUSH1 0xA PUSH1 0x0 DUP5 DUP2 MSTORE PUSH1 0x20 ADD SWAP1 DUP2 MSTORE PUSH1 0x20 ADD PUSH1 0x0 KECCAK256 PUSH1 0x0 ADD PUSH1 0x0 DUP4 PUSH20 0xFFFFFFFFFFFFFFFFFFFFFFFFFFFFFFFFFFFFFFFF AND PUSH20 0xFFFFFFFFFFFFFFFFFFFFFFFFFFFFFFFFFFFFFFFF AND DUP2 MSTORE PUSH1 0x20 ADD SWAP1 DUP2 MSTORE PUSH1 0x20 ADD PUSH1 0x0 KECCAK256 PUSH1 0x0 SWAP1 SLOAD SWAP1 PUSH2 0x100 EXP SWAP1 DIV PUSH1 0xFF AND SWAP1 POP SWAP3 SWAP2 POP POP JUMP JUMPDEST PUSH1 0x60 PUSH1 0x4 DUP1 SLOAD PUSH2 0xD7A SWAP1 PUSH2 0x396B JUMP JUMPDEST DUP1 PUSH1 0x1F ADD PUSH1 0x20 DUP1 SWAP2 DIV MUL PUSH1 0x20 ADD PUSH1 0x40 MLOAD SWAP1 DUP2 ADD PUSH1 0x40 MSTORE DUP1 SWAP3 SWAP2 SWAP1 DUP2 DUP2 MSTORE PUSH1 0x20 ADD DUP3 DUP1 SLOAD PUSH2 0xDA6 SWAP1 PUSH2 0x396B JUMP JUMPDEST DUP1 ISZERO PUSH2 0xDF3 JUMPI DUP1 PUSH1 0x1F LT PUSH2 0xDC8 JUMPI PUSH2 0x100 DUP1 DUP4 SLOAD DIV MUL DUP4 MSTORE SWAP2 PUSH1 0x20 ADD SWAP2 PUSH2 0xDF3 JUMP JUMPDEST DUP3 ADD SWAP2 SWAP1 PUSH1 0x0 MSTORE PUSH1 0x20 PUSH1 0x0 KECCAK256 SWAP1 JUMPDEST DUP2 SLOAD DUP2 MSTORE SWAP1 PUSH1 0x1 ADD SWAP1 PUSH1 0x20 ADD DUP1 DUP4 GT PUSH2 0xDD6 JUMPI DUP3 SWAP1 SUB PUSH1 0x1F AND DUP3 ADD SWAP2 JUMPDEST POP POP POP POP POP SWAP1 POP SWAP1 JUMP JUMPDEST PUSH1 0x0 DUP1 PUSH1 0x8 PUSH1 0x0 DUP5 PUSH20 0xFFFFFFFFFFFFFFFFFFFFFFFFFFFFFFFFFFFFFFFF AND PUSH20 0xFFFFFFFFFFFFFFFFFFFFFFFFFFFFFFFFFFFFFFFF AND DUP2 MSTORE PUSH1 0x20 ADD SWAP1 DUP2 MSTORE PUSH1 0x20 ADD PUSH1 0x0 KECCAK256 DUP1 SLOAD SWAP1 POP SWAP1 POP PUSH1 0x0 DUP2 EQ PUSH2 0xEE5 JUMPI PUSH1 0x8 PUSH1 0x0 DUP5 PUSH20 0xFFFFFFFFFFFFFFFFFFFFFFFFFFFFFFFFFFFFFFFF AND PUSH20 0xFFFFFFFFFFFFFFFFFFFFFFFFFFFFFFFFFFFFFFFF AND DUP2 MSTORE PUSH1 0x20 ADD SWAP1 DUP2 MSTORE PUSH1 0x20 ADD PUSH1 0x0 KECCAK256 PUSH1 0x1 DUP3 PUSH2 0xE99 SWAP2 SWAP1 PUSH2 0x39CB JUMP JUMPDEST DUP2 SLOAD DUP2 LT PUSH2 0xEAA JUMPI PUSH2 0xEA9 PUSH2 0x3B9D JUMP JUMPDEST JUMPDEST SWAP1 PUSH1 0x0 MSTORE PUSH1 0x20 PUSH1 0x0 KECCAK256 ADD PUSH1 0x0 ADD PUSH1 0x4 SWAP1 SLOAD SWAP1 PUSH2 0x100 EXP SWAP1 DIV PUSH28 0xFFFFFFFFFFFFFFFFFFFFFFFFFFFFFFFFFFFFFFFFFFFFFFFFFFFFFFFF AND PUSH2 0xEE8 JUMP JUMPDEST PUSH1 0x0 JUMPDEST PUSH28 0xFFFFFFFFFFFFFFFFFFFFFFFFFFFFFFFFFFFFFFFFFFFFFFFFFFFFFFFF AND SWAP2 POP POP SWAP2 SWAP1 POP JUMP JUMPDEST PUSH1 0x0 DUP1 SHL DUP2 JUMP JUMPDEST PUSH1 0x0 DUP1 PUSH2 0xF20 PUSH2 0x1A38 JUMP JUMPDEST SWAP1 POP PUSH1 0x0 PUSH2 0xF2E DUP3 DUP7 PUSH2 0x12D1 JUMP JUMPDEST SWAP1 POP DUP4 DUP2 LT ISZERO PUSH2 0xF73 JUMPI PUSH1 0x40 MLOAD PUSH32 0x8C379A000000000000000000000000000000000000000000000000000000000 DUP2 MSTORE PUSH1 0x4 ADD PUSH2 0xF6A SWAP1 PUSH2 0x3C3E JUMP JUMPDEST PUSH1 0x40 MLOAD DUP1 SWAP2 SUB SWAP1 REVERT JUMPDEST PUSH2 0xF80 DUP3 DUP7 DUP7 DUP5 SUB PUSH2 0x1A40 JUMP JUMPDEST PUSH1 0x1 SWAP3 POP POP POP SWAP3 SWAP2 POP POP JUMP JUMPDEST PUSH1 0x0 PUSH2 0xFB8 PUSH32 0xE1DCBDB91DF27212A29BC27177C840CF2F819ECF2187432E1FAC86C2DD5DFCA9 CALLER PUSH2 0xD00 JUMP JUMPDEST ISZERO PUSH2 0x1034 JUMPI PUSH32 0x0 DUP3 PUSH2 0xFE8 ADDRESS PUSH2 0xBCE JUMP JUMPDEST PUSH2 0xFF2 SWAP2 SWAP1 PUSH2 0x39CB JUMP JUMPDEST LT ISZERO PUSH2 0x1033 JUMPI PUSH1 0x40 MLOAD PUSH32 0x8C379A000000000000000000000000000000000000000000000000000000000 DUP2 MSTORE PUSH1 0x4 ADD PUSH2 0x102A SWAP1 PUSH2 0x3A4B JUMP JUMPDEST PUSH1 0x40 MLOAD DUP1 SWAP2 SUB SWAP1 REVERT JUMPDEST JUMPDEST PUSH2 0x103E DUP4 DUP4 PUSH2 0x223C JUMP JUMPDEST SWAP1 POP SWAP3 SWAP2 POP POP JUMP JUMPDEST DUP4 TIMESTAMP GT ISZERO PUSH2 0x1089 JUMPI PUSH1 0x40 MLOAD PUSH32 0x8C379A000000000000000000000000000000000000000000000000000000000 DUP2 MSTORE PUSH1 0x4 ADD PUSH2 0x1080 SWAP1 PUSH2 0x3CAA JUMP JUMPDEST PUSH1 0x40 MLOAD DUP1 SWAP2 SUB SWAP1 REVERT JUMPDEST PUSH1 0x0 PUSH2 0x10EB PUSH2 0x10E3 PUSH32 0xE48329057BFD03D55E49B547132E39CFFD9C1820AD7B9D4C5307691425D15ADF DUP10 DUP10 DUP10 PUSH1 0x40 MLOAD PUSH1 0x20 ADD PUSH2 0x10C8 SWAP5 SWAP4 SWAP3 SWAP2 SWAP1 PUSH2 0x3CCA JUMP JUMPDEST PUSH1 0x40 MLOAD PUSH1 0x20 DUP2 DUP4 SUB SUB DUP2 MSTORE SWAP1 PUSH1 0x40 MSTORE DUP1 MLOAD SWAP1 PUSH1 0x20 ADD KECCAK256 PUSH2 0x225F JUMP JUMPDEST DUP6 DUP6 DUP6 PUSH2 0x2279 JUMP JUMPDEST SWAP1 POP PUSH2 0x10F6 DUP2 PUSH2 0x22A4 JUMP JUMPDEST DUP7 EQ PUSH2 0x1137 JUMPI PUSH1 0x40 MLOAD PUSH32 0x8C379A000000000000000000000000000000000000000000000000000000000 DUP2 MSTORE PUSH1 0x4 ADD PUSH2 0x112E SWAP1 PUSH2 0x3D5B JUMP JUMPDEST PUSH1 0x40 MLOAD DUP1 SWAP2 SUB SWAP1 REVERT JUMPDEST PUSH2 0x1141 DUP2 DUP9 PUSH2 0x2088 JUMP JUMPDEST POP POP POP POP POP POP POP JUMP JUMPDEST PUSH32 0xE1DCBDB91DF27212A29BC27177C840CF2F819ECF2187432E1FAC86C2DD5DFCA9 DUP2 JUMP JUMPDEST DUP4 TIMESTAMP GT ISZERO PUSH2 0x11B1 JUMPI PUSH1 0x40 MLOAD PUSH32 0x8C379A000000000000000000000000000000000000000000000000000000000 DUP2 MSTORE PUSH1 0x4 ADD PUSH2 0x11A8 SWAP1 PUSH2 0x3DC7 JUMP JUMPDEST PUSH1 0x40 MLOAD DUP1 SWAP2 SUB SWAP1 REVERT JUMPDEST PUSH1 0x0 PUSH32 0x6E71EDAE12B1B97F4D1F60370FEF10105FA2FAAE0126114A169C64845D6126C9 DUP9 DUP9 DUP9 PUSH2 0x11E0 DUP13 PUSH2 0x22A4 JUMP JUMPDEST DUP10 PUSH1 0x40 MLOAD PUSH1 0x20 ADD PUSH2 0x11F6 SWAP7 SWAP6 SWAP5 SWAP4 SWAP3 SWAP2 SWAP1 PUSH2 0x3DE7 JUMP JUMPDEST PUSH1 0x40 MLOAD PUSH1 0x20 DUP2 DUP4 SUB SUB DUP2 MSTORE SWAP1 PUSH1 0x40 MSTORE DUP1 MLOAD SWAP1 PUSH1 0x20 ADD KECCAK256 SWAP1 POP PUSH1 0x0 PUSH2 0x1219 DUP3 PUSH2 0x225F JUMP JUMPDEST SWAP1 POP PUSH1 0x0 PUSH2 0x1229 DUP3 DUP8 DUP8 DUP8 PUSH2 0x2279 JUMP JUMPDEST SWAP1 POP DUP10 PUSH20 0xFFFFFFFFFFFFFFFFFFFFFFFFFFFFFFFFFFFFFFFF AND DUP2 PUSH20 0xFFFFFFFFFFFFFFFFFFFFFFFFFFFFFFFFFFFFFFFF AND EQ PUSH2 0x1299 JUMPI PUSH1 0x40 MLOAD PUSH32 0x8C379A000000000000000000000000000000000000000000000000000000000 DUP2 MSTORE PUSH1 0x4 ADD PUSH2 0x1290 SWAP1 PUSH2 0x3E94 JUMP JUMPDEST PUSH1 0x40 MLOAD DUP1 SWAP2 SUB SWAP1 REVERT JUMPDEST PUSH2 0x12A4 DUP11 DUP11 DUP11 PUSH2 0x1A40 JUMP JUMPDEST POP POP POP POP POP POP POP POP POP POP JUMP JUMPDEST PUSH2 0x12B9 DUP3 PUSH2 0x91E JUMP JUMPDEST PUSH2 0x12C2 DUP2 PUSH2 0x1C38 JUMP JUMPDEST PUSH2 0x12CC DUP4 DUP4 PUSH2 0x1E47 JUMP JUMPDEST POP POP POP JUMP JUMPDEST PUSH1 0x0 PUSH1 0x1 PUSH1 0x0 DUP5 PUSH20 0xFFFFFFFFFFFFFFFFFFFFFFFFFFFFFFFFFFFFFFFF AND PUSH20 0xFFFFFFFFFFFFFFFFFFFFFFFFFFFFFFFFFFFFFFFF AND DUP2 MSTORE PUSH1 0x20 ADD SWAP1 DUP2 MSTORE PUSH1 0x20 ADD PUSH1 0x0 KECCAK256 PUSH1 0x0 DUP4 PUSH20 0xFFFFFFFFFFFFFFFFFFFFFFFFFFFFFFFFFFFFFFFF AND PUSH20 0xFFFFFFFFFFFFFFFFFFFFFFFFFFFFFFFFFFFFFFFF AND DUP2 MSTORE PUSH1 0x20 ADD SWAP1 DUP2 MSTORE PUSH1 0x20 ADD PUSH1 0x0 KECCAK256 SLOAD SWAP1 POP SWAP3 SWAP2 POP POP JUMP JUMPDEST PUSH2 0x1360 PUSH2 0x31E2 JUMP JUMPDEST PUSH1 0x8 PUSH1 0x0 DUP5 PUSH20 0xFFFFFFFFFFFFFFFFFFFFFFFFFFFFFFFFFFFFFFFF AND PUSH20 0xFFFFFFFFFFFFFFFFFFFFFFFFFFFFFFFFFFFFFFFF AND DUP2 MSTORE PUSH1 0x20 ADD SWAP1 DUP2 MSTORE PUSH1 0x20 ADD PUSH1 0x0 KECCAK256 DUP3 PUSH4 0xFFFFFFFF AND DUP2 SLOAD DUP2 LT PUSH2 0x13B7 JUMPI PUSH2 0x13B6 PUSH2 0x3B9D JUMP JUMPDEST JUMPDEST SWAP1 PUSH1 0x0 MSTORE PUSH1 0x20 PUSH1 0x0 KECCAK256 ADD PUSH1 0x40 MLOAD DUP1 PUSH1 0x40 ADD PUSH1 0x40 MSTORE SWAP1 DUP2 PUSH1 0x0 DUP3 ADD PUSH1 0x0 SWAP1 SLOAD SWAP1 PUSH2 0x100 EXP SWAP1 DIV PUSH4 0xFFFFFFFF AND PUSH4 0xFFFFFFFF AND PUSH4 0xFFFFFFFF AND DUP2 MSTORE PUSH1 0x20 ADD PUSH1 0x0 DUP3 ADD PUSH1 0x4 SWAP1 SLOAD SWAP1 PUSH2 0x100 EXP SWAP1 DIV PUSH28 0xFFFFFFFFFFFFFFFFFFFFFFFFFFFFFFFFFFFFFFFFFFFFFFFFFFFFFFFF AND PUSH28 0xFFFFFFFFFFFFFFFFFFFFFFFFFFFFFFFFFFFFFFFFFFFFFFFFFFFFFFFF AND PUSH28 0xFFFFFFFFFFFFFFFFFFFFFFFFFFFFFFFFFFFFFFFFFFFFFFFFFFFFFFFF AND DUP2 MSTORE POP POP SWAP1 POP SWAP3 SWAP2 POP POP JUMP JUMPDEST PUSH2 0x1472 DUP3 DUP3 PUSH2 0x14F5 JUMP JUMPDEST PUSH2 0x147A PUSH2 0x2302 JUMP JUMPDEST PUSH28 0xFFFFFFFFFFFFFFFFFFFFFFFFFFFFFFFFFFFFFFFFFFFFFFFFFFFFFFFF AND PUSH2 0x14A0 PUSH2 0x858 JUMP JUMPDEST GT ISZERO PUSH2 0x14E1 JUMPI PUSH1 0x40 MLOAD PUSH32 0x8C379A000000000000000000000000000000000000000000000000000000000 DUP2 MSTORE PUSH1 0x4 ADD PUSH2 0x14D8 SWAP1 PUSH2 0x3F26 JUMP JUMPDEST PUSH1 0x40 MLOAD DUP1 SWAP2 SUB SWAP1 REVERT JUMPDEST PUSH2 0x14EF PUSH1 0x9 PUSH2 0x164B DUP4 PUSH2 0x2326 JUMP JUMPDEST POP POP POP POP JUMP JUMPDEST PUSH1 0x0 PUSH20 0xFFFFFFFFFFFFFFFFFFFFFFFFFFFFFFFFFFFFFFFF AND DUP3 PUSH20 0xFFFFFFFFFFFFFFFFFFFFFFFFFFFFFFFFFFFFFFFF AND SUB PUSH2 0x1564 JUMPI PUSH1 0x40 MLOAD PUSH32 0x8C379A000000000000000000000000000000000000000000000000000000000 DUP2 MSTORE PUSH1 0x4 ADD PUSH2 0x155B SWAP1 PUSH2 0x3F92 JUMP JUMPDEST PUSH1 0x40 MLOAD DUP1 SWAP2 SUB SWAP1 REVERT JUMPDEST PUSH2 0x1570 PUSH1 0x0 DUP4 DUP4 PUSH2 0x25F5 JUMP JUMPDEST DUP1 PUSH1 0x2 PUSH1 0x0 DUP3 DUP3 SLOAD PUSH2 0x1582 SWAP2 SWAP1 PUSH2 0x3AFD JUMP JUMPDEST SWAP3 POP POP DUP2 SWAP1 SSTORE POP DUP1 PUSH1 0x0 DUP1 DUP5 PUSH20 0xFFFFFFFFFFFFFFFFFFFFFFFFFFFFFFFFFFFFFFFF AND PUSH20 0xFFFFFFFFFFFFFFFFFFFFFFFFFFFFFFFFFFFFFFFF AND DUP2 MSTORE PUSH1 0x20 ADD SWAP1 DUP2 MSTORE PUSH1 0x20 ADD PUSH1 0x0 KECCAK256 PUSH1 0x0 DUP3 DUP3 SLOAD ADD SWAP3 POP POP DUP2 SWAP1 SSTORE POP DUP2 PUSH20 0xFFFFFFFFFFFFFFFFFFFFFFFFFFFFFFFFFFFFFFFF AND PUSH1 0x0 PUSH20 0xFFFFFFFFFFFFFFFFFFFFFFFFFFFFFFFFFFFFFFFF AND PUSH32 0xDDF252AD1BE2C89B69C2B068FC378DAA952BA7F163C4A11628F55A4DF523B3EF DUP4 PUSH1 0x40 MLOAD PUSH2 0x1633 SWAP2 SWAP1 PUSH2 0x3475 JUMP JUMPDEST PUSH1 0x40 MLOAD DUP1 SWAP2 SUB SWAP1 LOG3 PUSH2 0x1647 PUSH1 0x0 DUP4 DUP4 PUSH2 0x25FA JUMP JUMPDEST POP POP JUMP JUMPDEST PUSH1 0x0 DUP2 DUP4 PUSH2 0x1659 SWAP2 SWAP1 PUSH2 0x3AFD JUMP JUMPDEST SWAP1 POP SWAP3 SWAP2 POP POP JUMP JUMPDEST PUSH1 0x0 PUSH28 0xFFFFFFFFFFFFFFFFFFFFFFFFFFFFFFFFFFFFFFFFFFFFFFFFFFFFFFFF DUP1 AND DUP3 GT ISZERO PUSH2 0x16C4 JUMPI PUSH1 0x40 MLOAD PUSH32 0x8C379A000000000000000000000000000000000000000000000000000000000 DUP2 MSTORE PUSH1 0x4 ADD PUSH2 0x16BB SWAP1 PUSH2 0x4024 JUMP JUMPDEST PUSH1 0x40 MLOAD DUP1 SWAP2 SUB SWAP1 REVERT JUMPDEST DUP2 SWAP1 POP SWAP2 SWAP1 POP JUMP JUMPDEST PUSH1 0x0 PUSH4 0xFFFFFFFF DUP1 AND DUP3 GT ISZERO PUSH2 0x1717 JUMPI PUSH1 0x40 MLOAD PUSH32 0x8C379A000000000000000000000000000000000000000000000000000000000 DUP2 MSTORE PUSH1 0x4 ADD PUSH2 0x170E SWAP1 PUSH2 0x40B6 JUMP JUMPDEST PUSH1 0x40 MLOAD DUP1 SWAP2 SUB SWAP1 REVERT JUMPDEST DUP2 SWAP1 POP SWAP2 SWAP1 POP JUMP JUMPDEST PUSH2 0x172A DUP4 DUP4 DUP4 PUSH2 0x19B3 JUMP JUMPDEST PUSH2 0x1745 PUSH2 0x1736 DUP5 PUSH2 0xAFD JUMP JUMPDEST PUSH2 0x173F DUP5 PUSH2 0xAFD JUMP JUMPDEST DUP4 PUSH2 0x260A JUMP JUMPDEST POP POP POP JUMP JUMPDEST PUSH1 0x60 PUSH2 0x1770 DUP3 PUSH20 0xFFFFFFFFFFFFFFFFFFFFFFFFFFFFFFFFFFFFFFFF AND PUSH1 0x14 PUSH1 0xFF AND PUSH2 0x1777 JUMP JUMPDEST SWAP1 POP SWAP2 SWAP1 POP JUMP JUMPDEST PUSH1 0x60 PUSH1 0x0 PUSH1 0x2 DUP4 PUSH1 0x2 PUSH2 0x178A SWAP2 SWAP1 PUSH2 0x40D6 JUMP JUMPDEST PUSH2 0x1794 SWAP2 SWAP1 PUSH2 0x3AFD JUMP JUMPDEST PUSH8 0xFFFFFFFFFFFFFFFF DUP2 GT ISZERO PUSH2 0x17AD JUMPI PUSH2 0x17AC PUSH2 0x4118 JUMP JUMPDEST JUMPDEST PUSH1 0x40 MLOAD SWAP1 DUP1 DUP3 MSTORE DUP1 PUSH1 0x1F ADD PUSH1 0x1F NOT AND PUSH1 0x20 ADD DUP3 ADD PUSH1 0x40 MSTORE DUP1 ISZERO PUSH2 0x17DF JUMPI DUP2 PUSH1 0x20 ADD PUSH1 0x1 DUP3 MUL DUP1 CALLDATASIZE DUP4 CALLDATACOPY DUP1 DUP3 ADD SWAP2 POP POP SWAP1 POP JUMPDEST POP SWAP1 POP PUSH32 0x3000000000000000000000000000000000000000000000000000000000000000 DUP2 PUSH1 0x0 DUP2 MLOAD DUP2 LT PUSH2 0x1817 JUMPI PUSH2 0x1816 PUSH2 0x3B9D JUMP JUMPDEST JUMPDEST PUSH1 0x20 ADD ADD SWAP1 PUSH31 0xFFFFFFFFFFFFFFFFFFFFFFFFFFFFFFFFFFFFFFFFFFFFFFFFFFFFFFFFFFFFFF NOT AND SWAP1 DUP2 PUSH1 0x0 BYTE SWAP1 MSTORE8 POP PUSH32 0x7800000000000000000000000000000000000000000000000000000000000000 DUP2 PUSH1 0x1 DUP2 MLOAD DUP2 LT PUSH2 0x187B JUMPI PUSH2 0x187A PUSH2 0x3B9D JUMP JUMPDEST JUMPDEST PUSH1 0x20 ADD ADD SWAP1 PUSH31 0xFFFFFFFFFFFFFFFFFFFFFFFFFFFFFFFFFFFFFFFFFFFFFFFFFFFFFFFFFFFFFF NOT AND SWAP1 DUP2 PUSH1 0x0 BYTE SWAP1 MSTORE8 POP PUSH1 0x0 PUSH1 0x1 DUP5 PUSH1 0x2 PUSH2 0x18BB SWAP2 SWAP1 PUSH2 0x40D6 JUMP JUMPDEST PUSH2 0x18C5 SWAP2 SWAP1 PUSH2 0x3AFD JUMP JUMPDEST SWAP1 POP JUMPDEST PUSH1 0x1 DUP2 GT ISZERO PUSH2 0x1965 JUMPI PUSH32 0x3031323334353637383961626364656600000000000000000000000000000000 PUSH1 0xF DUP7 AND PUSH1 0x10 DUP2 LT PUSH2 0x1907 JUMPI PUSH2 0x1906 PUSH2 0x3B9D JUMP JUMPDEST JUMPDEST BYTE PUSH1 0xF8 SHL DUP3 DUP3 DUP2 MLOAD DUP2 LT PUSH2 0x191E JUMPI PUSH2 0x191D PUSH2 0x3B9D JUMP JUMPDEST JUMPDEST PUSH1 0x20 ADD ADD SWAP1 PUSH31 0xFFFFFFFFFFFFFFFFFFFFFFFFFFFFFFFFFFFFFFFFFFFFFFFFFFFFFFFFFFFFFF NOT AND SWAP1 DUP2 PUSH1 0x0 BYTE SWAP1 MSTORE8 POP PUSH1 0x4 DUP6 SWAP1 SHR SWAP5 POP DUP1 PUSH2 0x195E SWAP1 PUSH2 0x4147 JUMP JUMPDEST SWAP1 POP PUSH2 0x18C8 JUMP JUMPDEST POP PUSH1 0x0 DUP5 EQ PUSH2 0x19A9 JUMPI PUSH1 0x40 MLOAD PUSH32 0x8C379A000000000000000000000000000000000000000000000000000000000 DUP2 MSTORE PUSH1 0x4 ADD PUSH2 0x19A0 SWAP1 PUSH2 0x41BC JUMP JUMPDEST PUSH1 0x40 MLOAD DUP1 SWAP2 SUB SWAP1 REVERT JUMPDEST DUP1 SWAP2 POP POP SWAP3 SWAP2 POP POP JUMP JUMPDEST POP POP POP JUMP JUMPDEST PUSH1 0x0 DUP2 DUP4 PUSH2 0x19C6 SWAP2 SWAP1 PUSH2 0x39CB JUMP JUMPDEST SWAP1 POP SWAP3 SWAP2 POP POP JUMP JUMPDEST PUSH1 0x0 PUSH32 0x1FFC9A700000000000000000000000000000000000000000000000000000000 PUSH28 0xFFFFFFFFFFFFFFFFFFFFFFFFFFFFFFFFFFFFFFFFFFFFFFFFFFFFFFFF NOT AND DUP3 PUSH28 0xFFFFFFFFFFFFFFFFFFFFFFFFFFFFFFFFFFFFFFFFFFFFFFFFFFFFFFFF NOT AND EQ SWAP1 POP SWAP2 SWAP1 POP JUMP JUMPDEST PUSH1 0x0 CALLER SWAP1 POP SWAP1 JUMP JUMPDEST PUSH1 0x0 PUSH20 0xFFFFFFFFFFFFFFFFFFFFFFFFFFFFFFFFFFFFFFFF AND DUP4 PUSH20 0xFFFFFFFFFFFFFFFFFFFFFFFFFFFFFFFFFFFFFFFF AND SUB PUSH2 0x1AAF JUMPI PUSH1 0x40 MLOAD PUSH32 0x8C379A000000000000000000000000000000000000000000000000000000000 DUP2 MSTORE PUSH1 0x4 ADD PUSH2 0x1AA6 SWAP1 PUSH2 0x424E JUMP JUMPDEST PUSH1 0x40 MLOAD DUP1 SWAP2 SUB SWAP1 REVERT JUMPDEST PUSH1 0x0 PUSH20 0xFFFFFFFFFFFFFFFFFFFFFFFFFFFFFFFFFFFFFFFF AND DUP3 PUSH20 0xFFFFFFFFFFFFFFFFFFFFFFFFFFFFFFFFFFFFFFFF AND SUB PUSH2 0x1B1E JUMPI PUSH1 0x40 MLOAD PUSH32 0x8C379A000000000000000000000000000000000000000000000000000000000 DUP2 MSTORE PUSH1 0x4 ADD PUSH2 0x1B15 SWAP1 PUSH2 0x42E0 JUMP JUMPDEST PUSH1 0x40 MLOAD DUP1 SWAP2 SUB SWAP1 REVERT JUMPDEST DUP1 PUSH1 0x1 PUSH1 0x0 DUP6 PUSH20 0xFFFFFFFFFFFFFFFFFFFFFFFFFFFFFFFFFFFFFFFF AND PUSH20 0xFFFFFFFFFFFFFFFFFFFFFFFFFFFFFFFFFFFFFFFF AND DUP2 MSTORE PUSH1 0x20 ADD SWAP1 DUP2 MSTORE PUSH1 0x20 ADD PUSH1 0x0 KECCAK256 PUSH1 0x0 DUP5 PUSH20 0xFFFFFFFFFFFFFFFFFFFFFFFFFFFFFFFFFFFFFFFF AND PUSH20 0xFFFFFFFFFFFFFFFFFFFFFFFFFFFFFFFFFFFFFFFF AND DUP2 MSTORE PUSH1 0x20 ADD SWAP1 DUP2 MSTORE PUSH1 0x20 ADD PUSH1 0x0 KECCAK256 DUP2 SWAP1 SSTORE POP DUP2 PUSH20 0xFFFFFFFFFFFFFFFFFFFFFFFFFFFFFFFFFFFFFFFF AND DUP4 PUSH20 0xFFFFFFFFFFFFFFFFFFFFFFFFFFFFFFFFFFFFFFFF AND PUSH32 0x8C5BE1E5EBEC7D5BD14F71427D1E84F3DD0314C0F7B2291E5B200AC8C7C3B925 DUP4 PUSH1 0x40 MLOAD PUSH2 0x1BFC SWAP2 SWAP1 PUSH2 0x3475 JUMP JUMPDEST PUSH1 0x40 MLOAD DUP1 SWAP2 SUB SWAP1 LOG3 POP POP POP JUMP JUMPDEST PUSH1 0x0 DUP1 PUSH2 0x1C14 PUSH2 0x1A38 JUMP JUMPDEST SWAP1 POP PUSH2 0x1C21 DUP6 DUP3 DUP6 PUSH2 0x21A2 JUMP JUMPDEST PUSH2 0x1C2C DUP6 DUP6 DUP6 PUSH2 0x2803 JUMP JUMPDEST PUSH1 0x1 SWAP2 POP POP SWAP4 SWAP3 POP POP POP JUMP JUMPDEST PUSH2 0x1C49 DUP2 PUSH2 0x1C44 PUSH2 0x1A38 JUMP JUMPDEST PUSH2 0x2A79 JUMP JUMPDEST POP JUMP JUMPDEST PUSH2 0x1C56 DUP3 DUP3 PUSH2 0xD00 JUMP JUMPDEST PUSH2 0x1D29 JUMPI PUSH1 0x1 PUSH1 0xA PUSH1 0x0 DUP5 DUP2 MSTORE PUSH1 0x20 ADD SWAP1 DUP2 MSTORE PUSH1 0x20 ADD PUSH1 0x0 KECCAK256 PUSH1 0x0 ADD PUSH1 0x0 DUP4 PUSH20 0xFFFFFFFFFFFFFFFFFFFFFFFFFFFFFFFFFFFFFFFF AND PUSH20 0xFFFFFFFFFFFFFFFFFFFFFFFFFFFFFFFFFFFFFFFF AND DUP2 MSTORE PUSH1 0x20 ADD SWAP1 DUP2 MSTORE PUSH1 0x20 ADD PUSH1 0x0 KECCAK256 PUSH1 0x0 PUSH2 0x100 EXP DUP2 SLOAD DUP2 PUSH1 0xFF MUL NOT AND SWAP1 DUP4 ISZERO ISZERO MUL OR SWAP1 SSTORE POP PUSH2 0x1CCE PUSH2 0x1A38 JUMP JUMPDEST PUSH20 0xFFFFFFFFFFFFFFFFFFFFFFFFFFFFFFFFFFFFFFFF AND DUP2 PUSH20 0xFFFFFFFFFFFFFFFFFFFFFFFFFFFFFFFFFFFFFFFF AND DUP4 PUSH32 0x2F8788117E7EFF1D82E926EC794901D17C78024A50270940304540A733656F0D PUSH1 0x40 MLOAD PUSH1 0x40 MLOAD DUP1 SWAP2 SUB SWAP1 LOG4 JUMPDEST POP POP JUMP JUMPDEST PUSH1 0x0 PUSH32 0x0 PUSH20 0xFFFFFFFFFFFFFFFFFFFFFFFFFFFFFFFFFFFFFFFF AND ADDRESS PUSH20 0xFFFFFFFFFFFFFFFFFFFFFFFFFFFFFFFFFFFFFFFF AND EQ DUP1 ISZERO PUSH2 0x1DA9 JUMPI POP PUSH32 0x0 CHAINID EQ JUMPDEST ISZERO PUSH2 0x1DD6 JUMPI PUSH32 0x0 SWAP1 POP PUSH2 0x1E44 JUMP JUMPDEST PUSH2 0x1E41 PUSH32 0x0 PUSH32 0x0 PUSH32 0x0 PUSH2 0x2AFE JUMP JUMPDEST SWAP1 POP JUMPDEST SWAP1 JUMP JUMPDEST PUSH2 0x1E51 DUP3 DUP3 PUSH2 0xD00 JUMP JUMPDEST ISZERO PUSH2 0x1F25 JUMPI PUSH1 0x0 PUSH1 0xA PUSH1 0x0 DUP5 DUP2 MSTORE PUSH1 0x20 ADD SWAP1 DUP2 MSTORE PUSH1 0x20 ADD PUSH1 0x0 KECCAK256 PUSH1 0x0 ADD PUSH1 0x0 DUP4 PUSH20 0xFFFFFFFFFFFFFFFFFFFFFFFFFFFFFFFFFFFFFFFF AND PUSH20 0xFFFFFFFFFFFFFFFFFFFFFFFFFFFFFFFFFFFFFFFF AND DUP2 MSTORE PUSH1 0x20 ADD SWAP1 DUP2 MSTORE PUSH1 0x20 ADD PUSH1 0x0 KECCAK256 PUSH1 0x0 PUSH2 0x100 EXP DUP2 SLOAD DUP2 PUSH1 0xFF MUL NOT AND SWAP1 DUP4 ISZERO ISZERO MUL OR SWAP1 SSTORE POP PUSH2 0x1ECA PUSH2 0x1A38 JUMP JUMPDEST PUSH20 0xFFFFFFFFFFFFFFFFFFFFFFFFFFFFFFFFFFFFFFFF AND DUP2 PUSH20 0xFFFFFFFFFFFFFFFFFFFFFFFFFFFFFFFFFFFFFFFF AND DUP4 PUSH32 0xF6391F5C32D9C69D2A47EA670B442974B53935D1EDC7FD64EB21E047A839171B PUSH1 0x40 MLOAD PUSH1 0x40 MLOAD DUP1 SWAP2 SUB SWAP1 LOG4 JUMPDEST POP POP JUMP JUMPDEST PUSH1 0x0 DUP1 DUP4 DUP1 SLOAD SWAP1 POP SWAP1 POP PUSH1 0x0 DUP1 DUP3 SWAP1 POP PUSH1 0x5 DUP4 GT ISZERO PUSH2 0x1F9F JUMPI PUSH1 0x0 PUSH2 0x1F4D DUP5 PUSH2 0x2B38 JUMP JUMPDEST DUP5 PUSH2 0x1F58 SWAP2 SWAP1 PUSH2 0x39CB JUMP JUMPDEST SWAP1 POP DUP6 PUSH2 0x1F65 DUP9 DUP4 PUSH2 0x2C31 JUMP JUMPDEST PUSH1 0x0 ADD PUSH1 0x0 SWAP1 SLOAD SWAP1 PUSH2 0x100 EXP SWAP1 DIV PUSH4 0xFFFFFFFF AND PUSH4 0xFFFFFFFF AND GT ISZERO PUSH2 0x1F8D JUMPI DUP1 SWAP2 POP PUSH2 0x1F9D JUMP JUMPDEST PUSH1 0x1 DUP2 PUSH2 0x1F9A SWAP2 SWAP1 PUSH2 0x3AFD JUMP JUMPDEST SWAP3 POP JUMPDEST POP JUMPDEST JUMPDEST DUP1 DUP3 LT ISZERO PUSH2 0x1FFF JUMPI PUSH1 0x0 PUSH2 0x1FB4 DUP4 DUP4 PUSH2 0x2C46 JUMP JUMPDEST SWAP1 POP DUP6 PUSH2 0x1FC1 DUP9 DUP4 PUSH2 0x2C31 JUMP JUMPDEST PUSH1 0x0 ADD PUSH1 0x0 SWAP1 SLOAD SWAP1 PUSH2 0x100 EXP SWAP1 DIV PUSH4 0xFFFFFFFF AND PUSH4 0xFFFFFFFF AND GT ISZERO PUSH2 0x1FE9 JUMPI DUP1 SWAP2 POP PUSH2 0x1FF9 JUMP JUMPDEST PUSH1 0x1 DUP2 PUSH2 0x1FF6 SWAP2 SWAP1 PUSH2 0x3AFD JUMP JUMPDEST SWAP3 POP JUMPDEST POP PUSH2 0x1FA0 JUMP JUMPDEST PUSH1 0x0 DUP2 EQ PUSH2 0x204E JUMPI PUSH2 0x201D DUP7 PUSH1 0x1 DUP4 PUSH2 0x2018 SWAP2 SWAP1 PUSH2 0x39CB JUMP JUMPDEST PUSH2 0x2C31 JUMP JUMPDEST PUSH1 0x0 ADD PUSH1 0x4 SWAP1 SLOAD SWAP1 PUSH2 0x100 EXP SWAP1 DIV PUSH28 0xFFFFFFFFFFFFFFFFFFFFFFFFFFFFFFFFFFFFFFFFFFFFFFFFFFFFFFFF AND PUSH2 0x2051 JUMP JUMPDEST PUSH1 0x0 JUMPDEST PUSH28 0xFFFFFFFFFFFFFFFFFFFFFFFFFFFFFFFFFFFFFFFFFFFFFFFFFFFFFFFF AND SWAP4 POP POP POP POP SWAP3 SWAP2 POP POP JUMP JUMPDEST PUSH2 0x2084 DUP3 DUP3 PUSH2 0x2C6C JUMP JUMPDEST POP POP JUMP JUMPDEST PUSH1 0x0 PUSH2 0x2093 DUP4 PUSH2 0xAFD JUMP JUMPDEST SWAP1 POP PUSH1 0x0 PUSH2 0x20A0 DUP5 PUSH2 0xBCE JUMP JUMPDEST SWAP1 POP DUP3 PUSH1 0x7 PUSH1 0x0 DUP7 PUSH20 0xFFFFFFFFFFFFFFFFFFFFFFFFFFFFFFFFFFFFFFFF AND PUSH20 0xFFFFFFFFFFFFFFFFFFFFFFFFFFFFFFFFFFFFFFFF AND DUP2 MSTORE PUSH1 0x20 ADD SWAP1 DUP2 MSTORE PUSH1 0x20 ADD PUSH1 0x0 KECCAK256 PUSH1 0x0 PUSH2 0x100 EXP DUP2 SLOAD DUP2 PUSH20 0xFFFFFFFFFFFFFFFFFFFFFFFFFFFFFFFFFFFFFFFF MUL NOT AND SWAP1 DUP4 PUSH20 0xFFFFFFFFFFFFFFFFFFFFFFFFFFFFFFFFFFFFFFFF AND MUL OR SWAP1 SSTORE POP DUP3 PUSH20 0xFFFFFFFFFFFFFFFFFFFFFFFFFFFFFFFFFFFFFFFF AND DUP3 PUSH20 0xFFFFFFFFFFFFFFFFFFFFFFFFFFFFFFFFFFFFFFFF AND DUP6 PUSH20 0xFFFFFFFFFFFFFFFFFFFFFFFFFFFFFFFFFFFFFFFF AND PUSH32 0x3134E8A2E6D97E929A7E54011EA5485D7D196DD5F0BA4D4EF95803E8E3FC257F PUSH1 0x40 MLOAD PUSH1 0x40 MLOAD DUP1 SWAP2 SUB SWAP1 LOG4 PUSH2 0x219C DUP3 DUP5 DUP4 PUSH2 0x260A JUMP JUMPDEST POP POP POP POP JUMP JUMPDEST PUSH1 0x0 PUSH2 0x21AE DUP5 DUP5 PUSH2 0x12D1 JUMP JUMPDEST SWAP1 POP PUSH32 0xFFFFFFFFFFFFFFFFFFFFFFFFFFFFFFFFFFFFFFFFFFFFFFFFFFFFFFFFFFFFFFFF DUP2 EQ PUSH2 0x2228 JUMPI DUP2 DUP2 LT ISZERO PUSH2 0x221A JUMPI PUSH1 0x40 MLOAD PUSH32 0x8C379A000000000000000000000000000000000000000000000000000000000 DUP2 MSTORE PUSH1 0x4 ADD PUSH2 0x2211 SWAP1 PUSH2 0x434C JUMP JUMPDEST PUSH1 0x40 MLOAD DUP1 SWAP2 SUB SWAP1 REVERT JUMPDEST PUSH2 0x2227 DUP5 DUP5 DUP5 DUP5 SUB PUSH2 0x1A40 JUMP JUMPDEST JUMPDEST POP POP POP POP JUMP JUMPDEST PUSH1 0x0 DUP2 PUSH1 0x0 ADD SLOAD SWAP1 POP SWAP2 SWAP1 POP JUMP JUMPDEST PUSH1 0x0 DUP1 PUSH2 0x2247 PUSH2 0x1A38 JUMP JUMPDEST SWAP1 POP PUSH2 0x2254 DUP2 DUP6 DUP6 PUSH2 0x2803 JUMP JUMPDEST PUSH1 0x1 SWAP2 POP POP SWAP3 SWAP2 POP POP JUMP JUMPDEST PUSH1 0x0 PUSH2 0x2272 PUSH2 0x226C PUSH2 0x1D2D JUMP JUMPDEST DUP4 PUSH2 0x2C8A JUMP JUMPDEST SWAP1 POP SWAP2 SWAP1 POP JUMP JUMPDEST PUSH1 0x0 DUP1 PUSH1 0x0 PUSH2 0x228A DUP8 DUP8 DUP8 DUP8 PUSH2 0x2CBD JUMP JUMPDEST SWAP2 POP SWAP2 POP PUSH2 0x2297 DUP2 PUSH2 0x2D9F JUMP JUMPDEST DUP2 SWAP3 POP POP POP SWAP5 SWAP4 POP POP POP POP JUMP JUMPDEST PUSH1 0x0 DUP1 PUSH1 0x5 PUSH1 0x0 DUP5 PUSH20 0xFFFFFFFFFFFFFFFFFFFFFFFFFFFFFFFFFFFFFFFF AND PUSH20 0xFFFFFFFFFFFFFFFFFFFFFFFFFFFFFFFFFFFFFFFF AND DUP2 MSTORE PUSH1 0x20 ADD SWAP1 DUP2 MSTORE PUSH1 0x20 ADD PUSH1 0x0 KECCAK256 SWAP1 POP PUSH2 0x22F1 DUP2 PUSH2 0x222E JUMP JUMPDEST SWAP2 POP PUSH2 0x22FC DUP2 PUSH2 0x2F05 JUMP JUMPDEST POP SWAP2 SWAP1 POP JUMP JUMPDEST PUSH1 0x0 PUSH28 0xFFFFFFFFFFFFFFFFFFFFFFFFFFFFFFFFFFFFFFFFFFFFFFFFFFFFFFFF SWAP1 POP SWAP1 JUMP JUMPDEST PUSH1 0x0 DUP1 PUSH1 0x0 DUP6 DUP1 SLOAD SWAP1 POP SWAP1 POP PUSH1 0x0 DUP1 DUP3 EQ PUSH2 0x23F5 JUMPI PUSH2 0x2351 DUP8 PUSH1 0x1 DUP5 PUSH2 0x234C SWAP2 SWAP1 PUSH2 0x39CB JUMP JUMPDEST PUSH2 0x2C31 JUMP JUMPDEST PUSH1 0x40 MLOAD DUP1 PUSH1 0x40 ADD PUSH1 0x40 MSTORE SWAP1 DUP2 PUSH1 0x0 DUP3 ADD PUSH1 0x0 SWAP1 SLOAD SWAP1 PUSH2 0x100 EXP SWAP1 DIV PUSH4 0xFFFFFFFF AND PUSH4 0xFFFFFFFF AND PUSH4 0xFFFFFFFF AND DUP2 MSTORE PUSH1 0x20 ADD PUSH1 0x0 DUP3 ADD PUSH1 0x4 SWAP1 SLOAD SWAP1 PUSH2 0x100 EXP SWAP1 DIV PUSH28 0xFFFFFFFFFFFFFFFFFFFFFFFFFFFFFFFFFFFFFFFFFFFFFFFFFFFFFFFF AND PUSH28 0xFFFFFFFFFFFFFFFFFFFFFFFFFFFFFFFFFFFFFFFFFFFFFFFFFFFFFFFF AND PUSH28 0xFFFFFFFFFFFFFFFFFFFFFFFFFFFFFFFFFFFFFFFFFFFFFFFFFFFFFFFF AND DUP2 MSTORE POP POP PUSH2 0x2431 JUMP JUMPDEST PUSH1 0x40 MLOAD DUP1 PUSH1 0x40 ADD PUSH1 0x40 MSTORE DUP1 PUSH1 0x0 PUSH4 0xFFFFFFFF AND DUP2 MSTORE PUSH1 0x20 ADD PUSH1 0x0 PUSH28 0xFFFFFFFFFFFFFFFFFFFFFFFFFFFFFFFFFFFFFFFFFFFFFFFFFFFFFFFF AND DUP2 MSTORE POP JUMPDEST SWAP1 POP DUP1 PUSH1 0x20 ADD MLOAD PUSH28 0xFFFFFFFFFFFFFFFFFFFFFFFFFFFFFFFFFFFFFFFFFFFFFFFFFFFFFFFF AND SWAP4 POP PUSH2 0x2466 DUP5 DUP7 DUP9 PUSH4 0xFFFFFFFF AND JUMP JUMPDEST SWAP3 POP PUSH1 0x0 DUP3 GT DUP1 ISZERO PUSH2 0x2481 JUMPI POP NUMBER DUP2 PUSH1 0x0 ADD MLOAD PUSH4 0xFFFFFFFF AND EQ JUMPDEST ISZERO PUSH2 0x24FB JUMPI PUSH2 0x248F DUP4 PUSH2 0x1661 JUMP JUMPDEST PUSH2 0x24A5 DUP9 PUSH1 0x1 DUP6 PUSH2 0x24A0 SWAP2 SWAP1 PUSH2 0x39CB JUMP JUMPDEST PUSH2 0x2C31 JUMP JUMPDEST PUSH1 0x0 ADD PUSH1 0x4 PUSH2 0x100 EXP DUP2 SLOAD DUP2 PUSH28 0xFFFFFFFFFFFFFFFFFFFFFFFFFFFFFFFFFFFFFFFFFFFFFFFFFFFFFFFF MUL NOT AND SWAP1 DUP4 PUSH28 0xFFFFFFFFFFFFFFFFFFFFFFFFFFFFFFFFFFFFFFFFFFFFFFFFFFFFFFFF AND MUL OR SWAP1 SSTORE POP PUSH2 0x25EB JUMP JUMPDEST DUP7 PUSH1 0x40 MLOAD DUP1 PUSH1 0x40 ADD PUSH1 0x40 MSTORE DUP1 PUSH2 0x2510 NUMBER PUSH2 0x16CC JUMP JUMPDEST PUSH4 0xFFFFFFFF AND DUP2 MSTORE PUSH1 0x20 ADD PUSH2 0x2524 DUP7 PUSH2 0x1661 JUMP JUMPDEST PUSH28 0xFFFFFFFFFFFFFFFFFFFFFFFFFFFFFFFFFFFFFFFFFFFFFFFFFFFFFFFF AND DUP2 MSTORE POP SWAP1 DUP1 PUSH1 0x1 DUP2 SLOAD ADD DUP1 DUP3 SSTORE DUP1 SWAP2 POP POP PUSH1 0x1 SWAP1 SUB SWAP1 PUSH1 0x0 MSTORE PUSH1 0x20 PUSH1 0x0 KECCAK256 ADD PUSH1 0x0 SWAP1 SWAP2 SWAP1 SWAP2 SWAP1 SWAP2 POP PUSH1 0x0 DUP3 ADD MLOAD DUP2 PUSH1 0x0 ADD PUSH1 0x0 PUSH2 0x100 EXP DUP2 SLOAD DUP2 PUSH4 0xFFFFFFFF MUL NOT AND SWAP1 DUP4 PUSH4 0xFFFFFFFF AND MUL OR SWAP1 SSTORE POP PUSH1 0x20 DUP3 ADD MLOAD DUP2 PUSH1 0x0 ADD PUSH1 0x4 PUSH2 0x100 EXP DUP2 SLOAD DUP2 PUSH28 0xFFFFFFFFFFFFFFFFFFFFFFFFFFFFFFFFFFFFFFFFFFFFFFFFFFFFFFFF MUL NOT AND SWAP1 DUP4 PUSH28 0xFFFFFFFFFFFFFFFFFFFFFFFFFFFFFFFFFFFFFFFFFFFFFFFFFFFFFFFF AND MUL OR SWAP1 SSTORE POP POP POP JUMPDEST POP POP SWAP4 POP SWAP4 SWAP2 POP POP JUMP JUMPDEST POP POP POP JUMP JUMPDEST PUSH2 0x2605 DUP4 DUP4 DUP4 PUSH2 0x171F JUMP JUMPDEST POP POP POP JUMP JUMPDEST DUP2 PUSH20 0xFFFFFFFFFFFFFFFFFFFFFFFFFFFFFFFFFFFFFFFF AND DUP4 PUSH20 0xFFFFFFFFFFFFFFFFFFFFFFFFFFFFFFFFFFFFFFFF AND EQ ISZERO DUP1 ISZERO PUSH2 0x2646 JUMPI POP PUSH1 0x0 DUP2 GT JUMPDEST ISZERO PUSH2 0x27FE JUMPI PUSH1 0x0 PUSH20 0xFFFFFFFFFFFFFFFFFFFFFFFFFFFFFFFFFFFFFFFF AND DUP4 PUSH20 0xFFFFFFFFFFFFFFFFFFFFFFFFFFFFFFFFFFFFFFFF AND EQ PUSH2 0x2724 JUMPI PUSH1 0x0 DUP1 PUSH2 0x26CD PUSH1 0x8 PUSH1 0x0 DUP8 PUSH20 0xFFFFFFFFFFFFFFFFFFFFFFFFFFFFFFFFFFFFFFFF AND PUSH20 0xFFFFFFFFFFFFFFFFFFFFFFFFFFFFFFFFFFFFFFFF AND DUP2 MSTORE PUSH1 0x20 ADD SWAP1 DUP2 MSTORE PUSH1 0x20 ADD PUSH1 0x0 KECCAK256 PUSH2 0x19B8 DUP6 PUSH2 0x2326 JUMP JUMPDEST SWAP2 POP SWAP2 POP DUP5 PUSH20 0xFFFFFFFFFFFFFFFFFFFFFFFFFFFFFFFFFFFFFFFF AND PUSH32 0xDEC2BACDD2F05B59DE34DA9B523DFF8BE42E5E38E818C82FDB0BAE774387A724 DUP4 DUP4 PUSH1 0x40 MLOAD PUSH2 0x2719 SWAP3 SWAP2 SWAP1 PUSH2 0x436C JUMP JUMPDEST PUSH1 0x40 MLOAD DUP1 SWAP2 SUB SWAP1 LOG2 POP POP JUMPDEST PUSH1 0x0 PUSH20 0xFFFFFFFFFFFFFFFFFFFFFFFFFFFFFFFFFFFFFFFF AND DUP3 PUSH20 0xFFFFFFFFFFFFFFFFFFFFFFFFFFFFFFFFFFFFFFFF AND EQ PUSH2 0x27FD JUMPI PUSH1 0x0 DUP1 PUSH2 0x27A6 PUSH1 0x8 PUSH1 0x0 DUP7 PUSH20 0xFFFFFFFFFFFFFFFFFFFFFFFFFFFFFFFFFFFFFFFF AND PUSH20 0xFFFFFFFFFFFFFFFFFFFFFFFFFFFFFFFFFFFFFFFF AND DUP2 MSTORE PUSH1 0x20 ADD SWAP1 DUP2 MSTORE PUSH1 0x20 ADD PUSH1 0x0 KECCAK256 PUSH2 0x164B DUP6 PUSH2 0x2326 JUMP JUMPDEST SWAP2 POP SWAP2 POP DUP4 PUSH20 0xFFFFFFFFFFFFFFFFFFFFFFFFFFFFFFFFFFFFFFFF AND PUSH32 0xDEC2BACDD2F05B59DE34DA9B523DFF8BE42E5E38E818C82FDB0BAE774387A724 DUP4 DUP4 PUSH1 0x40 MLOAD PUSH2 0x27F2 SWAP3 SWAP2 SWAP1 PUSH2 0x436C JUMP JUMPDEST PUSH1 0x40 MLOAD DUP1 SWAP2 SUB SWAP1 LOG2 POP POP JUMPDEST JUMPDEST POP POP POP JUMP JUMPDEST PUSH1 0x0 PUSH20 0xFFFFFFFFFFFFFFFFFFFFFFFFFFFFFFFFFFFFFFFF AND DUP4 PUSH20 0xFFFFFFFFFFFFFFFFFFFFFFFFFFFFFFFFFFFFFFFF AND SUB PUSH2 0x2872 JUMPI PUSH1 0x40 MLOAD PUSH32 0x8C379A000000000000000000000000000000000000000000000000000000000 DUP2 MSTORE PUSH1 0x4 ADD PUSH2 0x2869 SWAP1 PUSH2 0x4407 JUMP JUMPDEST PUSH1 0x40 MLOAD DUP1 SWAP2 SUB SWAP1 REVERT JUMPDEST PUSH1 0x0 PUSH20 0xFFFFFFFFFFFFFFFFFFFFFFFFFFFFFFFFFFFFFFFF AND DUP3 PUSH20 0xFFFFFFFFFFFFFFFFFFFFFFFFFFFFFFFFFFFFFFFF AND SUB PUSH2 0x28E1 JUMPI PUSH1 0x40 MLOAD PUSH32 0x8C379A000000000000000000000000000000000000000000000000000000000 DUP2 MSTORE PUSH1 0x4 ADD PUSH2 0x28D8 SWAP1 PUSH2 0x4499 JUMP JUMPDEST PUSH1 0x40 MLOAD DUP1 SWAP2 SUB SWAP1 REVERT JUMPDEST PUSH2 0x28EC DUP4 DUP4 DUP4 PUSH2 0x25F5 JUMP JUMPDEST PUSH1 0x0 DUP1 PUSH1 0x0 DUP6 PUSH20 0xFFFFFFFFFFFFFFFFFFFFFFFFFFFFFFFFFFFFFFFF AND PUSH20 0xFFFFFFFFFFFFFFFFFFFFFFFFFFFFFFFFFFFFFFFF AND DUP2 MSTORE PUSH1 0x20 ADD SWAP1 DUP2 MSTORE PUSH1 0x20 ADD PUSH1 0x0 KECCAK256 SLOAD SWAP1 POP DUP2 DUP2 LT ISZERO PUSH2 0x2972 JUMPI PUSH1 0x40 MLOAD PUSH32 0x8C379A000000000000000000000000000000000000000000000000000000000 DUP2 MSTORE PUSH1 0x4 ADD PUSH2 0x2969 SWAP1 PUSH2 0x452B JUMP JUMPDEST PUSH1 0x40 MLOAD DUP1 SWAP2 SUB SWAP1 REVERT JUMPDEST DUP2 DUP2 SUB PUSH1 0x0 DUP1 DUP7 PUSH20 0xFFFFFFFFFFFFFFFFFFFFFFFFFFFFFFFFFFFFFFFF AND PUSH20 0xFFFFFFFFFFFFFFFFFFFFFFFFFFFFFFFFFFFFFFFF AND DUP2 MSTORE PUSH1 0x20 ADD SWAP1 DUP2 MSTORE PUSH1 0x20 ADD PUSH1 0x0 KECCAK256 DUP2 SWAP1 SSTORE POP DUP2 PUSH1 0x0 DUP1 DUP6 PUSH20 0xFFFFFFFFFFFFFFFFFFFFFFFFFFFFFFFFFFFFFFFF AND PUSH20 0xFFFFFFFFFFFFFFFFFFFFFFFFFFFFFFFFFFFFFFFF AND DUP2 MSTORE PUSH1 0x20 ADD SWAP1 DUP2 MSTORE PUSH1 0x20 ADD PUSH1 0x0 KECCAK256 PUSH1 0x0 DUP3 DUP3 SLOAD ADD SWAP3 POP POP DUP2 SWAP1 SSTORE POP DUP3 PUSH20 0xFFFFFFFFFFFFFFFFFFFFFFFFFFFFFFFFFFFFFFFF AND DUP5 PUSH20 0xFFFFFFFFFFFFFFFFFFFFFFFFFFFFFFFFFFFFFFFF AND PUSH32 0xDDF252AD1BE2C89B69C2B068FC378DAA952BA7F163C4A11628F55A4DF523B3EF DUP5 PUSH1 0x40 MLOAD PUSH2 0x2A60 SWAP2 SWAP1 PUSH2 0x3475 JUMP JUMPDEST PUSH1 0x40 MLOAD DUP1 SWAP2 SUB SWAP1 LOG3 PUSH2 0x2A73 DUP5 DUP5 DUP5 PUSH2 0x25FA JUMP JUMPDEST POP POP POP POP JUMP JUMPDEST PUSH2 0x2A83 DUP3 DUP3 PUSH2 0xD00 JUMP JUMPDEST PUSH2 0x2AFA JUMPI PUSH2 0x2A90 DUP2 PUSH2 0x174A JUMP JUMPDEST PUSH2 0x2A9E DUP4 PUSH1 0x0 SHR PUSH1 0x20 PUSH2 0x1777 JUMP JUMPDEST PUSH1 0x40 MLOAD PUSH1 0x20 ADD PUSH2 0x2AAF SWAP3 SWAP2 SWAP1 PUSH2 0x461F JUMP JUMPDEST PUSH1 0x40 MLOAD PUSH1 0x20 DUP2 DUP4 SUB SUB DUP2 MSTORE SWAP1 PUSH1 0x40 MSTORE PUSH1 0x40 MLOAD PUSH32 0x8C379A000000000000000000000000000000000000000000000000000000000 DUP2 MSTORE PUSH1 0x4 ADD PUSH2 0x2AF1 SWAP2 SWAP1 PUSH2 0x3370 JUMP JUMPDEST PUSH1 0x40 MLOAD DUP1 SWAP2 SUB SWAP1 REVERT JUMPDEST POP POP JUMP JUMPDEST PUSH1 0x0 DUP4 DUP4 DUP4 CHAINID ADDRESS PUSH1 0x40 MLOAD PUSH1 0x20 ADD PUSH2 0x2B19 SWAP6 SWAP5 SWAP4 SWAP3 SWAP2 SWAP1 PUSH2 0x4659 JUMP JUMPDEST PUSH1 0x40 MLOAD PUSH1 0x20 DUP2 DUP4 SUB SUB DUP2 MSTORE SWAP1 PUSH1 0x40 MSTORE DUP1 MLOAD SWAP1 PUSH1 0x20 ADD KECCAK256 SWAP1 POP SWAP4 SWAP3 POP POP POP JUMP JUMPDEST PUSH1 0x0 DUP1 DUP3 SUB PUSH2 0x2B4A JUMPI PUSH1 0x0 SWAP1 POP PUSH2 0x2C2C JUMP JUMPDEST PUSH1 0x0 PUSH1 0x1 PUSH2 0x2B57 DUP5 PUSH2 0x2F1B JUMP JUMPDEST SWAP1 SHR PUSH1 0x1 SWAP1 SHL SWAP1 POP PUSH1 0x1 DUP2 DUP5 DUP2 PUSH2 0x2B71 JUMPI PUSH2 0x2B70 PUSH2 0x46AC JUMP JUMPDEST JUMPDEST DIV DUP3 ADD SWAP1 SHR SWAP1 POP PUSH1 0x1 DUP2 DUP5 DUP2 PUSH2 0x2B8A JUMPI PUSH2 0x2B89 PUSH2 0x46AC JUMP JUMPDEST JUMPDEST DIV DUP3 ADD SWAP1 SHR SWAP1 POP PUSH1 0x1 DUP2 DUP5 DUP2 PUSH2 0x2BA3 JUMPI PUSH2 0x2BA2 PUSH2 0x46AC JUMP JUMPDEST JUMPDEST DIV DUP3 ADD SWAP1 SHR SWAP1 POP PUSH1 0x1 DUP2 DUP5 DUP2 PUSH2 0x2BBC JUMPI PUSH2 0x2BBB PUSH2 0x46AC JUMP JUMPDEST JUMPDEST DIV DUP3 ADD SWAP1 SHR SWAP1 POP PUSH1 0x1 DUP2 DUP5 DUP2 PUSH2 0x2BD5 JUMPI PUSH2 0x2BD4 PUSH2 0x46AC JUMP JUMPDEST JUMPDEST DIV DUP3 ADD SWAP1 SHR SWAP1 POP PUSH1 0x1 DUP2 DUP5 DUP2 PUSH2 0x2BEE JUMPI PUSH2 0x2BED PUSH2 0x46AC JUMP JUMPDEST JUMPDEST DIV DUP3 ADD SWAP1 SHR SWAP1 POP PUSH1 0x1 DUP2 DUP5 DUP2 PUSH2 0x2C07 JUMPI PUSH2 0x2C06 PUSH2 0x46AC JUMP JUMPDEST JUMPDEST DIV DUP3 ADD SWAP1 SHR SWAP1 POP PUSH2 0x2C28 DUP2 DUP3 DUP6 DUP2 PUSH2 0x2C22 JUMPI PUSH2 0x2C21 PUSH2 0x46AC JUMP JUMPDEST JUMPDEST DIV PUSH2 0x2FFC JUMP JUMPDEST SWAP2 POP POP JUMPDEST SWAP2 SWAP1 POP JUMP JUMPDEST PUSH1 0x0 DUP3 PUSH1 0x0 MSTORE DUP2 PUSH1 0x20 PUSH1 0x0 KECCAK256 ADD SWAP1 POP SWAP3 SWAP2 POP POP JUMP JUMPDEST PUSH1 0x0 PUSH1 0x2 DUP3 DUP5 XOR PUSH2 0x2C57 SWAP2 SWAP1 PUSH2 0x46DB JUMP JUMPDEST DUP3 DUP5 AND PUSH2 0x2C64 SWAP2 SWAP1 PUSH2 0x3AFD JUMP JUMPDEST SWAP1 POP SWAP3 SWAP2 POP POP JUMP JUMPDEST PUSH2 0x2C76 DUP3 DUP3 PUSH2 0x3015 JUMP JUMPDEST PUSH2 0x2C84 PUSH1 0x9 PUSH2 0x19B8 DUP4 PUSH2 0x2326 JUMP JUMPDEST POP POP POP POP JUMP JUMPDEST PUSH1 0x0 DUP3 DUP3 PUSH1 0x40 MLOAD PUSH1 0x20 ADD PUSH2 0x2C9F SWAP3 SWAP2 SWAP1 PUSH2 0x4779 JUMP JUMPDEST PUSH1 0x40 MLOAD PUSH1 0x20 DUP2 DUP4 SUB SUB DUP2 MSTORE SWAP1 PUSH1 0x40 MSTORE DUP1 MLOAD SWAP1 PUSH1 0x20 ADD KECCAK256 SWAP1 POP SWAP3 SWAP2 POP POP JUMP JUMPDEST PUSH1 0x0 DUP1 PUSH32 0x7FFFFFFFFFFFFFFFFFFFFFFFFFFFFFFF5D576E7357A4501DDFE92F46681B20A0 DUP4 PUSH1 0x0 SHR GT ISZERO PUSH2 0x2CF8 JUMPI PUSH1 0x0 PUSH1 0x3 SWAP2 POP SWAP2 POP PUSH2 0x2D96 JUMP JUMPDEST PUSH1 0x0 PUSH1 0x1 DUP8 DUP8 DUP8 DUP8 PUSH1 0x40 MLOAD PUSH1 0x0 DUP2 MSTORE PUSH1 0x20 ADD PUSH1 0x40 MSTORE PUSH1 0x40 MLOAD PUSH2 0x2D1D SWAP5 SWAP4 SWAP3 SWAP2 SWAP1 PUSH2 0x47B0 JUMP JUMPDEST PUSH1 0x20 PUSH1 0x40 MLOAD PUSH1 0x20 DUP2 SUB SWAP1 DUP1 DUP5 SUB SWAP1 DUP6 GAS STATICCALL ISZERO DUP1 ISZERO PUSH2 0x2D3F JUMPI RETURNDATASIZE PUSH1 0x0 DUP1 RETURNDATACOPY RETURNDATASIZE PUSH1 0x0 REVERT JUMPDEST POP POP POP PUSH1 0x20 PUSH1 0x40 MLOAD SUB MLOAD SWAP1 POP PUSH1 0x0 PUSH20 0xFFFFFFFFFFFFFFFFFFFFFFFFFFFFFFFFFFFFFFFF AND DUP2 PUSH20 0xFFFFFFFFFFFFFFFFFFFFFFFFFFFFFFFFFFFFFFFF AND SUB PUSH2 0x2D8D JUMPI PUSH1 0x0 PUSH1 0x1 SWAP3 POP SWAP3 POP POP PUSH2 0x2D96 JUMP JUMPDEST DUP1 PUSH1 0x0 SWAP3 POP SWAP3 POP POP JUMPDEST SWAP5 POP SWAP5 SWAP3 POP POP POP JUMP JUMPDEST PUSH1 0x0 PUSH1 0x4 DUP2 GT ISZERO PUSH2 0x2DB3 JUMPI PUSH2 0x2DB2 PUSH2 0x47F5 JUMP JUMPDEST JUMPDEST DUP2 PUSH1 0x4 DUP2 GT ISZERO PUSH2 0x2DC6 JUMPI PUSH2 0x2DC5 PUSH2 0x47F5 JUMP JUMPDEST JUMPDEST SUB ISZERO PUSH2 0x2F02 JUMPI PUSH1 0x1 PUSH1 0x4 DUP2 GT ISZERO PUSH2 0x2DE0 JUMPI PUSH2 0x2DDF PUSH2 0x47F5 JUMP JUMPDEST JUMPDEST DUP2 PUSH1 0x4 DUP2 GT ISZERO PUSH2 0x2DF3 JUMPI PUSH2 0x2DF2 PUSH2 0x47F5 JUMP JUMPDEST JUMPDEST SUB PUSH2 0x2E33 JUMPI PUSH1 0x40 MLOAD PUSH32 0x8C379A000000000000000000000000000000000000000000000000000000000 DUP2 MSTORE PUSH1 0x4 ADD PUSH2 0x2E2A SWAP1 PUSH2 0x4870 JUMP JUMPDEST PUSH1 0x40 MLOAD DUP1 SWAP2 SUB SWAP1 REVERT JUMPDEST PUSH1 0x2 PUSH1 0x4 DUP2 GT ISZERO PUSH2 0x2E47 JUMPI PUSH2 0x2E46 PUSH2 0x47F5 JUMP JUMPDEST JUMPDEST DUP2 PUSH1 0x4 DUP2 GT ISZERO PUSH2 0x2E5A JUMPI PUSH2 0x2E59 PUSH2 0x47F5 JUMP JUMPDEST JUMPDEST SUB PUSH2 0x2E9A JUMPI PUSH1 0x40 MLOAD PUSH32 0x8C379A000000000000000000000000000000000000000000000000000000000 DUP2 MSTORE PUSH1 0x4 ADD PUSH2 0x2E91 SWAP1 PUSH2 0x48DC JUMP JUMPDEST PUSH1 0x40 MLOAD DUP1 SWAP2 SUB SWAP1 REVERT JUMPDEST PUSH1 0x3 PUSH1 0x4 DUP2 GT ISZERO PUSH2 0x2EAE JUMPI PUSH2 0x2EAD PUSH2 0x47F5 JUMP JUMPDEST JUMPDEST DUP2 PUSH1 0x4 DUP2 GT ISZERO PUSH2 0x2EC1 JUMPI PUSH2 0x2EC0 PUSH2 0x47F5 JUMP JUMPDEST JUMPDEST SUB PUSH2 0x2F01 JUMPI PUSH1 0x40 MLOAD PUSH32 0x8C379A000000000000000000000000000000000000000000000000000000000 DUP2 MSTORE PUSH1 0x4 ADD PUSH2 0x2EF8 SWAP1 PUSH2 0x496E JUMP JUMPDEST PUSH1 0x40 MLOAD DUP1 SWAP2 SUB SWAP1 REVERT JUMPDEST JUMPDEST POP JUMP JUMPDEST PUSH1 0x1 DUP2 PUSH1 0x0 ADD PUSH1 0x0 DUP3 DUP3 SLOAD ADD SWAP3 POP POP DUP2 SWAP1 SSTORE POP POP JUMP JUMPDEST PUSH1 0x0 DUP1 PUSH1 0x0 SWAP1 POP PUSH1 0x0 PUSH1 0x80 DUP5 SWAP1 SHR GT ISZERO PUSH2 0x2F3D JUMPI PUSH1 0x80 DUP4 SWAP1 SHR SWAP3 POP PUSH1 0x80 DUP2 ADD SWAP1 POP JUMPDEST PUSH1 0x0 PUSH1 0x40 DUP5 SWAP1 SHR GT ISZERO PUSH2 0x2F58 JUMPI PUSH1 0x40 DUP4 SWAP1 SHR SWAP3 POP PUSH1 0x40 DUP2 ADD SWAP1 POP JUMPDEST PUSH1 0x0 PUSH1 0x20 DUP5 SWAP1 SHR GT ISZERO PUSH2 0x2F73 JUMPI PUSH1 0x20 DUP4 SWAP1 SHR SWAP3 POP PUSH1 0x20 DUP2 ADD SWAP1 POP JUMPDEST PUSH1 0x0 PUSH1 0x10 DUP5 SWAP1 SHR GT ISZERO PUSH2 0x2F8E JUMPI PUSH1 0x10 DUP4 SWAP1 SHR SWAP3 POP PUSH1 0x10 DUP2 ADD SWAP1 POP JUMPDEST PUSH1 0x0 PUSH1 0x8 DUP5 SWAP1 SHR GT ISZERO PUSH2 0x2FA9 JUMPI PUSH1 0x8 DUP4 SWAP1 SHR SWAP3 POP PUSH1 0x8 DUP2 ADD SWAP1 POP JUMPDEST PUSH1 0x0 PUSH1 0x4 DUP5 SWAP1 SHR GT ISZERO PUSH2 0x2FC4 JUMPI PUSH1 0x4 DUP4 SWAP1 SHR SWAP3 POP PUSH1 0x4 DUP2 ADD SWAP1 POP JUMPDEST PUSH1 0x0 PUSH1 0x2 DUP5 SWAP1 SHR GT ISZERO PUSH2 0x2FDF JUMPI PUSH1 0x2 DUP4 SWAP1 SHR SWAP3 POP PUSH1 0x2 DUP2 ADD SWAP1 POP JUMPDEST PUSH1 0x0 PUSH1 0x1 DUP5 SWAP1 SHR GT ISZERO PUSH2 0x2FF3 JUMPI PUSH1 0x1 DUP2 ADD SWAP1 POP JUMPDEST DUP1 SWAP2 POP POP SWAP2 SWAP1 POP JUMP JUMPDEST PUSH1 0x0 DUP2 DUP4 LT PUSH2 0x300B JUMPI DUP2 PUSH2 0x300D JUMP JUMPDEST DUP3 JUMPDEST SWAP1 POP SWAP3 SWAP2 POP POP JUMP JUMPDEST PUSH1 0x0 PUSH20 0xFFFFFFFFFFFFFFFFFFFFFFFFFFFFFFFFFFFFFFFF AND DUP3 PUSH20 0xFFFFFFFFFFFFFFFFFFFFFFFFFFFFFFFFFFFFFFFF AND SUB PUSH2 0x3084 JUMPI PUSH1 0x40 MLOAD PUSH32 0x8C379A000000000000000000000000000000000000000000000000000000000 DUP2 MSTORE PUSH1 0x4 ADD PUSH2 0x307B SWAP1 PUSH2 0x4A00 JUMP JUMPDEST PUSH1 0x40 MLOAD DUP1 SWAP2 SUB SWAP1 REVERT JUMPDEST PUSH2 0x3090 DUP3 PUSH1 0x0 DUP4 PUSH2 0x25F5 JUMP JUMPDEST PUSH1 0x0 DUP1 PUSH1 0x0 DUP5 PUSH20 0xFFFFFFFFFFFFFFFFFFFFFFFFFFFFFFFFFFFFFFFF AND PUSH20 0xFFFFFFFFFFFFFFFFFFFFFFFFFFFFFFFFFFFFFFFF AND DUP2 MSTORE PUSH1 0x20 ADD SWAP1 DUP2 MSTORE PUSH1 0x20 ADD PUSH1 0x0 KECCAK256 SLOAD SWAP1 POP DUP2 DUP2 LT ISZERO PUSH2 0x3116 JUMPI PUSH1 0x40 MLOAD PUSH32 0x8C379A000000000000000000000000000000000000000000000000000000000 DUP2 MSTORE PUSH1 0x4 ADD PUSH2 0x310D SWAP1 PUSH2 0x4A92 JUMP JUMPDEST PUSH1 0x40 MLOAD DUP1 SWAP2 SUB SWAP1 REVERT JUMPDEST DUP2 DUP2 SUB PUSH1 0x0 DUP1 DUP6 PUSH20 0xFFFFFFFFFFFFFFFFFFFFFFFFFFFFFFFFFFFFFFFF AND PUSH20 0xFFFFFFFFFFFFFFFFFFFFFFFFFFFFFFFFFFFFFFFF AND DUP2 MSTORE PUSH1 0x20 ADD SWAP1 DUP2 MSTORE PUSH1 0x20 ADD PUSH1 0x0 KECCAK256 DUP2 SWAP1 SSTORE POP DUP2 PUSH1 0x2 PUSH1 0x0 DUP3 DUP3 SLOAD SUB SWAP3 POP POP DUP2 SWAP1 SSTORE POP PUSH1 0x0 PUSH20 0xFFFFFFFFFFFFFFFFFFFFFFFFFFFFFFFFFFFFFFFF AND DUP4 PUSH20 0xFFFFFFFFFFFFFFFFFFFFFFFFFFFFFFFFFFFFFFFF AND PUSH32 0xDDF252AD1BE2C89B69C2B068FC378DAA952BA7F163C4A11628F55A4DF523B3EF DUP5 PUSH1 0x40 MLOAD PUSH2 0x31C9 SWAP2 SWAP1 PUSH2 0x3475 JUMP JUMPDEST PUSH1 0x40 MLOAD DUP1 SWAP2 SUB SWAP1 LOG3 PUSH2 0x31DD DUP4 PUSH1 0x0 DUP5 PUSH2 0x25FA JUMP JUMPDEST POP POP POP JUMP JUMPDEST PUSH1 0x40 MLOAD DUP1 PUSH1 0x40 ADD PUSH1 0x40 MSTORE DUP1 PUSH1 0x0 PUSH4 0xFFFFFFFF AND DUP2 MSTORE PUSH1 0x20 ADD PUSH1 0x0 PUSH28 0xFFFFFFFFFFFFFFFFFFFFFFFFFFFFFFFFFFFFFFFFFFFFFFFFFFFFFFFF AND DUP2 MSTORE POP SWAP1 JUMP JUMPDEST PUSH1 0x0 DUP1 REVERT JUMPDEST PUSH1 0x0 PUSH32 0xFFFFFFFF00000000000000000000000000000000000000000000000000000000 DUP3 AND SWAP1 POP SWAP2 SWAP1 POP JUMP JUMPDEST PUSH2 0x325A DUP2 PUSH2 0x3225 JUMP JUMPDEST DUP2 EQ PUSH2 0x3265 JUMPI PUSH1 0x0 DUP1 REVERT JUMPDEST POP JUMP JUMPDEST PUSH1 0x0 DUP2 CALLDATALOAD SWAP1 POP PUSH2 0x3277 DUP2 PUSH2 0x3251 JUMP JUMPDEST SWAP3 SWAP2 POP POP JUMP JUMPDEST PUSH1 0x0 PUSH1 0x20 DUP3 DUP5 SUB SLT ISZERO PUSH2 0x3293 JUMPI PUSH2 0x3292 PUSH2 0x3220 JUMP JUMPDEST JUMPDEST PUSH1 0x0 PUSH2 0x32A1 DUP5 DUP3 DUP6 ADD PUSH2 0x3268 JUMP JUMPDEST SWAP2 POP POP SWAP3 SWAP2 POP POP JUMP JUMPDEST PUSH1 0x0 DUP2 ISZERO ISZERO SWAP1 POP SWAP2 SWAP1 POP JUMP JUMPDEST PUSH2 0x32BF DUP2 PUSH2 0x32AA JUMP JUMPDEST DUP3 MSTORE POP POP JUMP JUMPDEST PUSH1 0x0 PUSH1 0x20 DUP3 ADD SWAP1 POP PUSH2 0x32DA PUSH1 0x0 DUP4 ADD DUP5 PUSH2 0x32B6 JUMP JUMPDEST SWAP3 SWAP2 POP POP JUMP JUMPDEST PUSH1 0x0 DUP2 MLOAD SWAP1 POP SWAP2 SWAP1 POP JUMP JUMPDEST PUSH1 0x0 DUP3 DUP3 MSTORE PUSH1 0x20 DUP3 ADD SWAP1 POP SWAP3 SWAP2 POP POP JUMP JUMPDEST PUSH1 0x0 JUMPDEST DUP4 DUP2 LT ISZERO PUSH2 0x331A JUMPI DUP1 DUP3 ADD MLOAD DUP2 DUP5 ADD MSTORE PUSH1 0x20 DUP2 ADD SWAP1 POP PUSH2 0x32FF JUMP JUMPDEST PUSH1 0x0 DUP5 DUP5 ADD MSTORE POP POP POP POP JUMP JUMPDEST PUSH1 0x0 PUSH1 0x1F NOT PUSH1 0x1F DUP4 ADD AND SWAP1 POP SWAP2 SWAP1 POP JUMP JUMPDEST PUSH1 0x0 PUSH2 0x3342 DUP3 PUSH2 0x32E0 JUMP JUMPDEST PUSH2 0x334C DUP2 DUP6 PUSH2 0x32EB JUMP JUMPDEST SWAP4 POP PUSH2 0x335C DUP2 DUP6 PUSH1 0x20 DUP7 ADD PUSH2 0x32FC JUMP JUMPDEST PUSH2 0x3365 DUP2 PUSH2 0x3326 JUMP JUMPDEST DUP5 ADD SWAP2 POP POP SWAP3 SWAP2 POP POP JUMP JUMPDEST PUSH1 0x0 PUSH1 0x20 DUP3 ADD SWAP1 POP DUP2 DUP2 SUB PUSH1 0x0 DUP4 ADD MSTORE PUSH2 0x338A DUP2 DUP5 PUSH2 0x3337 JUMP JUMPDEST SWAP1 POP SWAP3 SWAP2 POP POP JUMP JUMPDEST PUSH1 0x0 PUSH20 0xFFFFFFFFFFFFFFFFFFFFFFFFFFFFFFFFFFFFFFFF DUP3 AND SWAP1 POP SWAP2 SWAP1 POP JUMP JUMPDEST PUSH1 0x0 PUSH2 0x33BD DUP3 PUSH2 0x3392 JUMP JUMPDEST SWAP1 POP SWAP2 SWAP1 POP JUMP JUMPDEST PUSH2 0x33CD DUP2 PUSH2 0x33B2 JUMP JUMPDEST DUP2 EQ PUSH2 0x33D8 JUMPI PUSH1 0x0 DUP1 REVERT JUMPDEST POP JUMP JUMPDEST PUSH1 0x0 DUP2 CALLDATALOAD SWAP1 POP PUSH2 0x33EA DUP2 PUSH2 0x33C4 JUMP JUMPDEST SWAP3 SWAP2 POP POP JUMP JUMPDEST PUSH1 0x0 DUP2 SWAP1 POP SWAP2 SWAP1 POP JUMP JUMPDEST PUSH2 0x3403 DUP2 PUSH2 0x33F0 JUMP JUMPDEST DUP2 EQ PUSH2 0x340E JUMPI PUSH1 0x0 DUP1 REVERT JUMPDEST POP JUMP JUMPDEST PUSH1 0x0 DUP2 CALLDATALOAD SWAP1 POP PUSH2 0x3420 DUP2 PUSH2 0x33FA JUMP JUMPDEST SWAP3 SWAP2 POP POP JUMP JUMPDEST PUSH1 0x0 DUP1 PUSH1 0x40 DUP4 DUP6 SUB SLT ISZERO PUSH2 0x343D JUMPI PUSH2 0x343C PUSH2 0x3220 JUMP JUMPDEST JUMPDEST PUSH1 0x0 PUSH2 0x344B DUP6 DUP3 DUP7 ADD PUSH2 0x33DB JUMP JUMPDEST SWAP3 POP POP PUSH1 0x20 PUSH2 0x345C DUP6 DUP3 DUP7 ADD PUSH2 0x3411 JUMP JUMPDEST SWAP2 POP POP SWAP3 POP SWAP3 SWAP1 POP JUMP JUMPDEST PUSH2 0x346F DUP2 PUSH2 0x33F0 JUMP JUMPDEST DUP3 MSTORE POP POP JUMP JUMPDEST PUSH1 0x0 PUSH1 0x20 DUP3 ADD SWAP1 POP PUSH2 0x348A PUSH1 0x0 DUP4 ADD DUP5 PUSH2 0x3466 JUMP JUMPDEST SWAP3 SWAP2 POP POP JUMP JUMPDEST PUSH1 0x0 DUP1 PUSH1 0x0 PUSH1 0x60 DUP5 DUP7 SUB SLT ISZERO PUSH2 0x34A9 JUMPI PUSH2 0x34A8 PUSH2 0x3220 JUMP JUMPDEST JUMPDEST PUSH1 0x0 PUSH2 0x34B7 DUP7 DUP3 DUP8 ADD PUSH2 0x33DB JUMP JUMPDEST SWAP4 POP POP PUSH1 0x20 PUSH2 0x34C8 DUP7 DUP3 DUP8 ADD PUSH2 0x33DB JUMP JUMPDEST SWAP3 POP POP PUSH1 0x40 PUSH2 0x34D9 DUP7 DUP3 DUP8 ADD PUSH2 0x3411 JUMP JUMPDEST SWAP2 POP POP SWAP3 POP SWAP3 POP SWAP3 JUMP JUMPDEST PUSH1 0x0 DUP2 SWAP1 POP SWAP2 SWAP1 POP JUMP JUMPDEST PUSH2 0x34F6 DUP2 PUSH2 0x34E3 JUMP JUMPDEST DUP2 EQ PUSH2 0x3501 JUMPI PUSH1 0x0 DUP1 REVERT JUMPDEST POP JUMP JUMPDEST PUSH1 0x0 DUP2 CALLDATALOAD SWAP1 POP PUSH2 0x3513 DUP2 PUSH2 0x34ED JUMP JUMPDEST SWAP3 SWAP2 POP POP JUMP JUMPDEST PUSH1 0x0 PUSH1 0x20 DUP3 DUP5 SUB SLT ISZERO PUSH2 0x352F JUMPI PUSH2 0x352E PUSH2 0x3220 JUMP JUMPDEST JUMPDEST PUSH1 0x0 PUSH2 0x353D DUP5 DUP3 DUP6 ADD PUSH2 0x3504 JUMP JUMPDEST SWAP2 POP POP SWAP3 SWAP2 POP POP JUMP JUMPDEST PUSH2 0x354F DUP2 PUSH2 0x34E3 JUMP JUMPDEST DUP3 MSTORE POP POP JUMP JUMPDEST PUSH1 0x0 PUSH1 0x20 DUP3 ADD SWAP1 POP PUSH2 0x356A PUSH1 0x0 DUP4 ADD DUP5 PUSH2 0x3546 JUMP JUMPDEST SWAP3 SWAP2 POP POP JUMP JUMPDEST PUSH1 0x0 DUP1 PUSH1 0x40 DUP4 DUP6 SUB SLT ISZERO PUSH2 0x3587 JUMPI PUSH2 0x3586 PUSH2 0x3220 JUMP JUMPDEST JUMPDEST PUSH1 0x0 PUSH2 0x3595 DUP6 DUP3 DUP7 ADD PUSH2 0x3504 JUMP JUMPDEST SWAP3 POP POP PUSH1 0x20 PUSH2 0x35A6 DUP6 DUP3 DUP7 ADD PUSH2 0x33DB JUMP JUMPDEST SWAP2 POP POP SWAP3 POP SWAP3 SWAP1 POP JUMP JUMPDEST PUSH1 0x0 PUSH1 0xFF DUP3 AND SWAP1 POP SWAP2 SWAP1 POP JUMP JUMPDEST PUSH2 0x35C6 DUP2 PUSH2 0x35B0 JUMP JUMPDEST DUP3 MSTORE POP POP JUMP JUMPDEST PUSH1 0x0 PUSH1 0x20 DUP3 ADD SWAP1 POP PUSH2 0x35E1 PUSH1 0x0 DUP4 ADD DUP5 PUSH2 0x35BD JUMP JUMPDEST SWAP3 SWAP2 POP POP JUMP JUMPDEST PUSH1 0x0 PUSH1 0x20 DUP3 DUP5 SUB SLT ISZERO PUSH2 0x35FD JUMPI PUSH2 0x35FC PUSH2 0x3220 JUMP JUMPDEST JUMPDEST PUSH1 0x0 PUSH2 0x360B DUP5 DUP3 DUP6 ADD PUSH2 0x3411 JUMP JUMPDEST SWAP2 POP POP SWAP3 SWAP2 POP POP JUMP JUMPDEST PUSH1 0x0 PUSH1 0x20 DUP3 DUP5 SUB SLT ISZERO PUSH2 0x362A JUMPI PUSH2 0x3629 PUSH2 0x3220 JUMP JUMPDEST JUMPDEST PUSH1 0x0 PUSH2 0x3638 DUP5 DUP3 DUP6 ADD PUSH2 0x33DB JUMP JUMPDEST SWAP2 POP POP SWAP3 SWAP2 POP POP JUMP JUMPDEST PUSH2 0x364A DUP2 PUSH2 0x33B2 JUMP JUMPDEST DUP3 MSTORE POP POP JUMP JUMPDEST PUSH1 0x0 PUSH1 0x20 DUP3 ADD SWAP1 POP PUSH2 0x3665 PUSH1 0x0 DUP4 ADD DUP5 PUSH2 0x3641 JUMP JUMPDEST SWAP3 SWAP2 POP POP JUMP JUMPDEST PUSH1 0x0 PUSH4 0xFFFFFFFF DUP3 AND SWAP1 POP SWAP2 SWAP1 POP JUMP JUMPDEST PUSH2 0x3684 DUP2 PUSH2 0x366B JUMP JUMPDEST DUP3 MSTORE POP POP JUMP JUMPDEST PUSH1 0x0 PUSH1 0x20 DUP3 ADD SWAP1 POP PUSH2 0x369F PUSH1 0x0 DUP4 ADD DUP5 PUSH2 0x367B JUMP JUMPDEST SWAP3 SWAP2 POP POP JUMP JUMPDEST PUSH2 0x36AE DUP2 PUSH2 0x35B0 JUMP JUMPDEST DUP2 EQ PUSH2 0x36B9 JUMPI PUSH1 0x0 DUP1 REVERT JUMPDEST POP JUMP JUMPDEST PUSH1 0x0 DUP2 CALLDATALOAD SWAP1 POP PUSH2 0x36CB DUP2 PUSH2 0x36A5 JUMP JUMPDEST SWAP3 SWAP2 POP POP JUMP JUMPDEST PUSH1 0x0 DUP1 PUSH1 0x0 DUP1 PUSH1 0x0 DUP1 PUSH1 0xC0 DUP8 DUP10 SUB SLT ISZERO PUSH2 0x36EE JUMPI PUSH2 0x36ED PUSH2 0x3220 JUMP JUMPDEST JUMPDEST PUSH1 0x0 PUSH2 0x36FC DUP10 DUP3 DUP11 ADD PUSH2 0x33DB JUMP JUMPDEST SWAP7 POP POP PUSH1 0x20 PUSH2 0x370D DUP10 DUP3 DUP11 ADD PUSH2 0x3411 JUMP JUMPDEST SWAP6 POP POP PUSH1 0x40 PUSH2 0x371E DUP10 DUP3 DUP11 ADD PUSH2 0x3411 JUMP JUMPDEST SWAP5 POP POP PUSH1 0x60 PUSH2 0x372F DUP10 DUP3 DUP11 ADD PUSH2 0x36BC JUMP JUMPDEST SWAP4 POP POP PUSH1 0x80 PUSH2 0x3740 DUP10 DUP3 DUP11 ADD PUSH2 0x3504 JUMP JUMPDEST SWAP3 POP POP PUSH1 0xA0 PUSH2 0x3751 DUP10 DUP3 DUP11 ADD PUSH2 0x3504 JUMP JUMPDEST SWAP2 POP POP SWAP3 SWAP6 POP SWAP3 SWAP6 POP SWAP3 SWAP6 JUMP JUMPDEST PUSH1 0x0 DUP1 PUSH1 0x0 DUP1 PUSH1 0x0 DUP1 PUSH1 0x0 PUSH1 0xE0 DUP9 DUP11 SUB SLT ISZERO PUSH2 0x377D JUMPI PUSH2 0x377C PUSH2 0x3220 JUMP JUMPDEST JUMPDEST PUSH1 0x0 PUSH2 0x378B DUP11 DUP3 DUP12 ADD PUSH2 0x33DB JUMP JUMPDEST SWAP8 POP POP PUSH1 0x20 PUSH2 0x379C DUP11 DUP3 DUP12 ADD PUSH2 0x33DB JUMP JUMPDEST SWAP7 POP POP PUSH1 0x40 PUSH2 0x37AD DUP11 DUP3 DUP12 ADD PUSH2 0x3411 JUMP JUMPDEST SWAP6 POP POP PUSH1 0x60 PUSH2 0x37BE DUP11 DUP3 DUP12 ADD PUSH2 0x3411 JUMP JUMPDEST SWAP5 POP POP PUSH1 0x80 PUSH2 0x37CF DUP11 DUP3 DUP12 ADD PUSH2 0x36BC JUMP JUMPDEST SWAP4 POP POP PUSH1 0xA0 PUSH2 0x37E0 DUP11 DUP3 DUP12 ADD PUSH2 0x3504 JUMP JUMPDEST SWAP3 POP POP PUSH1 0xC0 PUSH2 0x37F1 DUP11 DUP3 DUP12 ADD PUSH2 0x3504 JUMP JUMPDEST SWAP2 POP POP SWAP3 SWAP6 SWAP9 SWAP2 SWAP5 SWAP8 POP SWAP3 SWAP6 POP JUMP JUMPDEST PUSH1 0x0 DUP1 PUSH1 0x40 DUP4 DUP6 SUB SLT ISZERO PUSH2 0x3817 JUMPI PUSH2 0x3816 PUSH2 0x3220 JUMP JUMPDEST JUMPDEST PUSH1 0x0 PUSH2 0x3825 DUP6 DUP3 DUP7 ADD PUSH2 0x33DB JUMP JUMPDEST SWAP3 POP POP PUSH1 0x20 PUSH2 0x3836 DUP6 DUP3 DUP7 ADD PUSH2 0x33DB JUMP JUMPDEST SWAP2 POP POP SWAP3 POP SWAP3 SWAP1 POP JUMP JUMPDEST PUSH2 0x3849 DUP2 PUSH2 0x366B JUMP JUMPDEST DUP2 EQ PUSH2 0x3854 JUMPI PUSH1 0x0 DUP1 REVERT JUMPDEST POP JUMP JUMPDEST PUSH1 0x0 DUP2 CALLDATALOAD SWAP1 POP PUSH2 0x3866 DUP2 PUSH2 0x3840 JUMP JUMPDEST SWAP3 SWAP2 POP POP JUMP JUMPDEST PUSH1 0x0 DUP1 PUSH1 0x40 DUP4 DUP6 SUB SLT ISZERO PUSH2 0x3883 JUMPI PUSH2 0x3882 PUSH2 0x3220 JUMP JUMPDEST JUMPDEST PUSH1 0x0 PUSH2 0x3891 DUP6 DUP3 DUP7 ADD PUSH2 0x33DB JUMP JUMPDEST SWAP3 POP POP PUSH1 0x20 PUSH2 0x38A2 DUP6 DUP3 DUP7 ADD PUSH2 0x3857 JUMP JUMPDEST SWAP2 POP POP SWAP3 POP SWAP3 SWAP1 POP JUMP JUMPDEST PUSH2 0x38B5 DUP2 PUSH2 0x366B JUMP JUMPDEST DUP3 MSTORE POP POP JUMP JUMPDEST PUSH1 0x0 PUSH28 0xFFFFFFFFFFFFFFFFFFFFFFFFFFFFFFFFFFFFFFFFFFFFFFFFFFFFFFFF DUP3 AND SWAP1 POP SWAP2 SWAP1 POP JUMP JUMPDEST PUSH2 0x38EC DUP2 PUSH2 0x38BB JUMP JUMPDEST DUP3 MSTORE POP POP JUMP JUMPDEST PUSH1 0x40 DUP3 ADD PUSH1 0x0 DUP3 ADD MLOAD PUSH2 0x3908 PUSH1 0x0 DUP6 ADD DUP3 PUSH2 0x38AC JUMP JUMPDEST POP PUSH1 0x20 DUP3 ADD MLOAD PUSH2 0x391B PUSH1 0x20 DUP6 ADD DUP3 PUSH2 0x38E3 JUMP JUMPDEST POP POP POP POP JUMP JUMPDEST PUSH1 0x0 PUSH1 0x40 DUP3 ADD SWAP1 POP PUSH2 0x3936 PUSH1 0x0 DUP4 ADD DUP5 PUSH2 0x38F2 JUMP JUMPDEST SWAP3 SWAP2 POP POP JUMP JUMPDEST PUSH32 0x4E487B7100000000000000000000000000000000000000000000000000000000 PUSH1 0x0 MSTORE PUSH1 0x22 PUSH1 0x4 MSTORE PUSH1 0x24 PUSH1 0x0 REVERT JUMPDEST PUSH1 0x0 PUSH1 0x2 DUP3 DIV SWAP1 POP PUSH1 0x1 DUP3 AND DUP1 PUSH2 0x3983 JUMPI PUSH1 0x7F DUP3 AND SWAP2 POP JUMPDEST PUSH1 0x20 DUP3 LT DUP2 SUB PUSH2 0x3996 JUMPI PUSH2 0x3995 PUSH2 0x393C JUMP JUMPDEST JUMPDEST POP SWAP2 SWAP1 POP JUMP JUMPDEST PUSH32 0x4E487B7100000000000000000000000000000000000000000000000000000000 PUSH1 0x0 MSTORE PUSH1 0x11 PUSH1 0x4 MSTORE PUSH1 0x24 PUSH1 0x0 REVERT JUMPDEST PUSH1 0x0 PUSH2 0x39D6 DUP3 PUSH2 0x33F0 JUMP JUMPDEST SWAP2 POP PUSH2 0x39E1 DUP4 PUSH2 0x33F0 JUMP JUMPDEST SWAP3 POP DUP3 DUP3 SUB SWAP1 POP DUP2 DUP2 GT ISZERO PUSH2 0x39F9 JUMPI PUSH2 0x39F8 PUSH2 0x399C JUMP JUMPDEST JUMPDEST SWAP3 SWAP2 POP POP JUMP JUMPDEST PUSH32 0x496E73756666696369656E742074726561737572792062616C616E6365000000 PUSH1 0x0 DUP3 ADD MSTORE POP JUMP JUMPDEST PUSH1 0x0 PUSH2 0x3A35 PUSH1 0x1D DUP4 PUSH2 0x32EB JUMP JUMPDEST SWAP2 POP PUSH2 0x3A40 DUP3 PUSH2 0x39FF JUMP JUMPDEST PUSH1 0x20 DUP3 ADD SWAP1 POP SWAP2 SWAP1 POP JUMP JUMPDEST PUSH1 0x0 PUSH1 0x20 DUP3 ADD SWAP1 POP DUP2 DUP2 SUB PUSH1 0x0 DUP4 ADD MSTORE PUSH2 0x3A64 DUP2 PUSH2 0x3A28 JUMP JUMPDEST SWAP1 POP SWAP2 SWAP1 POP JUMP JUMPDEST PUSH32 0x416363657373436F6E74726F6C3A2063616E206F6E6C792072656E6F756E6365 PUSH1 0x0 DUP3 ADD MSTORE PUSH32 0x20726F6C657320666F722073656C660000000000000000000000000000000000 PUSH1 0x20 DUP3 ADD MSTORE POP JUMP JUMPDEST PUSH1 0x0 PUSH2 0x3AC7 PUSH1 0x2F DUP4 PUSH2 0x32EB JUMP JUMPDEST SWAP2 POP PUSH2 0x3AD2 DUP3 PUSH2 0x3A6B JUMP JUMPDEST PUSH1 0x40 DUP3 ADD SWAP1 POP SWAP2 SWAP1 POP JUMP JUMPDEST PUSH1 0x0 PUSH1 0x20 DUP3 ADD SWAP1 POP DUP2 DUP2 SUB PUSH1 0x0 DUP4 ADD MSTORE PUSH2 0x3AF6 DUP2 PUSH2 0x3ABA JUMP JUMPDEST SWAP1 POP SWAP2 SWAP1 POP JUMP JUMPDEST PUSH1 0x0 PUSH2 0x3B08 DUP3 PUSH2 0x33F0 JUMP JUMPDEST SWAP2 POP PUSH2 0x3B13 DUP4 PUSH2 0x33F0 JUMP JUMPDEST SWAP3 POP DUP3 DUP3 ADD SWAP1 POP DUP1 DUP3 GT ISZERO PUSH2 0x3B2B JUMPI PUSH2 0x3B2A PUSH2 0x399C JUMP JUMPDEST JUMPDEST SWAP3 SWAP2 POP POP JUMP JUMPDEST PUSH32 0x4552433230566F7465733A20626C6F636B206E6F7420796574206D696E656400 PUSH1 0x0 DUP3 ADD MSTORE POP JUMP JUMPDEST PUSH1 0x0 PUSH2 0x3B67 PUSH1 0x1F DUP4 PUSH2 0x32EB JUMP JUMPDEST SWAP2 POP PUSH2 0x3B72 DUP3 PUSH2 0x3B31 JUMP JUMPDEST PUSH1 0x20 DUP3 ADD SWAP1 POP SWAP2 SWAP1 POP JUMP JUMPDEST PUSH1 0x0 PUSH1 0x20 DUP3 ADD SWAP1 POP DUP2 DUP2 SUB PUSH1 0x0 DUP4 ADD MSTORE PUSH2 0x3B96 DUP2 PUSH2 0x3B5A JUMP JUMPDEST SWAP1 POP SWAP2 SWAP1 POP JUMP JUMPDEST PUSH32 0x4E487B7100000000000000000000000000000000000000000000000000000000 PUSH1 0x0 MSTORE PUSH1 0x32 PUSH1 0x4 MSTORE PUSH1 0x24 PUSH1 0x0 REVERT JUMPDEST PUSH32 0x45524332303A2064656372656173656420616C6C6F77616E63652062656C6F77 PUSH1 0x0 DUP3 ADD MSTORE PUSH32 0x207A65726F000000000000000000000000000000000000000000000000000000 PUSH1 0x20 DUP3 ADD MSTORE POP JUMP JUMPDEST PUSH1 0x0 PUSH2 0x3C28 PUSH1 0x25 DUP4 PUSH2 0x32EB JUMP JUMPDEST SWAP2 POP PUSH2 0x3C33 DUP3 PUSH2 0x3BCC JUMP JUMPDEST PUSH1 0x40 DUP3 ADD SWAP1 POP SWAP2 SWAP1 POP JUMP JUMPDEST PUSH1 0x0 PUSH1 0x20 DUP3 ADD SWAP1 POP DUP2 DUP2 SUB PUSH1 0x0 DUP4 ADD MSTORE PUSH2 0x3C57 DUP2 PUSH2 0x3C1B JUMP JUMPDEST SWAP1 POP SWAP2 SWAP1 POP JUMP JUMPDEST PUSH32 0x4552433230566F7465733A207369676E61747572652065787069726564000000 PUSH1 0x0 DUP3 ADD MSTORE POP JUMP JUMPDEST PUSH1 0x0 PUSH2 0x3C94 PUSH1 0x1D DUP4 PUSH2 0x32EB JUMP JUMPDEST SWAP2 POP PUSH2 0x3C9F DUP3 PUSH2 0x3C5E JUMP JUMPDEST PUSH1 0x20 DUP3 ADD SWAP1 POP SWAP2 SWAP1 POP JUMP JUMPDEST PUSH1 0x0 PUSH1 0x20 DUP3 ADD SWAP1 POP DUP2 DUP2 SUB PUSH1 0x0 DUP4 ADD MSTORE PUSH2 0x3CC3 DUP2 PUSH2 0x3C87 JUMP JUMPDEST SWAP1 POP SWAP2 SWAP1 POP JUMP JUMPDEST PUSH1 0x0 PUSH1 0x80 DUP3 ADD SWAP1 POP PUSH2 0x3CDF PUSH1 0x0 DUP4 ADD DUP8 PUSH2 0x3546 JUMP JUMPDEST PUSH2 0x3CEC PUSH1 0x20 DUP4 ADD DUP7 PUSH2 0x3641 JUMP JUMPDEST PUSH2 0x3CF9 PUSH1 0x40 DUP4 ADD DUP6 PUSH2 0x3466 JUMP JUMPDEST PUSH2 0x3D06 PUSH1 0x60 DUP4 ADD DUP5 PUSH2 0x3466 JUMP JUMPDEST SWAP6 SWAP5 POP POP POP POP POP JUMP JUMPDEST PUSH32 0x4552433230566F7465733A20696E76616C6964206E6F6E636500000000000000 PUSH1 0x0 DUP3 ADD MSTORE POP JUMP JUMPDEST PUSH1 0x0 PUSH2 0x3D45 PUSH1 0x19 DUP4 PUSH2 0x32EB JUMP JUMPDEST SWAP2 POP PUSH2 0x3D50 DUP3 PUSH2 0x3D0F JUMP JUMPDEST PUSH1 0x20 DUP3 ADD SWAP1 POP SWAP2 SWAP1 POP JUMP JUMPDEST PUSH1 0x0 PUSH1 0x20 DUP3 ADD SWAP1 POP DUP2 DUP2 SUB PUSH1 0x0 DUP4 ADD MSTORE PUSH2 0x3D74 DUP2 PUSH2 0x3D38 JUMP JUMPDEST SWAP1 POP SWAP2 SWAP1 POP JUMP JUMPDEST PUSH32 0x45524332305065726D69743A206578706972656420646561646C696E65000000 PUSH1 0x0 DUP3 ADD MSTORE POP JUMP JUMPDEST PUSH1 0x0 PUSH2 0x3DB1 PUSH1 0x1D DUP4 PUSH2 0x32EB JUMP JUMPDEST SWAP2 POP PUSH2 0x3DBC DUP3 PUSH2 0x3D7B JUMP JUMPDEST PUSH1 0x20 DUP3 ADD SWAP1 POP SWAP2 SWAP1 POP JUMP JUMPDEST PUSH1 0x0 PUSH1 0x20 DUP3 ADD SWAP1 POP DUP2 DUP2 SUB PUSH1 0x0 DUP4 ADD MSTORE PUSH2 0x3DE0 DUP2 PUSH2 0x3DA4 JUMP JUMPDEST SWAP1 POP SWAP2 SWAP1 POP JUMP JUMPDEST PUSH1 0x0 PUSH1 0xC0 DUP3 ADD SWAP1 POP PUSH2 0x3DFC PUSH1 0x0 DUP4 ADD DUP10 PUSH2 0x3546 JUMP JUMPDEST PUSH2 0x3E09 PUSH1 0x20 DUP4 ADD DUP9 PUSH2 0x3641 JUMP JUMPDEST PUSH2 0x3E16 PUSH1 0x40 DUP4 ADD DUP8 PUSH2 0x3641 JUMP JUMPDEST PUSH2 0x3E23 PUSH1 0x60 DUP4 ADD DUP7 PUSH2 0x3466 JUMP JUMPDEST PUSH2 0x3E30 PUSH1 0x80 DUP4 ADD DUP6 PUSH2 0x3466 JUMP JUMPDEST PUSH2 0x3E3D PUSH1 0xA0 DUP4 ADD DUP5 PUSH2 0x3466 JUMP JUMPDEST SWAP8 SWAP7 POP POP POP POP POP POP POP JUMP JUMPDEST PUSH32 0x45524332305065726D69743A20696E76616C6964207369676E61747572650000 PUSH1 0x0 DUP3 ADD MSTORE POP JUMP JUMPDEST PUSH1 0x0 PUSH2 0x3E7E PUSH1 0x1E DUP4 PUSH2 0x32EB JUMP JUMPDEST SWAP2 POP PUSH2 0x3E89 DUP3 PUSH2 0x3E48 JUMP JUMPDEST PUSH1 0x20 DUP3 ADD SWAP1 POP SWAP2 SWAP1 POP JUMP JUMPDEST PUSH1 0x0 PUSH1 0x20 DUP3 ADD SWAP1 POP DUP2 DUP2 SUB PUSH1 0x0 DUP4 ADD MSTORE PUSH2 0x3EAD DUP2 PUSH2 0x3E71 JUMP JUMPDEST SWAP1 POP SWAP2 SWAP1 POP JUMP JUMPDEST PUSH32 0x4552433230566F7465733A20746F74616C20737570706C79207269736B73206F PUSH1 0x0 DUP3 ADD MSTORE PUSH32 0x766572666C6F77696E6720766F74657300000000000000000000000000000000 PUSH1 0x20 DUP3 ADD MSTORE POP JUMP JUMPDEST PUSH1 0x0 PUSH2 0x3F10 PUSH1 0x30 DUP4 PUSH2 0x32EB JUMP JUMPDEST SWAP2 POP PUSH2 0x3F1B DUP3 PUSH2 0x3EB4 JUMP JUMPDEST PUSH1 0x40 DUP3 ADD SWAP1 POP SWAP2 SWAP1 POP JUMP JUMPDEST PUSH1 0x0 PUSH1 0x20 DUP3 ADD SWAP1 POP DUP2 DUP2 SUB PUSH1 0x0 DUP4 ADD MSTORE PUSH2 0x3F3F DUP2 PUSH2 0x3F03 JUMP JUMPDEST SWAP1 POP SWAP2 SWAP1 POP JUMP JUMPDEST PUSH32 0x45524332303A206D696E7420746F20746865207A65726F206164647265737300 PUSH1 0x0 DUP3 ADD MSTORE POP JUMP JUMPDEST PUSH1 0x0 PUSH2 0x3F7C PUSH1 0x1F DUP4 PUSH2 0x32EB JUMP JUMPDEST SWAP2 POP PUSH2 0x3F87 DUP3 PUSH2 0x3F46 JUMP JUMPDEST PUSH1 0x20 DUP3 ADD SWAP1 POP SWAP2 SWAP1 POP JUMP JUMPDEST PUSH1 0x0 PUSH1 0x20 DUP3 ADD SWAP1 POP DUP2 DUP2 SUB PUSH1 0x0 DUP4 ADD MSTORE PUSH2 0x3FAB DUP2 PUSH2 0x3F6F JUMP JUMPDEST SWAP1 POP SWAP2 SWAP1 POP JUMP JUMPDEST PUSH32 0x53616665436173743A2076616C756520646F65736E27742066697420696E2032 PUSH1 0x0 DUP3 ADD MSTORE PUSH32 0x3234206269747300000000000000000000000000000000000000000000000000 PUSH1 0x20 DUP3 ADD MSTORE POP JUMP JUMPDEST PUSH1 0x0 PUSH2 0x400E PUSH1 0x27 DUP4 PUSH2 0x32EB JUMP JUMPDEST SWAP2 POP PUSH2 0x4019 DUP3 PUSH2 0x3FB2 JUMP JUMPDEST PUSH1 0x40 DUP3 ADD SWAP1 POP SWAP2 SWAP1 POP JUMP JUMPDEST PUSH1 0x0 PUSH1 0x20 DUP3 ADD SWAP1 POP DUP2 DUP2 SUB PUSH1 0x0 DUP4 ADD MSTORE PUSH2 0x403D DUP2 PUSH2 0x4001 JUMP JUMPDEST SWAP1 POP SWAP2 SWAP1 POP JUMP JUMPDEST PUSH32 0x53616665436173743A2076616C756520646F65736E27742066697420696E2033 PUSH1 0x0 DUP3 ADD MSTORE PUSH32 0x3220626974730000000000000000000000000000000000000000000000000000 PUSH1 0x20 DUP3 ADD MSTORE POP JUMP JUMPDEST PUSH1 0x0 PUSH2 0x40A0 PUSH1 0x26 DUP4 PUSH2 0x32EB JUMP JUMPDEST SWAP2 POP PUSH2 0x40AB DUP3 PUSH2 0x4044 JUMP JUMPDEST PUSH1 0x40 DUP3 ADD SWAP1 POP SWAP2 SWAP1 POP JUMP JUMPDEST PUSH1 0x0 PUSH1 0x20 DUP3 ADD SWAP1 POP DUP2 DUP2 SUB PUSH1 0x0 DUP4 ADD MSTORE PUSH2 0x40CF DUP2 PUSH2 0x4093 JUMP JUMPDEST SWAP1 POP SWAP2 SWAP1 POP JUMP JUMPDEST PUSH1 0x0 PUSH2 0x40E1 DUP3 PUSH2 0x33F0 JUMP JUMPDEST SWAP2 POP PUSH2 0x40EC DUP4 PUSH2 0x33F0 JUMP JUMPDEST SWAP3 POP DUP3 DUP3 MUL PUSH2 0x40FA DUP2 PUSH2 0x33F0 JUMP JUMPDEST SWAP2 POP DUP3 DUP3 DIV DUP5 EQ DUP4 ISZERO OR PUSH2 0x4111 JUMPI PUSH2 0x4110 PUSH2 0x399C JUMP JUMPDEST JUMPDEST POP SWAP3 SWAP2 POP POP JUMP JUMPDEST PUSH32 0x4E487B7100000000000000000000000000000000000000000000000000000000 PUSH1 0x0 MSTORE PUSH1 0x41 PUSH1 0x4 MSTORE PUSH1 0x24 PUSH1 0x0 REVERT JUMPDEST PUSH1 0x0 PUSH2 0x4152 DUP3 PUSH2 0x33F0 JUMP JUMPDEST SWAP2 POP PUSH1 0x0 DUP3 SUB PUSH2 0x4165 JUMPI PUSH2 0x4164 PUSH2 0x399C JUMP JUMPDEST JUMPDEST PUSH1 0x1 DUP3 SUB SWAP1 POP SWAP2 SWAP1 POP JUMP JUMPDEST PUSH32 0x537472696E67733A20686578206C656E67746820696E73756666696369656E74 PUSH1 0x0 DUP3 ADD MSTORE POP JUMP JUMPDEST PUSH1 0x0 PUSH2 0x41A6 PUSH1 0x20 DUP4 PUSH2 0x32EB JUMP JUMPDEST SWAP2 POP PUSH2 0x41B1 DUP3 PUSH2 0x4170 JUMP JUMPDEST PUSH1 0x20 DUP3 ADD SWAP1 POP SWAP2 SWAP1 POP JUMP JUMPDEST PUSH1 0x0 PUSH1 0x20 DUP3 ADD SWAP1 POP DUP2 DUP2 SUB PUSH1 0x0 DUP4 ADD MSTORE PUSH2 0x41D5 DUP2 PUSH2 0x4199 JUMP JUMPDEST SWAP1 POP SWAP2 SWAP1 POP JUMP JUMPDEST PUSH32 0x45524332303A20617070726F76652066726F6D20746865207A65726F20616464 PUSH1 0x0 DUP3 ADD MSTORE PUSH32 0x7265737300000000000000000000000000000000000000000000000000000000 PUSH1 0x20 DUP3 ADD MSTORE POP JUMP JUMPDEST PUSH1 0x0 PUSH2 0x4238 PUSH1 0x24 DUP4 PUSH2 0x32EB JUMP JUMPDEST SWAP2 POP PUSH2 0x4243 DUP3 PUSH2 0x41DC JUMP JUMPDEST PUSH1 0x40 DUP3 ADD SWAP1 POP SWAP2 SWAP1 POP JUMP JUMPDEST PUSH1 0x0 PUSH1 0x20 DUP3 ADD SWAP1 POP DUP2 DUP2 SUB PUSH1 0x0 DUP4 ADD MSTORE PUSH2 0x4267 DUP2 PUSH2 0x422B JUMP JUMPDEST SWAP1 POP SWAP2 SWAP1 POP JUMP JUMPDEST PUSH32 0x45524332303A20617070726F766520746F20746865207A65726F206164647265 PUSH1 0x0 DUP3 ADD MSTORE PUSH32 0x7373000000000000000000000000000000000000000000000000000000000000 PUSH1 0x20 DUP3 ADD MSTORE POP JUMP JUMPDEST PUSH1 0x0 PUSH2 0x42CA PUSH1 0x22 DUP4 PUSH2 0x32EB JUMP JUMPDEST SWAP2 POP PUSH2 0x42D5 DUP3 PUSH2 0x426E JUMP JUMPDEST PUSH1 0x40 DUP3 ADD SWAP1 POP SWAP2 SWAP1 POP JUMP JUMPDEST PUSH1 0x0 PUSH1 0x20 DUP3 ADD SWAP1 POP DUP2 DUP2 SUB PUSH1 0x0 DUP4 ADD MSTORE PUSH2 0x42F9 DUP2 PUSH2 0x42BD JUMP JUMPDEST SWAP1 POP SWAP2 SWAP1 POP JUMP JUMPDEST PUSH32 0x45524332303A20696E73756666696369656E7420616C6C6F77616E6365000000 PUSH1 0x0 DUP3 ADD MSTORE POP JUMP JUMPDEST PUSH1 0x0 PUSH2 0x4336 PUSH1 0x1D DUP4 PUSH2 0x32EB JUMP JUMPDEST SWAP2 POP PUSH2 0x4341 DUP3 PUSH2 0x4300 JUMP JUMPDEST PUSH1 0x20 DUP3 ADD SWAP1 POP SWAP2 SWAP1 POP JUMP JUMPDEST PUSH1 0x0 PUSH1 0x20 DUP3 ADD SWAP1 POP DUP2 DUP2 SUB PUSH1 0x0 DUP4 ADD MSTORE PUSH2 0x4365 DUP2 PUSH2 0x4329 JUMP JUMPDEST SWAP1 POP SWAP2 SWAP1 POP JUMP JUMPDEST PUSH1 0x0 PUSH1 0x40 DUP3 ADD SWAP1 POP PUSH2 0x4381 PUSH1 0x0 DUP4 ADD DUP6 PUSH2 0x3466 JUMP JUMPDEST PUSH2 0x438E PUSH1 0x20 DUP4 ADD DUP5 PUSH2 0x3466 JUMP JUMPDEST SWAP4 SWAP3 POP POP POP JUMP JUMPDEST PUSH32 0x45524332303A207472616E736665722066726F6D20746865207A65726F206164 PUSH1 0x0 DUP3 ADD MSTORE PUSH32 0x6472657373000000000000000000000000000000000000000000000000000000 PUSH1 0x20 DUP3 ADD MSTORE POP JUMP JUMPDEST PUSH1 0x0 PUSH2 0x43F1 PUSH1 0x25 DUP4 PUSH2 0x32EB JUMP JUMPDEST SWAP2 POP PUSH2 0x43FC DUP3 PUSH2 0x4395 JUMP JUMPDEST PUSH1 0x40 DUP3 ADD SWAP1 POP SWAP2 SWAP1 POP JUMP JUMPDEST PUSH1 0x0 PUSH1 0x20 DUP3 ADD SWAP1 POP DUP2 DUP2 SUB PUSH1 0x0 DUP4 ADD MSTORE PUSH2 0x4420 DUP2 PUSH2 0x43E4 JUMP JUMPDEST SWAP1 POP SWAP2 SWAP1 POP JUMP JUMPDEST PUSH32 0x45524332303A207472616E7366657220746F20746865207A65726F2061646472 PUSH1 0x0 DUP3 ADD MSTORE PUSH32 0x6573730000000000000000000000000000000000000000000000000000000000 PUSH1 0x20 DUP3 ADD MSTORE POP JUMP JUMPDEST PUSH1 0x0 PUSH2 0x4483 PUSH1 0x23 DUP4 PUSH2 0x32EB JUMP JUMPDEST SWAP2 POP PUSH2 0x448E DUP3 PUSH2 0x4427 JUMP JUMPDEST PUSH1 0x40 DUP3 ADD SWAP1 POP SWAP2 SWAP1 POP JUMP JUMPDEST PUSH1 0x0 PUSH1 0x20 DUP3 ADD SWAP1 POP DUP2 DUP2 SUB PUSH1 0x0 DUP4 ADD MSTORE PUSH2 0x44B2 DUP2 PUSH2 0x4476 JUMP JUMPDEST SWAP1 POP SWAP2 SWAP1 POP JUMP JUMPDEST PUSH32 0x45524332303A207472616E7366657220616D6F756E7420657863656564732062 PUSH1 0x0 DUP3 ADD MSTORE PUSH32 0x616C616E63650000000000000000000000000000000000000000000000000000 PUSH1 0x20 DUP3 ADD MSTORE POP JUMP JUMPDEST PUSH1 0x0 PUSH2 0x4515 PUSH1 0x26 DUP4 PUSH2 0x32EB JUMP JUMPDEST SWAP2 POP PUSH2 0x4520 DUP3 PUSH2 0x44B9 JUMP JUMPDEST PUSH1 0x40 DUP3 ADD SWAP1 POP SWAP2 SWAP1 POP JUMP JUMPDEST PUSH1 0x0 PUSH1 0x20 DUP3 ADD SWAP1 POP DUP2 DUP2 SUB PUSH1 0x0 DUP4 ADD MSTORE PUSH2 0x4544 DUP2 PUSH2 0x4508 JUMP JUMPDEST SWAP1 POP SWAP2 SWAP1 POP JUMP JUMPDEST PUSH1 0x0 DUP2 SWAP1 POP SWAP3 SWAP2 POP POP JUMP JUMPDEST PUSH32 0x416363657373436F6E74726F6C3A206163636F756E7420000000000000000000 PUSH1 0x0 DUP3 ADD MSTORE POP JUMP JUMPDEST PUSH1 0x0 PUSH2 0x458C PUSH1 0x17 DUP4 PUSH2 0x454B JUMP JUMPDEST SWAP2 POP PUSH2 0x4597 DUP3 PUSH2 0x4556 JUMP JUMPDEST PUSH1 0x17 DUP3 ADD SWAP1 POP SWAP2 SWAP1 POP JUMP JUMPDEST PUSH1 0x0 PUSH2 0x45AD DUP3 PUSH2 0x32E0 JUMP JUMPDEST PUSH2 0x45B7 DUP2 DUP6 PUSH2 0x454B JUMP JUMPDEST SWAP4 POP PUSH2 0x45C7 DUP2 DUP6 PUSH1 0x20 DUP7 ADD PUSH2 0x32FC JUMP JUMPDEST DUP1 DUP5 ADD SWAP2 POP POP SWAP3 SWAP2 POP POP JUMP JUMPDEST PUSH32 0x206973206D697373696E6720726F6C6520000000000000000000000000000000 PUSH1 0x0 DUP3 ADD MSTORE POP JUMP JUMPDEST PUSH1 0x0 PUSH2 0x4609 PUSH1 0x11 DUP4 PUSH2 0x454B JUMP JUMPDEST SWAP2 POP PUSH2 0x4614 DUP3 PUSH2 0x45D3 JUMP JUMPDEST PUSH1 0x11 DUP3 ADD SWAP1 POP SWAP2 SWAP1 POP JUMP JUMPDEST PUSH1 0x0 PUSH2 0x462A DUP3 PUSH2 0x457F JUMP JUMPDEST SWAP2 POP PUSH2 0x4636 DUP3 DUP6 PUSH2 0x45A2 JUMP JUMPDEST SWAP2 POP PUSH2 0x4641 DUP3 PUSH2 0x45FC JUMP JUMPDEST SWAP2 POP PUSH2 0x464D DUP3 DUP5 PUSH2 0x45A2 JUMP JUMPDEST SWAP2 POP DUP2 SWAP1 POP SWAP4 SWAP3 POP POP POP JUMP JUMPDEST PUSH1 0x0 PUSH1 0xA0 DUP3 ADD SWAP1 POP PUSH2 0x466E PUSH1 0x0 DUP4 ADD DUP9 PUSH2 0x3546 JUMP JUMPDEST PUSH2 0x467B PUSH1 0x20 DUP4 ADD DUP8 PUSH2 0x3546 JUMP JUMPDEST PUSH2 0x4688 PUSH1 0x40 DUP4 ADD DUP7 PUSH2 0x3546 JUMP JUMPDEST PUSH2 0x4695 PUSH1 0x60 DUP4 ADD DUP6 PUSH2 0x3466 JUMP JUMPDEST PUSH2 0x46A2 PUSH1 0x80 DUP4 ADD DUP5 PUSH2 0x3641 JUMP JUMPDEST SWAP7 SWAP6 POP POP POP POP POP POP JUMP JUMPDEST PUSH32 0x4E487B7100000000000000000000000000000000000000000000000000000000 PUSH1 0x0 MSTORE PUSH1 0x12 PUSH1 0x4 MSTORE PUSH1 0x24 PUSH1 0x0 REVERT JUMPDEST PUSH1 0x0 PUSH2 0x46E6 DUP3 PUSH2 0x33F0 JUMP JUMPDEST SWAP2 POP PUSH2 0x46F1 DUP4 PUSH2 0x33F0 JUMP JUMPDEST SWAP3 POP DUP3 PUSH2 0x4701 JUMPI PUSH2 0x4700 PUSH2 0x46AC JUMP JUMPDEST JUMPDEST DUP3 DUP3 DIV SWAP1 POP SWAP3 SWAP2 POP POP JUMP JUMPDEST PUSH32 0x1901000000000000000000000000000000000000000000000000000000000000 PUSH1 0x0 DUP3 ADD MSTORE POP JUMP JUMPDEST PUSH1 0x0 PUSH2 0x4742 PUSH1 0x2 DUP4 PUSH2 0x454B JUMP JUMPDEST SWAP2 POP PUSH2 0x474D DUP3 PUSH2 0x470C JUMP JUMPDEST PUSH1 0x2 DUP3 ADD SWAP1 POP SWAP2 SWAP1 POP JUMP JUMPDEST PUSH1 0x0 DUP2 SWAP1 POP SWAP2 SWAP1 POP JUMP JUMPDEST PUSH2 0x4773 PUSH2 0x476E DUP3 PUSH2 0x34E3 JUMP JUMPDEST PUSH2 0x4758 JUMP JUMPDEST DUP3 MSTORE POP POP JUMP JUMPDEST PUSH1 0x0 PUSH2 0x4784 DUP3 PUSH2 0x4735 JUMP JUMPDEST SWAP2 POP PUSH2 0x4790 DUP3 DUP6 PUSH2 0x4762 JUMP JUMPDEST PUSH1 0x20 DUP3 ADD SWAP2 POP PUSH2 0x47A0 DUP3 DUP5 PUSH2 0x4762 JUMP JUMPDEST PUSH1 0x20 DUP3 ADD SWAP2 POP DUP2 SWAP1 POP SWAP4 SWAP3 POP POP POP JUMP JUMPDEST PUSH1 0x0 PUSH1 0x80 DUP3 ADD SWAP1 POP PUSH2 0x47C5 PUSH1 0x0 DUP4 ADD DUP8 PUSH2 0x3546 JUMP JUMPDEST PUSH2 0x47D2 PUSH1 0x20 DUP4 ADD DUP7 PUSH2 0x35BD JUMP JUMPDEST PUSH2 0x47DF PUSH1 0x40 DUP4 ADD DUP6 PUSH2 0x3546 JUMP JUMPDEST PUSH2 0x47EC PUSH1 0x60 DUP4 ADD DUP5 PUSH2 0x3546 JUMP JUMPDEST SWAP6 SWAP5 POP POP POP POP POP JUMP JUMPDEST PUSH32 0x4E487B7100000000000000000000000000000000000000000000000000000000 PUSH1 0x0 MSTORE PUSH1 0x21 PUSH1 0x4 MSTORE PUSH1 0x24 PUSH1 0x0 REVERT JUMPDEST PUSH32 0x45434453413A20696E76616C6964207369676E61747572650000000000000000 PUSH1 0x0 DUP3 ADD MSTORE POP JUMP JUMPDEST PUSH1 0x0 PUSH2 0x485A PUSH1 0x18 DUP4 PUSH2 0x32EB JUMP JUMPDEST SWAP2 POP PUSH2 0x4865 DUP3 PUSH2 0x4824 JUMP JUMPDEST PUSH1 0x20 DUP3 ADD SWAP1 POP SWAP2 SWAP1 POP JUMP JUMPDEST PUSH1 0x0 PUSH1 0x20 DUP3 ADD SWAP1 POP DUP2 DUP2 SUB PUSH1 0x0 DUP4 ADD MSTORE PUSH2 0x4889 DUP2 PUSH2 0x484D JUMP JUMPDEST SWAP1 POP SWAP2 SWAP1 POP JUMP JUMPDEST PUSH32 0x45434453413A20696E76616C6964207369676E6174757265206C656E67746800 PUSH1 0x0 DUP3 ADD MSTORE POP JUMP JUMPDEST PUSH1 0x0 PUSH2 0x48C6 PUSH1 0x1F DUP4 PUSH2 0x32EB JUMP JUMPDEST SWAP2 POP PUSH2 0x48D1 DUP3 PUSH2 0x4890 JUMP JUMPDEST PUSH1 0x20 DUP3 ADD SWAP1 POP SWAP2 SWAP1 POP JUMP JUMPDEST PUSH1 0x0 PUSH1 0x20 DUP3 ADD SWAP1 POP DUP2 DUP2 SUB PUSH1 0x0 DUP4 ADD MSTORE PUSH2 0x48F5 DUP2 PUSH2 0x48B9 JUMP JUMPDEST SWAP1 POP SWAP2 SWAP1 POP JUMP JUMPDEST PUSH32 0x45434453413A20696E76616C6964207369676E6174757265202773272076616C PUSH1 0x0 DUP3 ADD MSTORE PUSH32 0x7565000000000000000000000000000000000000000000000000000000000000 PUSH1 0x20 DUP3 ADD MSTORE POP JUMP JUMPDEST PUSH1 0x0 PUSH2 0x4958 PUSH1 0x22 DUP4 PUSH2 0x32EB JUMP JUMPDEST SWAP2 POP PUSH2 0x4963 DUP3 PUSH2 0x48FC JUMP JUMPDEST PUSH1 0x40 DUP3 ADD SWAP1 POP SWAP2 SWAP1 POP JUMP JUMPDEST PUSH1 0x0 PUSH1 0x20 DUP3 ADD SWAP1 POP DUP2 DUP2 SUB PUSH1 0x0 DUP4 ADD MSTORE PUSH2 0x4987 DUP2 PUSH2 0x494B JUMP JUMPDEST SWAP1 POP SWAP2 SWAP1 POP JUMP JUMPDEST PUSH32 0x45524332303A206275726E2066726F6D20746865207A65726F20616464726573 PUSH1 0x0 DUP3 ADD MSTORE PUSH32 0x7300000000000000000000000000000000000000000000000000000000000000 PUSH1 0x20 DUP3 ADD MSTORE POP JUMP JUMPDEST PUSH1 0x0 PUSH2 0x49EA PUSH1 0x21 DUP4 PUSH2 0x32EB JUMP JUMPDEST SWAP2 POP PUSH2 0x49F5 DUP3 PUSH2 0x498E JUMP JUMPDEST PUSH1 0x40 DUP3 ADD SWAP1 POP SWAP2 SWAP1 POP JUMP JUMPDEST PUSH1 0x0 PUSH1 0x20 DUP3 ADD SWAP1 POP DUP2 DUP2 SUB PUSH1 0x0 DUP4 ADD MSTORE PUSH2 0x4A19 DUP2 PUSH2 0x49DD JUMP JUMPDEST SWAP1 POP SWAP2 SWAP1 POP JUMP JUMPDEST PUSH32 0x45524332303A206275726E20616D6F756E7420657863656564732062616C616E PUSH1 0x0 DUP3 ADD MSTORE PUSH32 0x6365000000000000000000000000000000000000000000000000000000000000 PUSH1 0x20 DUP3 ADD MSTORE POP JUMP JUMPDEST PUSH1 0x0 PUSH2 0x4A7C PUSH1 0x22 DUP4 PUSH2 0x32EB JUMP JUMPDEST SWAP2 POP PUSH2 0x4A87 DUP3 PUSH2 0x4A20 JUMP JUMPDEST PUSH1 0x40 DUP3 ADD SWAP1 POP SWAP2 SWAP1 POP JUMP JUMPDEST PUSH1 0x0 PUSH1 0x20 DUP3 ADD SWAP1 POP DUP2 DUP2 SUB PUSH1 0x0 DUP4 ADD MSTORE PUSH2 0x4AAB DUP2 PUSH2 0x4A6F JUMP JUMPDEST SWAP1 POP SWAP2 SWAP1 POP JUMP INVALID LOG2 PUSH5 0x6970667358 0x22 SLT KECCAK256 PUSH17 0x120FD6313CD12F679A79A45F59CE5191E8 0xD7 XOR MUL PREVRANDAO 0xD4 SWAP1 SWAP10 PUSH21 0x9194E5F7DEC264736F6C6343000812003300000000 "
		},
		"gasEstimates": {
			"creation": {
				"codeDepositCost": "3835200",
				"executionCost": "infinite",
				"totalCost": "infinite"
			},
			"external": {
				"DEFAULT_ADMIN_ROLE()": "380",
				"DOMAIN_SEPARATOR()": "infinite",
				"MAX_SUPPLY()": "infinite",
				"TREASURY_AMOUNT()": "infinite",
				"TREASURY_ROLE()": "373",
				"allowance(address,address)": "infinite",
				"approve(address,uint256)": "infinite",
				"balanceOf(address)": "2887",
				"burn(uint256)": "infinite",
				"burnFrom(address,uint256)": "infinite",
				"checkpoints(address,uint32)": "infinite",
				"decimals()": "455",
				"decreaseAllowance(address,uint256)": "infinite",
				"delegate(address)": "infinite",
				"delegateBySig(address,uint256,uint256,uint8,bytes32,bytes32)": "infinite",
				"delegates(address)": "infinite",
				"getPastTotalSupply(uint256)": "infinite",
				"getPastVotes(address,uint256)": "infinite",
				"getRoleAdmin(bytes32)": "infinite",
				"getVotes(address)": "infinite",
				"grantRole(bytes32,address)": "infinite",
				"hasRole(bytes32,address)": "3207",
				"increaseAllowance(address,uint256)": "infinite",
				"name()": "infinite",
				"nonces(address)": "2980",
				"numCheckpoints(address)": "3147",
				"permit(address,address,uint256,uint256,uint8,bytes32,bytes32)": "infinite",
				"renounceRole(bytes32,address)": "infinite",
				"revokeRole(bytes32,address)": "infinite",
				"supportsInterface(bytes4)": "774",
				"symbol()": "infinite",
				"totalSupply()": "2550",
				"transfer(address,uint256)": "infinite",
				"transferFrom(address,address,uint256)": "infinite"
			},
			"internal": {
				"_afterTokenTransfer(address,address,uint256)": "infinite",
				"_burn(address,uint256)": "infinite",
				"_mint(address,uint256)": "infinite",
				"_mintTreasury(uint256)": "infinite"
			}
		},
		"methodIdentifiers": {
			"DEFAULT_ADMIN_ROLE()": "a217fddf",
			"DOMAIN_SEPARATOR()": "3644e515",
			"MAX_SUPPLY()": "32cb6b0c",
			"TREASURY_AMOUNT()": "7fbd1b5a",
			"TREASURY_ROLE()": "d11a57ec",
			"allowance(address,address)": "dd62ed3e",
			"approve(address,uint256)": "095ea7b3",
			"balanceOf(address)": "70a08231",
			"burn(uint256)": "42966c68",
			"burnFrom(address,uint256)": "79cc6790",
			"checkpoints(address,uint32)": "f1127ed8",
			"decimals()": "313ce567",
			"decreaseAllowance(address,uint256)": "a457c2d7",
			"delegate(address)": "5c19a95c",
			"delegateBySig(address,uint256,uint256,uint8,bytes32,bytes32)": "c3cda520",
			"delegates(address)": "587cde1e",
			"getPastTotalSupply(uint256)": "8e539e8c",
			"getPastVotes(address,uint256)": "3a46b1a8",
			"getRoleAdmin(bytes32)": "248a9ca3",
			"getVotes(address)": "9ab24eb0",
			"grantRole(bytes32,address)": "2f2ff15d",
			"hasRole(bytes32,address)": "91d14854",
			"increaseAllowance(address,uint256)": "39509351",
			"name()": "06fdde03",
			"nonces(address)": "7ecebe00",
			"numCheckpoints(address)": "6fcfff45",
			"permit(address,address,uint256,uint256,uint8,bytes32,bytes32)": "d505accf",
			"renounceRole(bytes32,address)": "36568abe",
			"revokeRole(bytes32,address)": "d547741f",
			"supportsInterface(bytes4)": "01ffc9a7",
			"symbol()": "95d89b41",
			"totalSupply()": "18160ddd",
			"transfer(address,uint256)": "a9059cbb",
			"transferFrom(address,address,uint256)": "23b872dd"
		}
	},
	"abi": [
		{
			"inputs": [],
			"stateMutability": "nonpayable",
			"type": "constructor"
		},
		{
			"anonymous": false,
			"inputs": [
				{
					"indexed": true,
					"internalType": "address",
					"name": "owner",
					"type": "address"
				},
				{
					"indexed": true,
					"internalType": "address",
					"name": "spender",
					"type": "address"
				},
				{
					"indexed": false,
					"internalType": "uint256",
					"name": "value",
					"type": "uint256"
				}
			],
			"name": "Approval",
			"type": "event"
		},
		{
			"anonymous": false,
			"inputs": [
				{
					"indexed": true,
					"internalType": "address",
					"name": "delegator",
					"type": "address"
				},
				{
					"indexed": true,
					"internalType": "address",
					"name": "fromDelegate",
					"type": "address"
				},
				{
					"indexed": true,
					"internalType": "address",
					"name": "toDelegate",
					"type": "address"
				}
			],
			"name": "DelegateChanged",
			"type": "event"
		},
		{
			"anonymous": false,
			"inputs": [
				{
					"indexed": true,
					"internalType": "address",
					"name": "delegate",
					"type": "address"
				},
				{
					"indexed": false,
					"internalType": "uint256",
					"name": "previousBalance",
					"type": "uint256"
				},
				{
					"indexed": false,
					"internalType": "uint256",
					"name": "newBalance",
					"type": "uint256"
				}
			],
			"name": "DelegateVotesChanged",
			"type": "event"
		},
		{
			"anonymous": false,
			"inputs": [
				{
					"indexed": true,
					"internalType": "bytes32",
					"name": "role",
					"type": "bytes32"
				},
				{
					"indexed": true,
					"internalType": "bytes32",
					"name": "previousAdminRole",
					"type": "bytes32"
				},
				{
					"indexed": true,
					"internalType": "bytes32",
					"name": "newAdminRole",
					"type": "bytes32"
				}
			],
			"name": "RoleAdminChanged",
			"type": "event"
		},
		{
			"anonymous": false,
			"inputs": [
				{
					"indexed": true,
					"internalType": "bytes32",
					"name": "role",
					"type": "bytes32"
				},
				{
					"indexed": true,
					"internalType": "address",
					"name": "account",
					"type": "address"
				},
				{
					"indexed": true,
					"internalType": "address",
					"name": "sender",
					"type": "address"
				}
			],
			"name": "RoleGranted",
			"type": "event"
		},
		{
			"anonymous": false,
			"inputs": [
				{
					"indexed": true,
					"internalType": "bytes32",
					"name": "role",
					"type": "bytes32"
				},
				{
					"indexed": true,
					"internalType": "address",
					"name": "account",
					"type": "address"
				},
				{
					"indexed": true,
					"internalType": "address",
					"name": "sender",
					"type": "address"
				}
			],
			"name": "RoleRevoked",
			"type": "event"
		},
		{
			"anonymous": false,
			"inputs": [
				{
					"indexed": true,
					"internalType": "address",
					"name": "from",
					"type": "address"
				},
				{
					"indexed": true,
					"internalType": "address",
					"name": "to",
					"type": "address"
				},
				{
					"indexed": false,
					"internalType": "uint256",
					"name": "value",
					"type": "uint256"
				}
			],
			"name": "Transfer",
			"type": "event"
		},
		{
			"inputs": [],
			"name": "DEFAULT_ADMIN_ROLE",
			"outputs": [
				{
					"internalType": "bytes32",
					"name": "",
					"type": "bytes32"
				}
			],
			"stateMutability": "view",
			"type": "function"
		},
		{
			"inputs": [],
			"name": "DOMAIN_SEPARATOR",
			"outputs": [
				{
					"internalType": "bytes32",
					"name": "",
					"type": "bytes32"
				}
			],
			"stateMutability": "view",
			"type": "function"
		},
		{
			"inputs": [],
			"name": "MAX_SUPPLY",
			"outputs": [
				{
					"internalType": "uint256",
					"name": "",
					"type": "uint256"
				}
			],
			"stateMutability": "view",
			"type": "function"
		},
		{
			"inputs": [],
			"name": "TREASURY_AMOUNT",
			"outputs": [
				{
					"internalType": "uint256",
					"name": "",
					"type": "uint256"
				}
			],
			"stateMutability": "view",
			"type": "function"
		},
		{
			"inputs": [],
			"name": "TREASURY_ROLE",
			"outputs": [
				{
					"internalType": "bytes32",
					"name": "",
					"type": "bytes32"
				}
			],
			"stateMutability": "view",
			"type": "function"
		},
		{
			"inputs": [
				{
					"internalType": "address",
					"name": "owner",
					"type": "address"
				},
				{
					"internalType": "address",
					"name": "spender",
					"type": "address"
				}
			],
			"name": "allowance",
			"outputs": [
				{
					"internalType": "uint256",
					"name": "",
					"type": "uint256"
				}
			],
			"stateMutability": "view",
			"type": "function"
		},
		{
			"inputs": [
				{
					"internalType": "address",
					"name": "spender",
					"type": "address"
				},
				{
					"internalType": "uint256",
					"name": "amount",
					"type": "uint256"
				}
			],
			"name": "approve",
			"outputs": [
				{
					"internalType": "bool",
					"name": "",
					"type": "bool"
				}
			],
			"stateMutability": "nonpayable",
			"type": "function"
		},
		{
			"inputs": [
				{
					"internalType": "address",
					"name": "account",
					"type": "address"
				}
			],
			"name": "balanceOf",
			"outputs": [
				{
					"internalType": "uint256",
					"name": "",
					"type": "uint256"
				}
			],
			"stateMutability": "view",
			"type": "function"
		},
		{
			"inputs": [
				{
					"internalType": "uint256",
					"name": "amount",
					"type": "uint256"
				}
			],
			"name": "burn",
			"outputs": [],
			"stateMutability": "nonpayable",
			"type": "function"
		},
		{
			"inputs": [
				{
					"internalType": "address",
					"name": "account",
					"type": "address"
				},
				{
					"internalType": "uint256",
					"name": "amount",
					"type": "uint256"
				}
			],
			"name": "burnFrom",
			"outputs": [],
			"stateMutability": "nonpayable",
			"type": "function"
		},
		{
			"inputs": [
				{
					"internalType": "address",
					"name": "account",
					"type": "address"
				},
				{
					"internalType": "uint32",
					"name": "pos",
					"type": "uint32"
				}
			],
			"name": "checkpoints",
			"outputs": [
				{
					"components": [
						{
							"internalType": "uint32",
							"name": "fromBlock",
							"type": "uint32"
						},
						{
							"internalType": "uint224",
							"name": "votes",
							"type": "uint224"
						}
					],
					"internalType": "struct ERC20Votes.Checkpoint",
					"name": "",
					"type": "tuple"
				}
			],
			"stateMutability": "view",
			"type": "function"
		},
		{
			"inputs": [],
			"name": "decimals",
			"outputs": [
				{
					"internalType": "uint8",
					"name": "",
					"type": "uint8"
				}
			],
			"stateMutability": "view",
			"type": "function"
		},
		{
			"inputs": [
				{
					"internalType": "address",
					"name": "spender",
					"type": "address"
				},
				{
					"internalType": "uint256",
					"name": "subtractedValue",
					"type": "uint256"
				}
			],
			"name": "decreaseAllowance",
			"outputs": [
				{
					"internalType": "bool",
					"name": "",
					"type": "bool"
				}
			],
			"stateMutability": "nonpayable",
			"type": "function"
		},
		{
			"inputs": [
				{
					"internalType": "address",
					"name": "delegatee",
					"type": "address"
				}
			],
			"name": "delegate",
			"outputs": [],
			"stateMutability": "nonpayable",
			"type": "function"
		},
		{
			"inputs": [
				{
					"internalType": "address",
					"name": "delegatee",
					"type": "address"
				},
				{
					"internalType": "uint256",
					"name": "nonce",
					"type": "uint256"
				},
				{
					"internalType": "uint256",
					"name": "expiry",
					"type": "uint256"
				},
				{
					"internalType": "uint8",
					"name": "v",
					"type": "uint8"
				},
				{
					"internalType": "bytes32",
					"name": "r",
					"type": "bytes32"
				},
				{
					"internalType": "bytes32",
					"name": "s",
					"type": "bytes32"
				}
			],
			"name": "delegateBySig",
			"outputs": [],
			"stateMutability": "nonpayable",
			"type": "function"
		},
		{
			"inputs": [
				{
					"internalType": "address",
					"name": "account",
					"type": "address"
				}
			],
			"name": "delegates",
			"outputs": [
				{
					"internalType": "address",
					"name": "",
					"type": "address"
				}
			],
			"stateMutability": "view",
			"type": "function"
		},
		{
			"inputs": [
				{
					"internalType": "uint256",
					"name": "blockNumber",
					"type": "uint256"
				}
			],
			"name": "getPastTotalSupply",
			"outputs": [
				{
					"internalType": "uint256",
					"name": "",
					"type": "uint256"
				}
			],
			"stateMutability": "view",
			"type": "function"
		},
		{
			"inputs": [
				{
					"internalType": "address",
					"name": "account",
					"type": "address"
				},
				{
					"internalType": "uint256",
					"name": "blockNumber",
					"type": "uint256"
				}
			],
			"name": "getPastVotes",
			"outputs": [
				{
					"internalType": "uint256",
					"name": "",
					"type": "uint256"
				}
			],
			"stateMutability": "view",
			"type": "function"
		},
		{
			"inputs": [
				{
					"internalType": "bytes32",
					"name": "role",
					"type": "bytes32"
				}
			],
			"name": "getRoleAdmin",
			"outputs": [
				{
					"internalType": "bytes32",
					"name": "",
					"type": "bytes32"
				}
			],
			"stateMutability": "view",
			"type": "function"
		},
		{
			"inputs": [
				{
					"internalType": "address",
					"name": "account",
					"type": "address"
				}
			],
			"name": "getVotes",
			"outputs": [
				{
					"internalType": "uint256",
					"name": "",
					"type": "uint256"
				}
			],
			"stateMutability": "view",
			"type": "function"
		},
		{
			"inputs": [
				{
					"internalType": "bytes32",
					"name": "role",
					"type": "bytes32"
				},
				{
					"internalType": "address",
					"name": "account",
					"type": "address"
				}
			],
			"name": "grantRole",
			"outputs": [],
			"stateMutability": "nonpayable",
			"type": "function"
		},
		{
			"inputs": [
				{
					"internalType": "bytes32",
					"name": "role",
					"type": "bytes32"
				},
				{
					"internalType": "address",
					"name": "account",
					"type": "address"
				}
			],
			"name": "hasRole",
			"outputs": [
				{
					"internalType": "bool",
					"name": "",
					"type": "bool"
				}
			],
			"stateMutability": "view",
			"type": "function"
		},
		{
			"inputs": [
				{
					"internalType": "address",
					"name": "spender",
					"type": "address"
				},
				{
					"internalType": "uint256",
					"name": "addedValue",
					"type": "uint256"
				}
			],
			"name": "increaseAllowance",
			"outputs": [
				{
					"internalType": "bool",
					"name": "",
					"type": "bool"
				}
			],
			"stateMutability": "nonpayable",
			"type": "function"
		},
		{
			"inputs": [],
			"name": "name",
			"outputs": [
				{
					"internalType": "string",
					"name": "",
					"type": "string"
				}
			],
			"stateMutability": "view",
			"type": "function"
		},
		{
			"inputs": [
				{
					"internalType": "address",
					"name": "owner",
					"type": "address"
				}
			],
			"name": "nonces",
			"outputs": [
				{
					"internalType": "uint256",
					"name": "",
					"type": "uint256"
				}
			],
			"stateMutability": "view",
			"type": "function"
		},
		{
			"inputs": [
				{
					"internalType": "address",
					"name": "account",
					"type": "address"
				}
			],
			"name": "numCheckpoints",
			"outputs": [
				{
					"internalType": "uint32",
					"name": "",
					"type": "uint32"
				}
			],
			"stateMutability": "view",
			"type": "function"
		},
		{
			"inputs": [
				{
					"internalType": "address",
					"name": "owner",
					"type": "address"
				},
				{
					"internalType": "address",
					"name": "spender",
					"type": "address"
				},
				{
					"internalType": "uint256",
					"name": "value",
					"type": "uint256"
				},
				{
					"internalType": "uint256",
					"name": "deadline",
					"type": "uint256"
				},
				{
					"internalType": "uint8",
					"name": "v",
					"type": "uint8"
				},
				{
					"internalType": "bytes32",
					"name": "r",
					"type": "bytes32"
				},
				{
					"internalType": "bytes32",
					"name": "s",
					"type": "bytes32"
				}
			],
			"name": "permit",
			"outputs": [],
			"stateMutability": "nonpayable",
			"type": "function"
		},
		{
			"inputs": [
				{
					"internalType": "bytes32",
					"name": "role",
					"type": "bytes32"
				},
				{
					"internalType": "address",
					"name": "account",
					"type": "address"
				}
			],
			"name": "renounceRole",
			"outputs": [],
			"stateMutability": "nonpayable",
			"type": "function"
		},
		{
			"inputs": [
				{
					"internalType": "bytes32",
					"name": "role",
					"type": "bytes32"
				},
				{
					"internalType": "address",
					"name": "account",
					"type": "address"
				}
			],
			"name": "revokeRole",
			"outputs": [],
			"stateMutability": "nonpayable",
			"type": "function"
		},
		{
			"inputs": [
				{
					"internalType": "bytes4",
					"name": "interfaceId",
					"type": "bytes4"
				}
			],
			"name": "supportsInterface",
			"outputs": [
				{
					"internalType": "bool",
					"name": "",
					"type": "bool"
				}
			],
			"stateMutability": "view",
			"type": "function"
		},
		{
			"inputs": [],
			"name": "symbol",
			"outputs": [
				{
					"internalType": "string",
					"name": "",
					"type": "string"
				}
			],
			"stateMutability": "view",
			"type": "function"
		},
		{
			"inputs": [],
			"name": "totalSupply",
			"outputs": [
				{
					"internalType": "uint256",
					"name": "",
					"type": "uint256"
				}
			],
			"stateMutability": "view",
			"type": "function"
		},
		{
			"inputs": [
				{
					"internalType": "address",
					"name": "recipient",
					"type": "address"
				},
				{
					"internalType": "uint256",
					"name": "amount",
					"type": "uint256"
				}
			],
			"name": "transfer",
			"outputs": [
				{
					"internalType": "bool",
					"name": "",
					"type": "bool"
				}
			],
			"stateMutability": "nonpayable",
			"type": "function"
		},
		{
			"inputs": [
				{
					"internalType": "address",
					"name": "sender",
					"type": "address"
				},
				{
					"internalType": "address",
					"name": "recipient",
					"type": "address"
				},
				{
					"internalType": "uint256",
					"name": "amount",
					"type": "uint256"
				}
			],
			"name": "transferFrom",
			"outputs": [
				{
					"internalType": "bool",
					"name": "",
					"type": "bool"
				}
			],
			"stateMutability": "nonpayable",
			"type": "function"
		}
	]
}